{
  "contractName": "EDUContract",
  "abi": [
    {
      "inputs": [],
      "payable": false,
      "stateMutability": "nonpayable",
      "type": "constructor"
    },
    {
      "anonymous": false,
      "inputs": [
        {
          "indexed": true,
          "internalType": "uint256",
          "name": "index",
          "type": "uint256"
        },
        {
          "indexed": false,
          "internalType": "address",
          "name": "sender",
          "type": "address"
        }
      ],
      "name": "eCollegeRequestAdd",
      "type": "event"
    },
    {
      "anonymous": false,
      "inputs": [
        {
          "indexed": true,
          "internalType": "uint256",
          "name": "index",
          "type": "uint256"
        },
        {
          "indexed": false,
          "internalType": "address",
          "name": "sender",
          "type": "address"
        }
      ],
      "name": "eCollegeRequestUpdate",
      "type": "event"
    },
    {
      "anonymous": false,
      "inputs": [
        {
          "indexed": true,
          "internalType": "uint256",
          "name": "index",
          "type": "uint256"
        },
        {
          "indexed": false,
          "internalType": "address",
          "name": "sender",
          "type": "address"
        }
      ],
      "name": "eOrganizationRequestAdd",
      "type": "event"
    },
    {
      "anonymous": false,
      "inputs": [
        {
          "indexed": true,
          "internalType": "uint256",
          "name": "index",
          "type": "uint256"
        },
        {
          "indexed": false,
          "internalType": "address",
          "name": "sender",
          "type": "address"
        }
      ],
      "name": "eOrganizationRequestUpdate",
      "type": "event"
    },
    {
      "constant": true,
      "inputs": [],
      "name": "CollegeRequestIndex",
      "outputs": [
        {
          "internalType": "uint256",
          "name": "",
          "type": "uint256"
        }
      ],
      "payable": false,
      "stateMutability": "view",
      "type": "function"
    },
    {
      "constant": true,
      "inputs": [],
      "name": "DocumentIndex",
      "outputs": [
        {
          "internalType": "uint256",
          "name": "",
          "type": "uint256"
        }
      ],
      "payable": false,
      "stateMutability": "view",
      "type": "function"
    },
    {
      "constant": true,
      "inputs": [],
      "name": "OrganizationRequestIndex",
      "outputs": [
        {
          "internalType": "uint256",
          "name": "",
          "type": "uint256"
        }
      ],
      "payable": false,
      "stateMutability": "view",
      "type": "function"
    },
    {
      "constant": true,
      "inputs": [
        {
          "internalType": "address",
          "name": "",
          "type": "address"
        }
      ],
      "name": "administrator",
      "outputs": [
        {
          "internalType": "bool",
          "name": "",
          "type": "bool"
        }
      ],
      "payable": false,
      "stateMutability": "view",
      "type": "function"
    },
    {
      "constant": true,
      "inputs": [
        {
          "internalType": "address",
          "name": "",
          "type": "address"
        }
      ],
      "name": "collegeAdministrator",
      "outputs": [
        {
          "internalType": "address",
          "name": "Id",
          "type": "address"
        },
        {
          "internalType": "string",
          "name": "collegeadminname",
          "type": "string"
        },
        {
          "internalType": "string",
          "name": "clgadminaddress",
          "type": "string"
        },
        {
          "internalType": "string",
          "name": "email",
          "type": "string"
        }
      ],
      "payable": false,
      "stateMutability": "view",
      "type": "function"
    },
    {
      "constant": true,
      "inputs": [
        {
          "internalType": "uint256",
          "name": "",
          "type": "uint256"
        }
      ],
      "name": "collegeRequests",
      "outputs": [
        {
          "internalType": "uint256",
          "name": "index",
          "type": "uint256"
        },
        {
          "internalType": "address",
          "name": "student",
          "type": "address"
        },
        {
          "internalType": "uint256",
          "name": "datetime",
          "type": "uint256"
        },
        {
          "internalType": "enum EDUContract.RequestStat",
          "name": "stat",
          "type": "uint8"
        },
        {
          "internalType": "string",
          "name": "remark",
          "type": "string"
        },
        {
          "internalType": "address",
          "name": "college",
          "type": "address"
        },
        {
          "internalType": "string",
          "name": "docpath",
          "type": "string"
        }
      ],
      "payable": false,
      "stateMutability": "view",
      "type": "function"
    },
    {
      "constant": true,
      "inputs": [
        {
          "internalType": "address",
          "name": "",
          "type": "address"
        }
      ],
      "name": "colleges",
      "outputs": [
        {
          "internalType": "address",
          "name": "Id",
          "type": "address"
        },
        {
          "internalType": "string",
          "name": "collegename",
          "type": "string"
        },
        {
          "internalType": "string",
          "name": "clgaddress",
          "type": "string"
        },
        {
          "internalType": "string",
          "name": "email",
          "type": "string"
        }
      ],
      "payable": false,
      "stateMutability": "view",
      "type": "function"
    },
    {
      "constant": true,
      "inputs": [
        {
          "internalType": "uint256",
          "name": "",
          "type": "uint256"
        }
      ],
      "name": "documents",
      "outputs": [
        {
          "internalType": "uint256",
          "name": "index",
          "type": "uint256"
        },
        {
          "internalType": "address",
          "name": "institute",
          "type": "address"
        },
        {
          "internalType": "address",
          "name": "student",
          "type": "address"
        },
        {
          "internalType": "enum EDUContract.DocSender",
          "name": "sender",
          "type": "uint8"
        },
        {
          "internalType": "string",
          "name": "docname",
          "type": "string"
        },
        {
          "internalType": "string",
          "name": "docpath",
          "type": "string"
        },
        {
          "internalType": "string",
          "name": "docdesc",
          "type": "string"
        },
        {
          "internalType": "bool",
          "name": "isActive",
          "type": "bool"
        }
      ],
      "payable": false,
      "stateMutability": "view",
      "type": "function"
    },
    {
      "constant": true,
      "inputs": [
        {
          "internalType": "address",
          "name": "",
          "type": "address"
        }
      ],
      "name": "isCollege",
      "outputs": [
        {
          "internalType": "bool",
          "name": "",
          "type": "bool"
        }
      ],
      "payable": false,
      "stateMutability": "view",
      "type": "function"
    },
    {
      "constant": true,
      "inputs": [
        {
          "internalType": "address",
          "name": "",
          "type": "address"
        }
      ],
      "name": "isCollegeAdministartor",
      "outputs": [
        {
          "internalType": "bool",
          "name": "",
          "type": "bool"
        }
      ],
      "payable": false,
      "stateMutability": "view",
      "type": "function"
    },
    {
      "constant": true,
      "inputs": [
        {
          "internalType": "address",
          "name": "",
          "type": "address"
        }
      ],
      "name": "isOrganization",
      "outputs": [
        {
          "internalType": "bool",
          "name": "",
          "type": "bool"
        }
      ],
      "payable": false,
      "stateMutability": "view",
      "type": "function"
    },
    {
      "constant": true,
      "inputs": [
        {
          "internalType": "address",
          "name": "",
          "type": "address"
        }
      ],
      "name": "isOrganizationAdministrator",
      "outputs": [
        {
          "internalType": "bool",
          "name": "",
          "type": "bool"
        }
      ],
      "payable": false,
      "stateMutability": "view",
      "type": "function"
    },
    {
      "constant": true,
      "inputs": [
        {
          "internalType": "address",
          "name": "",
          "type": "address"
        }
      ],
      "name": "isStudent",
      "outputs": [
        {
          "internalType": "bool",
          "name": "",
          "type": "bool"
        }
      ],
      "payable": false,
      "stateMutability": "view",
      "type": "function"
    },
    {
      "constant": true,
      "inputs": [
        {
          "internalType": "address",
          "name": "",
          "type": "address"
        }
      ],
      "name": "organizationAdministartor",
      "outputs": [
        {
          "internalType": "address",
          "name": "Id",
          "type": "address"
        },
        {
          "internalType": "string",
          "name": "orgadminname",
          "type": "string"
        },
        {
          "internalType": "string",
          "name": "orgadminaddress",
          "type": "string"
        },
        {
          "internalType": "string",
          "name": "email",
          "type": "string"
        }
      ],
      "payable": false,
      "stateMutability": "view",
      "type": "function"
    },
    {
      "constant": true,
      "inputs": [
        {
          "internalType": "uint256",
          "name": "",
          "type": "uint256"
        }
      ],
      "name": "organizationRequests",
      "outputs": [
        {
          "internalType": "uint256",
          "name": "index",
          "type": "uint256"
        },
        {
          "internalType": "address",
          "name": "student",
          "type": "address"
        },
        {
          "internalType": "uint256",
          "name": "datetime",
          "type": "uint256"
        },
        {
          "internalType": "enum EDUContract.RequestStat",
          "name": "stat",
          "type": "uint8"
        },
        {
          "internalType": "string",
          "name": "remark",
          "type": "string"
        },
        {
          "internalType": "address",
          "name": "organization",
          "type": "address"
        },
        {
          "internalType": "string",
          "name": "docpath",
          "type": "string"
        }
      ],
      "payable": false,
      "stateMutability": "view",
      "type": "function"
    },
    {
      "constant": true,
      "inputs": [
        {
          "internalType": "address",
          "name": "",
          "type": "address"
        }
      ],
      "name": "organizations",
      "outputs": [
        {
          "internalType": "address",
          "name": "Id",
          "type": "address"
        },
        {
          "internalType": "string",
          "name": "orgname",
          "type": "string"
        },
        {
          "internalType": "string",
          "name": "orgaddress",
          "type": "string"
        },
        {
          "internalType": "string",
          "name": "email",
          "type": "string"
        }
      ],
      "payable": false,
      "stateMutability": "view",
      "type": "function"
    },
    {
      "constant": true,
      "inputs": [],
      "name": "owner",
      "outputs": [
        {
          "internalType": "address",
          "name": "",
          "type": "address"
        }
      ],
      "payable": false,
      "stateMutability": "view",
      "type": "function"
    },
    {
      "constant": true,
      "inputs": [
        {
          "internalType": "address",
          "name": "",
          "type": "address"
        }
      ],
      "name": "students",
      "outputs": [
        {
          "internalType": "address",
          "name": "student",
          "type": "address"
        },
        {
          "internalType": "string",
          "name": "fullname",
          "type": "string"
        },
        {
          "internalType": "string",
          "name": "dob",
          "type": "string"
        },
        {
          "internalType": "enum EDUContract.SexType",
          "name": "sex",
          "type": "uint8"
        },
        {
          "internalType": "enum EDUContract.MaritalType",
          "name": "marital",
          "type": "uint8"
        },
        {
          "internalType": "string",
          "name": "email",
          "type": "string"
        }
      ],
      "payable": false,
      "stateMutability": "view",
      "type": "function"
    },
    {
      "constant": true,
      "inputs": [],
      "name": "version",
      "outputs": [
        {
          "internalType": "string",
          "name": "",
          "type": "string"
        }
      ],
      "payable": false,
      "stateMutability": "view",
      "type": "function"
    },
    {
      "constant": false,
      "inputs": [
        {
          "internalType": "address",
          "name": "_collegeadmin",
          "type": "address"
        },
        {
          "internalType": "string",
          "name": "_collegeadminname",
          "type": "string"
        },
        {
          "internalType": "string",
          "name": "_clgadminaddress",
          "type": "string"
        },
        {
          "internalType": "string",
          "name": "_email",
          "type": "string"
        }
      ],
      "name": "SetCollegeAdministrator",
      "outputs": [],
      "payable": false,
      "stateMutability": "nonpayable",
      "type": "function"
    },
    {
      "constant": false,
      "inputs": [
        {
          "internalType": "address",
          "name": "_orgadmin",
          "type": "address"
        },
        {
          "internalType": "string",
          "name": "_orgadminname",
          "type": "string"
        },
        {
          "internalType": "string",
          "name": "_orgadminaddress",
          "type": "string"
        },
        {
          "internalType": "string",
          "name": "_email",
          "type": "string"
        }
      ],
      "name": "SetOrganizationAdministrator",
      "outputs": [],
      "payable": false,
      "stateMutability": "nonpayable",
      "type": "function"
    },
    {
      "constant": false,
      "inputs": [
        {
          "internalType": "address",
          "name": "_college",
          "type": "address"
        },
        {
          "internalType": "string",
          "name": "_collegename",
          "type": "string"
        },
        {
          "internalType": "string",
          "name": "_clgaddress",
          "type": "string"
        },
        {
          "internalType": "string",
          "name": "_email",
          "type": "string"
        }
      ],
      "name": "SetCollege",
      "outputs": [],
      "payable": false,
      "stateMutability": "nonpayable",
      "type": "function"
    },
    {
      "constant": false,
      "inputs": [
        {
          "internalType": "address",
          "name": "_organization",
          "type": "address"
        },
        {
          "internalType": "string",
          "name": "_orgname",
          "type": "string"
        },
        {
          "internalType": "string",
          "name": "_orgaddress",
          "type": "string"
        },
        {
          "internalType": "string",
          "name": "_email",
          "type": "string"
        }
      ],
      "name": "SetOrganization",
      "outputs": [],
      "payable": false,
      "stateMutability": "nonpayable",
      "type": "function"
    },
    {
      "constant": false,
      "inputs": [],
      "name": "kill",
      "outputs": [],
      "payable": false,
      "stateMutability": "nonpayable",
      "type": "function"
    },
    {
      "constant": false,
      "inputs": [
        {
          "internalType": "string",
          "name": "_fullname",
          "type": "string"
        },
        {
          "internalType": "string",
          "name": "_dob",
          "type": "string"
        },
        {
          "internalType": "enum EDUContract.SexType",
          "name": "_sex",
          "type": "uint8"
        },
        {
          "internalType": "enum EDUContract.MaritalType",
          "name": "_marital",
          "type": "uint8"
        },
        {
          "internalType": "string",
          "name": "_email",
          "type": "string"
        },
        {
          "internalType": "uint256[]",
          "name": "_document",
          "type": "uint256[]"
        }
      ],
      "name": "SignupStudent",
      "outputs": [],
      "payable": false,
      "stateMutability": "nonpayable",
      "type": "function"
    },
    {
      "constant": false,
      "inputs": [
        {
          "internalType": "string",
          "name": "_fullname",
          "type": "string"
        },
        {
          "internalType": "string",
          "name": "_dob",
          "type": "string"
        },
        {
          "internalType": "enum EDUContract.SexType",
          "name": "_sex",
          "type": "uint8"
        },
        {
          "internalType": "enum EDUContract.MaritalType",
          "name": "_marital",
          "type": "uint8"
        },
        {
          "internalType": "string",
          "name": "_email",
          "type": "string"
        }
      ],
      "name": "StudentUpdate",
      "outputs": [],
      "payable": false,
      "stateMutability": "nonpayable",
      "type": "function"
    },
    {
      "constant": false,
      "inputs": [
        {
          "internalType": "enum EDUContract.RequestStat",
          "name": "_stat",
          "type": "uint8"
        },
        {
          "internalType": "string",
          "name": "_remark",
          "type": "string"
        },
        {
          "internalType": "address",
          "name": "_college",
          "type": "address"
        },
        {
          "internalType": "string",
          "name": "_docpath",
          "type": "string"
        }
      ],
      "name": "CollegeRequestAdd",
      "outputs": [],
      "payable": false,
      "stateMutability": "nonpayable",
      "type": "function"
    },
    {
      "constant": false,
      "inputs": [
        {
          "internalType": "uint256",
          "name": "_CollegeRequestIndex",
          "type": "uint256"
        },
        {
          "internalType": "enum EDUContract.RequestStat",
          "name": "_stat",
          "type": "uint8"
        },
        {
          "internalType": "string",
          "name": "_remark",
          "type": "string"
        },
        {
          "internalType": "address",
          "name": "_college",
          "type": "address"
        }
      ],
      "name": "CollegeRequestUpdate",
      "outputs": [],
      "payable": false,
      "stateMutability": "nonpayable",
      "type": "function"
    },
    {
      "constant": true,
      "inputs": [],
      "name": "CollegeRequestGet",
      "outputs": [
        {
          "internalType": "uint256[]",
          "name": "",
          "type": "uint256[]"
        }
      ],
      "payable": false,
      "stateMutability": "view",
      "type": "function"
    },
    {
      "constant": false,
      "inputs": [
        {
          "internalType": "enum EDUContract.RequestStat",
          "name": "_stat",
          "type": "uint8"
        },
        {
          "internalType": "string",
          "name": "_remark",
          "type": "string"
        },
        {
          "internalType": "address",
          "name": "_organization",
          "type": "address"
        },
        {
          "internalType": "string",
          "name": "_docpath",
          "type": "string"
        }
      ],
      "name": "OrganizationRequestAdd",
      "outputs": [],
      "payable": false,
      "stateMutability": "nonpayable",
      "type": "function"
    },
    {
      "constant": false,
      "inputs": [
        {
          "internalType": "uint256",
          "name": "_OrganizationRequestIndex",
          "type": "uint256"
        },
        {
          "internalType": "enum EDUContract.RequestStat",
          "name": "_stat",
          "type": "uint8"
        },
        {
          "internalType": "string",
          "name": "_remark",
          "type": "string"
        },
        {
          "internalType": "address",
          "name": "_organization",
          "type": "address"
        }
      ],
      "name": "OrganizationRequestUpdate",
      "outputs": [],
      "payable": false,
      "stateMutability": "nonpayable",
      "type": "function"
    },
    {
      "constant": true,
      "inputs": [],
      "name": "OrganizationRequestGet",
      "outputs": [
        {
          "internalType": "uint256[]",
          "name": "",
          "type": "uint256[]"
        }
      ],
      "payable": false,
      "stateMutability": "view",
      "type": "function"
    },
    {
      "constant": false,
      "inputs": [
        {
          "internalType": "address",
          "name": "_student",
          "type": "address"
        },
        {
          "internalType": "enum EDUContract.DocSender",
          "name": "_sender",
          "type": "uint8"
        },
        {
          "internalType": "string",
          "name": "_docname",
          "type": "string"
        },
        {
          "internalType": "string",
          "name": "_docpath",
          "type": "string"
        },
        {
          "internalType": "string",
          "name": "_docdesc",
          "type": "string"
        }
      ],
      "name": "DocumentAdd",
      "outputs": [],
      "payable": false,
      "stateMutability": "nonpayable",
      "type": "function"
    },
    {
      "constant": true,
      "inputs": [
        {
          "internalType": "address",
          "name": "_addr",
          "type": "address"
        }
      ],
      "name": "DocumentGet",
      "outputs": [
        {
          "internalType": "uint256[]",
          "name": "",
          "type": "uint256[]"
        }
      ],
      "payable": false,
      "stateMutability": "view",
      "type": "function"
    }
  ],
  "bytecode": "0x60806040526040518060400160405280600581526020017f302e302e310000000000000000000000000000000000000000000000000000008152506012908051906020019062000051929190620001af565b503480156200005f57600080fd5b5033601160006101000a81548173ffffffffffffffffffffffffffffffffffffffff021916908373ffffffffffffffffffffffffffffffffffffffff1602179055506001600760003373ffffffffffffffffffffffffffffffffffffffff1673ffffffffffffffffffffffffffffffffffffffff16815260200190815260200160002060006101000a81548160ff0219169083151502179055506001600c60003373ffffffffffffffffffffffffffffffffffffffff1673ffffffffffffffffffffffffffffffffffffffff16815260200190815260200160002060006101000a81548160ff0219169083151502179055506001600b60003373ffffffffffffffffffffffffffffffffffffffff1673ffffffffffffffffffffffffffffffffffffffff16815260200190815260200160002060006101000a81548160ff0219169083151502179055506200025e565b828054600181600116156101000203166002900490600052602060002090601f016020900481019282601f10620001f257805160ff191683800117855562000223565b8280016001018555821562000223579182015b828111156200022257825182559160200191906001019062000205565b5b50905062000232919062000236565b5090565b6200025b91905b80821115620002575760008160009055506001016200023d565b5090565b90565b615869806200026e6000396000f3fe608060405234801561001057600080fd5b50600436106102065760003560e01c80638c3e983f1161011a578063c2ed2b05116100ad578063ea5019491161007c578063ea501949146120f5578063f3a67e1f146122bd578063f4fe9fad146124c6578063fa5584fb14612522578063fddb0e2a1461272b57610206565b8063c2ed2b0514611b98578063d91f986014611da4578063e091870c14611e00578063e33057ed1461200357610206565b806399aeea6e116100e957806399aeea6e14611726578063a2c97c5214611782578063a6c807a91461194a578063b1ce8eab14611b3c57610206565b80638c3e983f146111f95780638da5cb5b146113785780638df4caf7146113c257806394674a201461158a57610206565b8063476600041161019d5780635c3607591161016c5780635c36075914610c865780635e60d42f14610ce557806362766b0314610efb57806380e23e291461110457806382f7d3921461119d57610206565b8063476600041461074557806354fd4d50146109dc5780635a1f740614610a5f5780635b025ef414610c2757610206565b806336283c4a116101d957806336283c4a146102c157806340feb613146103b3578063417efbab146105bc57806341c0e1b51461073b57610206565b80630e67487f1461020b578063167b11191461022957806319be6393146102475780631f772cf314610265575b600080fd5b6102136128c7565b6040518082815260200191505060405180910390f35b6102316128cd565b6040518082815260200191505060405180910390f35b61024f6128d3565b6040518082815260200191505060405180910390f35b6102a76004803603602081101561027b57600080fd5b81019080803573ffffffffffffffffffffffffffffffffffffffff1690602001909291905050506128d9565b604051808215151515815260200191505060405180910390f35b6103b1600480360360808110156102d757600080fd5b8101908080359060200190929190803560ff1690602001909291908035906020019064010000000081111561030b57600080fd5b82018360208201111561031d57600080fd5b8035906020019184600183028401116401000000008311171561033f57600080fd5b91908080601f016020809104026020016040519081016040528093929190818152602001838380828437600081840152601f19601f820116905080830192505050505050509192919290803573ffffffffffffffffffffffffffffffffffffffff1690602001909291905050506128f9565b005b6105ba600480360360808110156103c957600080fd5b81019080803573ffffffffffffffffffffffffffffffffffffffff1690602001909291908035906020019064010000000081111561040657600080fd5b82018360208201111561041857600080fd5b8035906020019184600183028401116401000000008311171561043a57600080fd5b91908080601f016020809104026020016040519081016040528093929190818152602001838380828437600081840152601f19601f8201169050808301925050505050505091929192908035906020019064010000000081111561049d57600080fd5b8201836020820111156104af57600080fd5b803590602001918460018302840111640100000000831117156104d157600080fd5b91908080601f016020809104026020016040519081016040528093929190818152602001838380828437600081840152601f19601f8201169050808301925050505050505091929192908035906020019064010000000081111561053457600080fd5b82018360208201111561054657600080fd5b8035906020019184600183028401116401000000008311171561056857600080fd5b91908080601f016020809104026020016040519081016040528093929190818152602001838380828437600081840152601f19601f8201169050808301925050505050505091929192905050506129e1565b005b610739600480360360808110156105d257600080fd5b81019080803560ff169060200190929190803590602001906401000000008111156105fc57600080fd5b82018360208201111561060e57600080fd5b8035906020019184600183028401116401000000008311171561063057600080fd5b91908080601f016020809104026020016040519081016040528093929190818152602001838380828437600081840152601f19601f820116905080830192505050505050509192919290803573ffffffffffffffffffffffffffffffffffffffff169060200190929190803590602001906401000000008111156106b357600080fd5b8201836020820111156106c557600080fd5b803590602001918460018302840111640100000000831117156106e757600080fd5b91908080601f016020809104026020016040519081016040528093929190818152602001838380828437600081840152601f19601f820116905080830192505050505050509192919290505050612c5f565b005b610743612f5c565b005b6109da600480360360c081101561075b57600080fd5b810190808035906020019064010000000081111561077857600080fd5b82018360208201111561078a57600080fd5b803590602001918460018302840111640100000000831117156107ac57600080fd5b91908080601f016020809104026020016040519081016040528093929190818152602001838380828437600081840152601f19601f8201169050808301925050505050505091929192908035906020019064010000000081111561080f57600080fd5b82018360208201111561082157600080fd5b8035906020019184600183028401116401000000008311171561084357600080fd5b91908080601f016020809104026020016040519081016040528093929190818152602001838380828437600081840152601f19601f820116905080830192505050505050509192919290803560ff169060200190929190803560ff169060200190929190803590602001906401000000008111156108c057600080fd5b8201836020820111156108d257600080fd5b803590602001918460018302840111640100000000831117156108f457600080fd5b91908080601f016020809104026020016040519081016040528093929190818152602001838380828437600081840152601f19601f8201169050808301925050505050505091929192908035906020019064010000000081111561095757600080fd5b82018360208201111561096957600080fd5b8035906020019184602083028401116401000000008311171561098b57600080fd5b919080806020026020016040519081016040528093929190818152602001838360200280828437600081840152601f19601f820116905080830192505050505050509192919290505050612fcf565b005b6109e461321e565b6040518080602001828103825283818151815260200191508051906020019080838360005b83811015610a24578082015181840152602081019050610a09565b50505050905090810190601f168015610a515780820380516001836020036101000a031916815260200191505b509250505060405180910390f35b610aa160048036036020811015610a7557600080fd5b81019080803573ffffffffffffffffffffffffffffffffffffffff1690602001909291905050506132bc565b604051808573ffffffffffffffffffffffffffffffffffffffff1673ffffffffffffffffffffffffffffffffffffffff168152602001806020018060200180602001848103845287818151815260200191508051906020019080838360005b83811015610b1b578082015181840152602081019050610b00565b50505050905090810190601f168015610b485780820380516001836020036101000a031916815260200191505b50848103835286818151815260200191508051906020019080838360005b83811015610b81578082015181840152602081019050610b66565b50505050905090810190601f168015610bae5780820380516001836020036101000a031916815260200191505b50848103825285818151815260200191508051906020019080838360005b83811015610be7578082015181840152602081019050610bcc565b50505050905090810190601f168015610c145780820380516001836020036101000a031916815260200191505b5097505050505050505060405180910390f35b610c2f6134d4565b6040518080602001828103825283818151815260200191508051906020019060200280838360005b83811015610c72578082015181840152602081019050610c57565b505050509050019250505060405180910390f35b610c8e61358a565b6040518080602001828103825283818151815260200191508051906020019060200280838360005b83811015610cd1578082015181840152602081019050610cb6565b505050509050019250505060405180910390f35b610ef9600480360360a0811015610cfb57600080fd5b81019080803573ffffffffffffffffffffffffffffffffffffffff169060200190929190803560ff16906020019092919080359060200190640100000000811115610d4557600080fd5b820183602082011115610d5757600080fd5b80359060200191846001830284011164010000000083111715610d7957600080fd5b91908080601f016020809104026020016040519081016040528093929190818152602001838380828437600081840152601f19601f82011690508083019250505050505050919291929080359060200190640100000000811115610ddc57600080fd5b820183602082011115610dee57600080fd5b80359060200191846001830284011164010000000083111715610e1057600080fd5b91908080601f016020809104026020016040519081016040528093929190818152602001838380828437600081840152601f19601f82011690508083019250505050505050919291929080359060200190640100000000811115610e7357600080fd5b820183602082011115610e8557600080fd5b80359060200191846001830284011164010000000083111715610ea757600080fd5b91908080601f016020809104026020016040519081016040528093929190818152602001838380828437600081840152601f19601f820116905080830192505050505050509192919290505050613640565b005b61110260048036036080811015610f1157600080fd5b81019080803573ffffffffffffffffffffffffffffffffffffffff16906020019092919080359060200190640100000000811115610f4e57600080fd5b820183602082011115610f6057600080fd5b80359060200191846001830284011164010000000083111715610f8257600080fd5b91908080601f016020809104026020016040519081016040528093929190818152602001838380828437600081840152601f19601f82011690508083019250505050505050919291929080359060200190640100000000811115610fe557600080fd5b820183602082011115610ff757600080fd5b8035906020019184600183028401116401000000008311171561101957600080fd5b91908080601f016020809104026020016040519081016040528093929190818152602001838380828437600081840152601f19601f8201169050808301925050505050505091929192908035906020019064010000000081111561107c57600080fd5b82018360208201111561108e57600080fd5b803590602001918460018302840111640100000000831117156110b057600080fd5b91908080601f016020809104026020016040519081016040528093929190818152602001838380828437600081840152601f19601f8201169050808301925050505050505091929192905050506139e4565b005b6111466004803603602081101561111a57600080fd5b81019080803573ffffffffffffffffffffffffffffffffffffffff169060200190929190505050613c08565b6040518080602001828103825283818151815260200191508051906020019060200280838360005b8381101561118957808201518184015260208101905061116e565b505050509050019250505060405180910390f35b6111df600480360360208110156111b357600080fd5b81019080803573ffffffffffffffffffffffffffffffffffffffff169060200190929190505050613ca1565b604051808215151515815260200191505060405180910390f35b6113766004803603608081101561120f57600080fd5b81019080803560ff1690602001909291908035906020019064010000000081111561123957600080fd5b82018360208201111561124b57600080fd5b8035906020019184600183028401116401000000008311171561126d57600080fd5b91908080601f016020809104026020016040519081016040528093929190818152602001838380828437600081840152601f19601f820116905080830192505050505050509192919290803573ffffffffffffffffffffffffffffffffffffffff169060200190929190803590602001906401000000008111156112f057600080fd5b82018360208201111561130257600080fd5b8035906020019184600183028401116401000000008311171561132457600080fd5b91908080601f016020809104026020016040519081016040528093929190818152602001838380828437600081840152601f19601f820116905080830192505050505050509192919290505050613cc1565b005b611380613fbe565b604051808273ffffffffffffffffffffffffffffffffffffffff1673ffffffffffffffffffffffffffffffffffffffff16815260200191505060405180910390f35b611404600480360360208110156113d857600080fd5b81019080803573ffffffffffffffffffffffffffffffffffffffff169060200190929190505050613fe4565b604051808573ffffffffffffffffffffffffffffffffffffffff1673ffffffffffffffffffffffffffffffffffffffff168152602001806020018060200180602001848103845287818151815260200191508051906020019080838360005b8381101561147e578082015181840152602081019050611463565b50505050905090810190601f1680156114ab5780820380516001836020036101000a031916815260200191505b50848103835286818151815260200191508051906020019080838360005b838110156114e45780820151818401526020810190506114c9565b50505050905090810190601f1680156115115780820380516001836020036101000a031916815260200191505b50848103825285818151815260200191508051906020019080838360005b8381101561154a57808201518184015260208101905061152f565b50505050905090810190601f1680156115775780820380516001836020036101000a031916815260200191505b5097505050505050505060405180910390f35b6115b6600480360360208110156115a057600080fd5b81019080803590602001909291905050506141fc565b604051808881526020018773ffffffffffffffffffffffffffffffffffffffff1673ffffffffffffffffffffffffffffffffffffffff16815260200186815260200185600381111561160457fe5b60ff168152602001806020018473ffffffffffffffffffffffffffffffffffffffff1673ffffffffffffffffffffffffffffffffffffffff16815260200180602001838103835286818151815260200191508051906020019080838360005b8381101561167e578082015181840152602081019050611663565b50505050905090810190601f1680156116ab5780820380516001836020036101000a031916815260200191505b50838103825284818151815260200191508051906020019080838360005b838110156116e45780820151818401526020810190506116c9565b50505050905090810190601f1680156117115780820380516001836020036101000a031916815260200191505b50995050505050505050505060405180910390f35b6117686004803603602081101561173c57600080fd5b81019080803573ffffffffffffffffffffffffffffffffffffffff1690602001909291905050506143bb565b604051808215151515815260200191505060405180910390f35b6117c46004803603602081101561179857600080fd5b81019080803573ffffffffffffffffffffffffffffffffffffffff1690602001909291905050506143db565b604051808573ffffffffffffffffffffffffffffffffffffffff1673ffffffffffffffffffffffffffffffffffffffff168152602001806020018060200180602001848103845287818151815260200191508051906020019080838360005b8381101561183e578082015181840152602081019050611823565b50505050905090810190601f16801561186b5780820380516001836020036101000a031916815260200191505b50848103835286818151815260200191508051906020019080838360005b838110156118a4578082015181840152602081019050611889565b50505050905090810190601f1680156118d15780820380516001836020036101000a031916815260200191505b50848103825285818151815260200191508051906020019080838360005b8381101561190a5780820151818401526020810190506118ef565b50505050905090810190601f1680156119375780820380516001836020036101000a031916815260200191505b5097505050505050505060405180910390f35b61198c6004803603602081101561196057600080fd5b81019080803573ffffffffffffffffffffffffffffffffffffffff1690602001909291905050506145f3565b604051808773ffffffffffffffffffffffffffffffffffffffff1673ffffffffffffffffffffffffffffffffffffffff16815260200180602001806020018660028111156119d657fe5b60ff1681526020018560058111156119ea57fe5b60ff16815260200180602001848103845289818151815260200191508051906020019080838360005b83811015611a2e578082015181840152602081019050611a13565b50505050905090810190601f168015611a5b5780820380516001836020036101000a031916815260200191505b50848103835288818151815260200191508051906020019080838360005b83811015611a94578082015181840152602081019050611a79565b50505050905090810190601f168015611ac15780820380516001836020036101000a031916815260200191505b50848103825285818151815260200191508051906020019080838360005b83811015611afa578082015181840152602081019050611adf565b50505050905090810190601f168015611b275780820380516001836020036101000a031916815260200191505b50995050505050505050505060405180910390f35b611b7e60048036036020811015611b5257600080fd5b81019080803573ffffffffffffffffffffffffffffffffffffffff169060200190929190505050614831565b604051808215151515815260200191505060405180910390f35b611bc460048036036020811015611bae57600080fd5b8101908080359060200190929190505050614851565b604051808981526020018873ffffffffffffffffffffffffffffffffffffffff1673ffffffffffffffffffffffffffffffffffffffff1681526020018773ffffffffffffffffffffffffffffffffffffffff1673ffffffffffffffffffffffffffffffffffffffff168152602001866001811115611c3e57fe5b60ff16815260200180602001806020018060200185151515158152602001848103845288818151815260200191508051906020019080838360005b83811015611c94578082015181840152602081019050611c79565b50505050905090810190601f168015611cc15780820380516001836020036101000a031916815260200191505b50848103835287818151815260200191508051906020019080838360005b83811015611cfa578082015181840152602081019050611cdf565b50505050905090810190601f168015611d275780820380516001836020036101000a031916815260200191505b50848103825286818151815260200191508051906020019080838360005b83811015611d60578082015181840152602081019050611d45565b50505050905090810190601f168015611d8d5780820380516001836020036101000a031916815260200191505b509b50505050505050505050505060405180910390f35b611de660048036036020811015611dba57600080fd5b81019080803573ffffffffffffffffffffffffffffffffffffffff169060200190929190505050614abb565b604051808215151515815260200191505060405180910390f35b612001600480360360a0811015611e1657600080fd5b8101908080359060200190640100000000811115611e3357600080fd5b820183602082011115611e4557600080fd5b80359060200191846001830284011164010000000083111715611e6757600080fd5b91908080601f016020809104026020016040519081016040528093929190818152602001838380828437600081840152601f19601f82011690508083019250505050505050919291929080359060200190640100000000811115611eca57600080fd5b820183602082011115611edc57600080fd5b80359060200191846001830284011164010000000083111715611efe57600080fd5b91908080601f016020809104026020016040519081016040528093929190818152602001838380828437600081840152601f19601f820116905080830192505050505050509192919290803560ff169060200190929190803560ff16906020019092919080359060200190640100000000811115611f7b57600080fd5b820183602082011115611f8d57600080fd5b80359060200191846001830284011164010000000083111715611faf57600080fd5b91908080601f016020809104026020016040519081016040528093929190818152602001838380828437600081840152601f19601f820116905080830192505050505050509192919290505050614adb565b005b6120f36004803603608081101561201957600080fd5b8101908080359060200190929190803560ff1690602001909291908035906020019064010000000081111561204d57600080fd5b82018360208201111561205f57600080fd5b8035906020019184600183028401116401000000008311171561208157600080fd5b91908080601f016020809104026020016040519081016040528093929190818152602001838380828437600081840152601f19601f820116905080830192505050505050509192919290803573ffffffffffffffffffffffffffffffffffffffff169060200190929190505050614d41565b005b6121376004803603602081101561210b57600080fd5b81019080803573ffffffffffffffffffffffffffffffffffffffff169060200190929190505050614e29565b604051808573ffffffffffffffffffffffffffffffffffffffff1673ffffffffffffffffffffffffffffffffffffffff168152602001806020018060200180602001848103845287818151815260200191508051906020019080838360005b838110156121b1578082015181840152602081019050612196565b50505050905090810190601f1680156121de5780820380516001836020036101000a031916815260200191505b50848103835286818151815260200191508051906020019080838360005b838110156122175780820151818401526020810190506121fc565b50505050905090810190601f1680156122445780820380516001836020036101000a031916815260200191505b50848103825285818151815260200191508051906020019080838360005b8381101561227d578082015181840152602081019050612262565b50505050905090810190601f1680156122aa5780820380516001836020036101000a031916815260200191505b5097505050505050505060405180910390f35b6124c4600480360360808110156122d357600080fd5b81019080803573ffffffffffffffffffffffffffffffffffffffff1690602001909291908035906020019064010000000081111561231057600080fd5b82018360208201111561232257600080fd5b8035906020019184600183028401116401000000008311171561234457600080fd5b91908080601f016020809104026020016040519081016040528093929190818152602001838380828437600081840152601f19601f820116905080830192505050505050509192919290803590602001906401000000008111156123a757600080fd5b8201836020820111156123b957600080fd5b803590602001918460018302840111640100000000831117156123db57600080fd5b91908080601f016020809104026020016040519081016040528093929190818152602001838380828437600081840152601f19601f8201169050808301925050505050505091929192908035906020019064010000000081111561243e57600080fd5b82018360208201111561245057600080fd5b8035906020019184600183028401116401000000008311171561247257600080fd5b91908080601f016020809104026020016040519081016040528093929190818152602001838380828437600081840152601f19601f820116905080830192505050505050509192919290505050615041565b005b612508600480360360208110156124dc57600080fd5b81019080803573ffffffffffffffffffffffffffffffffffffffff169060200190929190505050615265565b604051808215151515815260200191505060405180910390f35b6127296004803603608081101561253857600080fd5b81019080803573ffffffffffffffffffffffffffffffffffffffff1690602001909291908035906020019064010000000081111561257557600080fd5b82018360208201111561258757600080fd5b803590602001918460018302840111640100000000831117156125a957600080fd5b91908080601f016020809104026020016040519081016040528093929190818152602001838380828437600081840152601f19601f8201169050808301925050505050505091929192908035906020019064010000000081111561260c57600080fd5b82018360208201111561261e57600080fd5b8035906020019184600183028401116401000000008311171561264057600080fd5b91908080601f016020809104026020016040519081016040528093929190818152602001838380828437600081840152601f19601f820116905080830192505050505050509192919290803590602001906401000000008111156126a357600080fd5b8201836020820111156126b557600080fd5b803590602001918460018302840111640100000000831117156126d757600080fd5b91908080601f016020809104026020016040519081016040528093929190818152602001838380828437600081840152601f19601f820116905080830192505050505050509192919290505050615285565b005b6127576004803603602081101561274157600080fd5b8101908080359060200190929190505050615503565b604051808881526020018773ffffffffffffffffffffffffffffffffffffffff1673ffffffffffffffffffffffffffffffffffffffff1681526020018681526020018560038111156127a557fe5b60ff168152602001806020018473ffffffffffffffffffffffffffffffffffffffff1673ffffffffffffffffffffffffffffffffffffffff16815260200180602001838103835286818151815260200191508051906020019080838360005b8381101561281f578082015181840152602081019050612804565b50505050905090810190601f16801561284c5780820380516001836020036101000a031916815260200191505b50838103825284818151815260200191508051906020019080838360005b8381101561288557808201518184015260208101905061286a565b50505050905090810190601f1680156128b25780820380516001836020036101000a031916815260200191505b50995050505050505050505060405180910390f35b600f5481565b60105481565b600e5481565b600b6020528060005260406000206000915054906101000a900460ff1681565b6000841161290657600080fd5b600e5484111561291557600080fd5b826005600086815260200190815260200160002060030160006101000a81548160ff0219169083600381111561294757fe5b0217905550816005600086815260200190815260200160002060040190805190602001906129769291906156c2565b50837fc79344e6fbf66079c5856e3a758f227cfb36c6c09f5d6d40de5e3c8aeeb95c7533604051808273ffffffffffffffffffffffffffffffffffffffff1673ffffffffffffffffffffffffffffffffffffffff16815260200191505060405180910390a250505050565b601160009054906101000a900473ffffffffffffffffffffffffffffffffffffffff1673ffffffffffffffffffffffffffffffffffffffff163373ffffffffffffffffffffffffffffffffffffffff1614612a3b57600080fd5b600760008573ffffffffffffffffffffffffffffffffffffffff1673ffffffffffffffffffffffffffffffffffffffff16815260200190815260200160002060009054906101000a900460ff1615612a9257600080fd5b6000600760008673ffffffffffffffffffffffffffffffffffffffff1673ffffffffffffffffffffffffffffffffffffffff16815260200190815260200160002060006101000a81548160ff0219169083151502179055506001600b60008673ffffffffffffffffffffffffffffffffffffffff1673ffffffffffffffffffffffffffffffffffffffff16815260200190815260200160002060006101000a81548160ff02191690831515021790555060405180608001604052808573ffffffffffffffffffffffffffffffffffffffff16815260200184815260200183815260200182815250600360008673ffffffffffffffffffffffffffffffffffffffff1673ffffffffffffffffffffffffffffffffffffffff16815260200190815260200160002060008201518160000160006101000a81548173ffffffffffffffffffffffffffffffffffffffff021916908373ffffffffffffffffffffffffffffffffffffffff1602179055506020820151816001019080519060200190612c1b929190615742565b506040820151816002019080519060200190612c38929190615742565b506060820151816003019080519060200190612c55929190615742565b5090505050505050565b6000803373ffffffffffffffffffffffffffffffffffffffff1673ffffffffffffffffffffffffffffffffffffffff16815260200190815260200160002060000160009054906101000a900473ffffffffffffffffffffffffffffffffffffffff1673ffffffffffffffffffffffffffffffffffffffff163373ffffffffffffffffffffffffffffffffffffffff1614612cf857600080fd5b60011515600a60008473ffffffffffffffffffffffffffffffffffffffff1673ffffffffffffffffffffffffffffffffffffffff16815260200190815260200160002060009054906101000a900460ff16151514612d5557600080fd5b600f600081548092919060010191905055506040518060e00160405280600f5481526020013373ffffffffffffffffffffffffffffffffffffffff168152602001428152602001856003811115612da857fe5b81526020018481526020018373ffffffffffffffffffffffffffffffffffffffff1681526020018281525060066000600f5481526020019081526020016000206000820151816000015560208201518160010160006101000a81548173ffffffffffffffffffffffffffffffffffffffff021916908373ffffffffffffffffffffffffffffffffffffffff1602179055506040820151816002015560608201518160030160006101000a81548160ff02191690836003811115612e6757fe5b02179055506080820151816004019080519060200190612e88929190615742565b5060a08201518160050160006101000a81548173ffffffffffffffffffffffffffffffffffffffff021916908373ffffffffffffffffffffffffffffffffffffffff16021790555060c0820151816006019080519060200190612eec929190615742565b50905050600f547f4eb2a69ce05e38f13942672a421209556b47333b186c9695ad66752c4fb97b1833604051808273ffffffffffffffffffffffffffffffffffffffff1673ffffffffffffffffffffffffffffffffffffffff16815260200191505060405180910390a250505050565b601160009054906101000a900473ffffffffffffffffffffffffffffffffffffffff1673ffffffffffffffffffffffffffffffffffffffff163373ffffffffffffffffffffffffffffffffffffffff1614612fb657600080fd5b3373ffffffffffffffffffffffffffffffffffffffff16ff5b6000803373ffffffffffffffffffffffffffffffffffffffff1673ffffffffffffffffffffffffffffffffffffffff16815260200190815260200160002060000160009054906101000a900473ffffffffffffffffffffffffffffffffffffffff1673ffffffffffffffffffffffffffffffffffffffff163373ffffffffffffffffffffffffffffffffffffffff16141561306957600080fd5b6040518060e001604052803373ffffffffffffffffffffffffffffffffffffffff1681526020018781526020018681526020018560028111156130a857fe5b81526020018460058111156130b957fe5b8152602001838152602001828152506000803373ffffffffffffffffffffffffffffffffffffffff1673ffffffffffffffffffffffffffffffffffffffff16815260200190815260200160002060008201518160000160006101000a81548173ffffffffffffffffffffffffffffffffffffffff021916908373ffffffffffffffffffffffffffffffffffffffff1602179055506020820151816001019080519060200190613169929190615742565b506040820151816002019080519060200190613186929190615742565b5060608201518160030160006101000a81548160ff021916908360028111156131ab57fe5b021790555060808201518160030160016101000a81548160ff021916908360058111156131d457fe5b021790555060a08201518160040190805190602001906131f5929190615742565b5060c08201518160050190805190602001906132129291906157c2565b50905050505050505050565b60128054600181600116156101000203166002900480601f0160208091040260200160405190810160405280929190818152602001828054600181600116156101000203166002900480156132b45780601f10613289576101008083540402835291602001916132b4565b820191906000526020600020905b81548152906001019060200180831161329757829003601f168201915b505050505081565b60026020528060005260406000206000915090508060000160009054906101000a900473ffffffffffffffffffffffffffffffffffffffff1690806001018054600181600116156101000203166002900480601f01602080910402602001604051908101604052809291908181526020018280546001816001161561010002031660029004801561338e5780601f106133635761010080835404028352916020019161338e565b820191906000526020600020905b81548152906001019060200180831161337157829003601f168201915b505050505090806002018054600181600116156101000203166002900480601f01602080910402602001604051908101604052809291908181526020018280546001816001161561010002031660029004801561342c5780601f106134015761010080835404028352916020019161342c565b820191906000526020600020905b81548152906001019060200180831161340f57829003601f168201915b505050505090806003018054600181600116156101000203166002900480601f0160208091040260200160405190810160405280929190818152602001828054600181600116156101000203166002900480156134ca5780601f1061349f576101008083540402835291602001916134ca565b820191906000526020600020905b8154815290600101906020018083116134ad57829003601f168201915b5050505050905084565b606080600080600190505b600f548111613581573373ffffffffffffffffffffffffffffffffffffffff166006600083815260200190815260200160002060010160009054906101000a900473ffffffffffffffffffffffffffffffffffffffff1673ffffffffffffffffffffffffffffffffffffffff161415613574578083838151811061355f57fe5b60200260200101818152505081806001019250505b80806001019150506134df565b50819250505090565b606080600080600190505b600e548111613637573373ffffffffffffffffffffffffffffffffffffffff166005600083815260200190815260200160002060010160009054906101000a900473ffffffffffffffffffffffffffffffffffffffff1673ffffffffffffffffffffffffffffffffffffffff16141561362a578083838151811061361557fe5b60200260200101818152505081806001019250505b8080600101915050613595565b50819250505090565b60018081111561364c57fe5b84600181111561365857fe5b14156136fd57600160003373ffffffffffffffffffffffffffffffffffffffff1673ffffffffffffffffffffffffffffffffffffffff16815260200190815260200160002060000160009054906101000a900473ffffffffffffffffffffffffffffffffffffffff1673ffffffffffffffffffffffffffffffffffffffff163373ffffffffffffffffffffffffffffffffffffffff16146136f857600080fd5b613798565b600260003373ffffffffffffffffffffffffffffffffffffffff1673ffffffffffffffffffffffffffffffffffffffff16815260200190815260200160002060000160009054906101000a900473ffffffffffffffffffffffffffffffffffffffff1673ffffffffffffffffffffffffffffffffffffffff163373ffffffffffffffffffffffffffffffffffffffff161461379757600080fd5b5b60106000815480929190600101919050555060405180610100016040528060105481526020013373ffffffffffffffffffffffffffffffffffffffff1681526020018673ffffffffffffffffffffffffffffffffffffffff16815260200185600181111561380257fe5b815260200184815260200183815260200182815260200160011515815250600d600060105481526020019081526020016000206000820151816000015560208201518160010160006101000a81548173ffffffffffffffffffffffffffffffffffffffff021916908373ffffffffffffffffffffffffffffffffffffffff16021790555060408201518160020160006101000a81548173ffffffffffffffffffffffffffffffffffffffff021916908373ffffffffffffffffffffffffffffffffffffffff16021790555060608201518160020160146101000a81548160ff021916908360018111156138f157fe5b02179055506080820151816003019080519060200190613912929190615742565b5060a082015181600401908051906020019061392f929190615742565b5060c082015181600501908051906020019061394c929190615742565b5060e08201518160060160006101000a81548160ff0219169083151502179055509050506000808673ffffffffffffffffffffffffffffffffffffffff1673ffffffffffffffffffffffffffffffffffffffff16815260200190815260200160002060050160105490806001815401808255809150509060018203906000526020600020016000909192909190915055505050505050565b600b60008573ffffffffffffffffffffffffffffffffffffffff1673ffffffffffffffffffffffffffffffffffffffff16815260200190815260200160002060009054906101000a900460ff1615613a3b57600080fd5b6000600b60008673ffffffffffffffffffffffffffffffffffffffff1673ffffffffffffffffffffffffffffffffffffffff16815260200190815260200160002060006101000a81548160ff0219169083151502179055506001600860008673ffffffffffffffffffffffffffffffffffffffff1673ffffffffffffffffffffffffffffffffffffffff16815260200190815260200160002060006101000a81548160ff02191690831515021790555060405180608001604052808573ffffffffffffffffffffffffffffffffffffffff16815260200184815260200183815260200182815250600160008673ffffffffffffffffffffffffffffffffffffffff1673ffffffffffffffffffffffffffffffffffffffff16815260200190815260200160002060008201518160000160006101000a81548173ffffffffffffffffffffffffffffffffffffffff021916908373ffffffffffffffffffffffffffffffffffffffff1602179055506020820151816001019080519060200190613bc4929190615742565b506040820151816002019080519060200190613be1929190615742565b506060820151816003019080519060200190613bfe929190615742565b5090505050505050565b60606000808373ffffffffffffffffffffffffffffffffffffffff1673ffffffffffffffffffffffffffffffffffffffff168152602001908152602001600020600501805480602002602001604051908101604052809291908181526020018280548015613c9557602002820191906000526020600020905b815481526020019060010190808311613c81575b50505050509050919050565b60096020528060005260406000206000915054906101000a900460ff1681565b6000803373ffffffffffffffffffffffffffffffffffffffff1673ffffffffffffffffffffffffffffffffffffffff16815260200190815260200160002060000160009054906101000a900473ffffffffffffffffffffffffffffffffffffffff1673ffffffffffffffffffffffffffffffffffffffff163373ffffffffffffffffffffffffffffffffffffffff1614613d5a57600080fd5b60011515600860008473ffffffffffffffffffffffffffffffffffffffff1673ffffffffffffffffffffffffffffffffffffffff16815260200190815260200160002060009054906101000a900460ff16151514613db757600080fd5b600e600081548092919060010191905055506040518060e00160405280600e5481526020013373ffffffffffffffffffffffffffffffffffffffff168152602001428152602001856003811115613e0a57fe5b81526020018481526020018373ffffffffffffffffffffffffffffffffffffffff1681526020018281525060056000600e5481526020019081526020016000206000820151816000015560208201518160010160006101000a81548173ffffffffffffffffffffffffffffffffffffffff021916908373ffffffffffffffffffffffffffffffffffffffff1602179055506040820151816002015560608201518160030160006101000a81548160ff02191690836003811115613ec957fe5b02179055506080820151816004019080519060200190613eea929190615742565b5060a08201518160050160006101000a81548173ffffffffffffffffffffffffffffffffffffffff021916908373ffffffffffffffffffffffffffffffffffffffff16021790555060c0820151816006019080519060200190613f4e929190615742565b50905050600e547fbcda4dd827dd534d768ce30ec43965dac670e1b4462e0ad17fc0d9e8ce4d2e2933604051808273ffffffffffffffffffffffffffffffffffffffff1673ffffffffffffffffffffffffffffffffffffffff16815260200191505060405180910390a250505050565b601160009054906101000a900473ffffffffffffffffffffffffffffffffffffffff1681565b60046020528060005260406000206000915090508060000160009054906101000a900473ffffffffffffffffffffffffffffffffffffffff1690806001018054600181600116156101000203166002900480601f0160208091040260200160405190810160405280929190818152602001828054600181600116156101000203166002900480156140b65780601f1061408b576101008083540402835291602001916140b6565b820191906000526020600020905b81548152906001019060200180831161409957829003601f168201915b505050505090806002018054600181600116156101000203166002900480601f0160208091040260200160405190810160405280929190818152602001828054600181600116156101000203166002900480156141545780601f1061412957610100808354040283529160200191614154565b820191906000526020600020905b81548152906001019060200180831161413757829003601f168201915b505050505090806003018054600181600116156101000203166002900480601f0160208091040260200160405190810160405280929190818152602001828054600181600116156101000203166002900480156141f25780601f106141c7576101008083540402835291602001916141f2565b820191906000526020600020905b8154815290600101906020018083116141d557829003601f168201915b5050505050905084565b60066020528060005260406000206000915090508060000154908060010160009054906101000a900473ffffffffffffffffffffffffffffffffffffffff16908060020154908060030160009054906101000a900460ff1690806004018054600181600116156101000203166002900480601f0160208091040260200160405190810160405280929190818152602001828054600181600116156101000203166002900480156142ed5780601f106142c2576101008083540402835291602001916142ed565b820191906000526020600020905b8154815290600101906020018083116142d057829003601f168201915b5050505050908060050160009054906101000a900473ffffffffffffffffffffffffffffffffffffffff1690806006018054600181600116156101000203166002900480601f0160208091040260200160405190810160405280929190818152602001828054600181600116156101000203166002900480156143b15780601f10614386576101008083540402835291602001916143b1565b820191906000526020600020905b81548152906001019060200180831161439457829003601f168201915b5050505050905087565b600c6020528060005260406000206000915054906101000a900460ff1681565b60036020528060005260406000206000915090508060000160009054906101000a900473ffffffffffffffffffffffffffffffffffffffff1690806001018054600181600116156101000203166002900480601f0160208091040260200160405190810160405280929190818152602001828054600181600116156101000203166002900480156144ad5780601f10614482576101008083540402835291602001916144ad565b820191906000526020600020905b81548152906001019060200180831161449057829003601f168201915b505050505090806002018054600181600116156101000203166002900480601f01602080910402602001604051908101604052809291908181526020018280546001816001161561010002031660029004801561454b5780601f106145205761010080835404028352916020019161454b565b820191906000526020600020905b81548152906001019060200180831161452e57829003601f168201915b505050505090806003018054600181600116156101000203166002900480601f0160208091040260200160405190810160405280929190818152602001828054600181600116156101000203166002900480156145e95780601f106145be576101008083540402835291602001916145e9565b820191906000526020600020905b8154815290600101906020018083116145cc57829003601f168201915b5050505050905084565b60006020528060005260406000206000915090508060000160009054906101000a900473ffffffffffffffffffffffffffffffffffffffff1690806001018054600181600116156101000203166002900480601f0160208091040260200160405190810160405280929190818152602001828054600181600116156101000203166002900480156146c55780601f1061469a576101008083540402835291602001916146c5565b820191906000526020600020905b8154815290600101906020018083116146a857829003601f168201915b505050505090806002018054600181600116156101000203166002900480601f0160208091040260200160405190810160405280929190818152602001828054600181600116156101000203166002900480156147635780601f1061473857610100808354040283529160200191614763565b820191906000526020600020905b81548152906001019060200180831161474657829003601f168201915b5050505050908060030160009054906101000a900460ff16908060030160019054906101000a900460ff1690806004018054600181600116156101000203166002900480601f0160208091040260200160405190810160405280929190818152602001828054600181600116156101000203166002900480156148275780601f106147fc57610100808354040283529160200191614827565b820191906000526020600020905b81548152906001019060200180831161480a57829003601f168201915b5050505050905086565b600a6020528060005260406000206000915054906101000a900460ff1681565b600d6020528060005260406000206000915090508060000154908060010160009054906101000a900473ffffffffffffffffffffffffffffffffffffffff16908060020160009054906101000a900473ffffffffffffffffffffffffffffffffffffffff16908060020160149054906101000a900460ff1690806003018054600181600116156101000203166002900480601f0160208091040260200160405190810160405280929190818152602001828054600181600116156101000203166002900480156149625780601f1061493757610100808354040283529160200191614962565b820191906000526020600020905b81548152906001019060200180831161494557829003601f168201915b505050505090806004018054600181600116156101000203166002900480601f016020809104026020016040519081016040528092919081815260200182805460018160011615610100020316600290048015614a005780601f106149d557610100808354040283529160200191614a00565b820191906000526020600020905b8154815290600101906020018083116149e357829003601f168201915b505050505090806005018054600181600116156101000203166002900480601f016020809104026020016040519081016040528092919081815260200182805460018160011615610100020316600290048015614a9e5780601f10614a7357610100808354040283529160200191614a9e565b820191906000526020600020905b815481529060010190602001808311614a8157829003601f168201915b5050505050908060060160009054906101000a900460ff16905088565b60086020528060005260406000206000915054906101000a900460ff1681565b6000803373ffffffffffffffffffffffffffffffffffffffff1673ffffffffffffffffffffffffffffffffffffffff16815260200190815260200160002060000160009054906101000a900473ffffffffffffffffffffffffffffffffffffffff1673ffffffffffffffffffffffffffffffffffffffff163373ffffffffffffffffffffffffffffffffffffffff1614614b7457600080fd5b846000803373ffffffffffffffffffffffffffffffffffffffff1673ffffffffffffffffffffffffffffffffffffffff1681526020019081526020016000206001019080519060200190614bc99291906156c2565b50836000803373ffffffffffffffffffffffffffffffffffffffff1673ffffffffffffffffffffffffffffffffffffffff1681526020019081526020016000206002019080519060200190614c1f9291906156c2565b50826000803373ffffffffffffffffffffffffffffffffffffffff1673ffffffffffffffffffffffffffffffffffffffff16815260200190815260200160002060030160006101000a81548160ff02191690836002811115614c7d57fe5b0217905550816000803373ffffffffffffffffffffffffffffffffffffffff1673ffffffffffffffffffffffffffffffffffffffff16815260200190815260200160002060030160016101000a81548160ff02191690836005811115614cdf57fe5b0217905550806000803373ffffffffffffffffffffffffffffffffffffffff1673ffffffffffffffffffffffffffffffffffffffff1681526020019081526020016000206004019080519060200190614d399291906156c2565b505050505050565b60008411614d4e57600080fd5b600f54841115614d5d57600080fd5b826006600086815260200190815260200160002060030160006101000a81548160ff02191690836003811115614d8f57fe5b021790555081600660008681526020019081526020016000206004019080519060200190614dbe9291906156c2565b50837f11254402aeb377e7c793689e7b41bf5dc30563afcc74fe3bd9c37d7eb8864d2a33604051808273ffffffffffffffffffffffffffffffffffffffff1673ffffffffffffffffffffffffffffffffffffffff16815260200191505060405180910390a250505050565b60016020528060005260406000206000915090508060000160009054906101000a900473ffffffffffffffffffffffffffffffffffffffff1690806001018054600181600116156101000203166002900480601f016020809104026020016040519081016040528092919081815260200182805460018160011615610100020316600290048015614efb5780601f10614ed057610100808354040283529160200191614efb565b820191906000526020600020905b815481529060010190602001808311614ede57829003601f168201915b505050505090806002018054600181600116156101000203166002900480601f016020809104026020016040519081016040528092919081815260200182805460018160011615610100020316600290048015614f995780601f10614f6e57610100808354040283529160200191614f99565b820191906000526020600020905b815481529060010190602001808311614f7c57829003601f168201915b505050505090806003018054600181600116156101000203166002900480601f0160208091040260200160405190810160405280929190818152602001828054600181600116156101000203166002900480156150375780601f1061500c57610100808354040283529160200191615037565b820191906000526020600020905b81548152906001019060200180831161501a57829003601f168201915b5050505050905084565b600c60008573ffffffffffffffffffffffffffffffffffffffff1673ffffffffffffffffffffffffffffffffffffffff16815260200190815260200160002060009054906101000a900460ff161561509857600080fd5b6000600c60008673ffffffffffffffffffffffffffffffffffffffff1673ffffffffffffffffffffffffffffffffffffffff16815260200190815260200160002060006101000a81548160ff0219169083151502179055506001600a60008673ffffffffffffffffffffffffffffffffffffffff1673ffffffffffffffffffffffffffffffffffffffff16815260200190815260200160002060006101000a81548160ff02191690831515021790555060405180608001604052808573ffffffffffffffffffffffffffffffffffffffff16815260200184815260200183815260200182815250600260008673ffffffffffffffffffffffffffffffffffffffff1673ffffffffffffffffffffffffffffffffffffffff16815260200190815260200160002060008201518160000160006101000a81548173ffffffffffffffffffffffffffffffffffffffff021916908373ffffffffffffffffffffffffffffffffffffffff1602179055506020820151816001019080519060200190615221929190615742565b50604082015181600201908051906020019061523e929190615742565b50606082015181600301908051906020019061525b929190615742565b5090505050505050565b60076020528060005260406000206000915054906101000a900460ff1681565b601160009054906101000a900473ffffffffffffffffffffffffffffffffffffffff1673ffffffffffffffffffffffffffffffffffffffff163373ffffffffffffffffffffffffffffffffffffffff16146152df57600080fd5b600760008573ffffffffffffffffffffffffffffffffffffffff1673ffffffffffffffffffffffffffffffffffffffff16815260200190815260200160002060009054906101000a900460ff161561533657600080fd5b6000600760008673ffffffffffffffffffffffffffffffffffffffff1673ffffffffffffffffffffffffffffffffffffffff16815260200190815260200160002060006101000a81548160ff0219169083151502179055506001600c60008673ffffffffffffffffffffffffffffffffffffffff1673ffffffffffffffffffffffffffffffffffffffff16815260200190815260200160002060006101000a81548160ff02191690831515021790555060405180608001604052808573ffffffffffffffffffffffffffffffffffffffff16815260200184815260200183815260200182815250600460008673ffffffffffffffffffffffffffffffffffffffff1673ffffffffffffffffffffffffffffffffffffffff16815260200190815260200160002060008201518160000160006101000a81548173ffffffffffffffffffffffffffffffffffffffff021916908373ffffffffffffffffffffffffffffffffffffffff16021790555060208201518160010190805190602001906154bf929190615742565b5060408201518160020190805190602001906154dc929190615742565b5060608201518160030190805190602001906154f9929190615742565b5090505050505050565b60056020528060005260406000206000915090508060000154908060010160009054906101000a900473ffffffffffffffffffffffffffffffffffffffff16908060020154908060030160009054906101000a900460ff1690806004018054600181600116156101000203166002900480601f0160208091040260200160405190810160405280929190818152602001828054600181600116156101000203166002900480156155f45780601f106155c9576101008083540402835291602001916155f4565b820191906000526020600020905b8154815290600101906020018083116155d757829003601f168201915b5050505050908060050160009054906101000a900473ffffffffffffffffffffffffffffffffffffffff1690806006018054600181600116156101000203166002900480601f0160208091040260200160405190810160405280929190818152602001828054600181600116156101000203166002900480156156b85780601f1061568d576101008083540402835291602001916156b8565b820191906000526020600020905b81548152906001019060200180831161569b57829003601f168201915b5050505050905087565b828054600181600116156101000203166002900490600052602060002090601f016020900481019282601f1061570357805160ff1916838001178555615731565b82800160010185558215615731579182015b82811115615730578251825591602001919060010190615715565b5b50905061573e919061580f565b5090565b828054600181600116156101000203166002900490600052602060002090601f016020900481019282601f1061578357805160ff19168380011785556157b1565b828001600101855582156157b1579182015b828111156157b0578251825591602001919060010190615795565b5b5090506157be919061580f565b5090565b8280548282559060005260206000209081019282156157fe579160200282015b828111156157fd5782518255916020019190600101906157e2565b5b50905061580b919061580f565b5090565b61583191905b8082111561582d576000816000905550600101615815565b5090565b9056fea265627a7a72315820a7bcd3c51c38debb125b0ed17885bec22e1f3c48f0a2915c57d53580e7fee44064736f6c63430005100032",
  "source": "pragma solidity >=0.4.0 <0.7.0;\n\n\ncontract EDUContract {\n    enum SexType {MALE, FEMALE, OTHER}\n    enum MaritalType {single, married, remarried, separated, divorced, widowed}\n    enum RequestStat {CREATED, APPROVED, REJECTED, CLOSE}\n    enum StudentStat {APPLIED, PURSUING, COMPLETED}\n    enum DocSender {ORG, CLG}\n    \n// Student, College, Organization, College Admin, Organization Admin, CollegeRequest, OrganizationRequest, Document\n    struct Student {\n        address student;\n        string fullname;\n        string dob;\n        SexType sex;\n        MaritalType marital;\n        string email;\n        uint256[] document;\n    }\n\n    struct CollegeRequest {\n        uint256 index;\n        address student;\n        uint256 datetime;\n        RequestStat stat;\n        string remark;\n        address college;\n        string docpath;\n    }\n\n    struct OrganizationRequest {\n        uint256 index;\n        address student;\n        uint256 datetime;\n        RequestStat stat;\n        string remark;\n        address organization;\n        string docpath;\n    }\n\n    struct College {\n        address Id;\n        string collegename;\n        string clgaddress;\n        string email;\n    }\n\n    struct Organization {\n        address Id;\n        string orgname;\n        string orgaddress;\n        string email;\n    }\n\n    struct Document {\n        uint256 index;\n        address institute;\n        address student;\n        DocSender sender;\n        string docname;\n        string docpath;\n        string docdesc;\n        bool isActive;\n    }\n\n    struct CollegeAdmin {\n        address Id;\n        string collegeadminname;\n        string clgadminaddress;\n        string email;\n    }\n\n    struct OrganizationAdmin {\n        address Id;\n        string orgadminname;\n        string orgadminaddress;\n        string email;\n    }\n\n    mapping(address => Student) public students;\n    mapping(address => College) public colleges;\n    mapping(address => Organization) public organizations;\n    mapping(address => CollegeAdmin) public collegeAdministrator;\n    mapping(address => OrganizationAdmin) public organizationAdministartor;\n    mapping(uint256 => CollegeRequest) public collegeRequests;\n    mapping(uint256 => OrganizationRequest) public organizationRequests;\n    mapping(address => bool) public administrator;\n    mapping(address => bool) public isCollege;\n    mapping(address => bool) public isStudent;\n    mapping(address => bool) public isOrganization;\n    mapping(address => bool) public isCollegeAdministartor;\n    mapping(address => bool) public isOrganizationAdministrator;\n    mapping(uint256 => Document) public documents;\n\n    uint256 public CollegeRequestIndex;\n    uint256 public OrganizationRequestIndex;\n    uint256 public DocumentIndex;\n\n    address public owner;\n\n    string public version = \"0.0.1\";\n\n    event eCollegeRequestAdd(uint256 indexed index, address sender);\n\n    event eCollegeRequestUpdate(uint256 indexed index, address sender);\n    \n    event eOrganizationRequestAdd(uint256 indexed index, address sender);\n\n    event eOrganizationRequestUpdate(uint256 indexed index, address sender);\n\n    constructor() public {\n        owner = msg.sender;\n        administrator[msg.sender] = true;\n        isOrganizationAdministrator[msg.sender] = true;\n        isCollegeAdministartor[msg.sender] = true;\n    }\n   \n\n    function SetCollegeAdministrator( \n        address _collegeadmin,\n        string memory _collegeadminname,\n        string memory _clgadminaddress,\n        string memory _email\n    ) public {\n        require(msg.sender == owner);\n        require(!administrator[_collegeadmin]);\n        administrator[_collegeadmin] = false;\n\n        isCollegeAdministartor[_collegeadmin] = true;\n        collegeAdministrator[_collegeadmin] = CollegeAdmin(\n            _collegeadmin,\n            _collegeadminname,\n            _clgadminaddress,\n            _email\n        );\n    }\n\n    function SetOrganizationAdministrator( \n        address _orgadmin,\n        string memory _orgadminname,\n        string memory _orgadminaddress,\n        string memory _email\n    ) public {\n        require(msg.sender == owner);\n        require(!administrator[_orgadmin]);\n        administrator[_orgadmin] = false;\n\n        isOrganizationAdministrator[_orgadmin] = true;\n        organizationAdministartor[_orgadmin] = OrganizationAdmin(\n            _orgadmin,\n            _orgadminname,\n            _orgadminaddress,\n            _email\n        );\n    }    \n\n    function SetCollege( \n        address _college,\n        string memory _collegename,\n        string memory _clgaddress,\n        string memory _email\n    ) public {\n        require(!isCollegeAdministartor[_college]);\n        isCollegeAdministartor[_college] = false;\n\n        isCollege[_college] = true;\n        colleges[_college] = College(\n            _college,\n            _collegename,\n            _clgaddress,\n            _email\n        );\n    }\n\n    function SetOrganization( \n        address _organization,\n        string memory _orgname,\n        string memory _orgaddress,\n        string memory _email\n    ) public {        \n        require(!isOrganizationAdministrator[_organization]);\n        isOrganizationAdministrator[_organization] = false;\n\n        isOrganization[_organization] = true;\n        organizations[_organization] = Organization(\n            _organization,\n            _orgname,\n            _orgaddress,\n            _email\n        );\n    }\n\n    function kill() public {\n        require(msg.sender == owner);\n        selfdestruct(msg.sender);\n    }\n\n    function SignupStudent(\n        string memory _fullname,\n        string memory _dob,\n        SexType _sex,\n        MaritalType _marital,\n        string memory _email,\n        uint256[] memory _document\n    ) public {\n        require(msg.sender != students[msg.sender].student);\n\n        students[msg.sender] = Student(\n            msg.sender,\n            _fullname,\n            _dob,\n            _sex,\n            _marital,\n            _email,\n            _document\n        );\n    }\n\n    function StudentUpdate(\n        string memory _fullname,\n        string memory _dob,\n        SexType _sex,\n        MaritalType _marital,\n        string memory _email\n    ) public {\n        require(msg.sender == students[msg.sender].student);\n\n        students[msg.sender].fullname = _fullname;\n        students[msg.sender].dob = _dob;\n        students[msg.sender].sex = _sex;\n        students[msg.sender].marital = _marital;\n        students[msg.sender].email = _email;\n    }\n    \n    function CollegeRequestAdd(\n        RequestStat _stat,\n        string memory _remark,\n        address _college,\n        string memory _docpath\n    ) public {\n        require(msg.sender == students[msg.sender].student);\n        require(isCollege[_college] == true);\n        CollegeRequestIndex++;\n        collegeRequests[CollegeRequestIndex] = CollegeRequest(\n            CollegeRequestIndex,\n            msg.sender,\n            now,\n            _stat,\n            _remark,\n            _college,\n            _docpath\n        );\n\n        emit eCollegeRequestAdd(CollegeRequestIndex, msg.sender);\n    }\n\n    function CollegeRequestUpdate(\n        uint256 _CollegeRequestIndex,\n        RequestStat _stat,\n        string memory _remark,\n        address _college\n    ) public {\n        require(_CollegeRequestIndex > 0);\n        require(_CollegeRequestIndex <= CollegeRequestIndex);\n\n        collegeRequests[_CollegeRequestIndex].stat = _stat;\n        collegeRequests[_CollegeRequestIndex].remark = _remark;\n        emit eCollegeRequestUpdate(_CollegeRequestIndex, msg.sender);\n    }\n\n    function CollegeRequestGet() public view returns (uint256[] memory) {\n        uint256[] memory results;\n        uint256 count;\n        for (uint256 i = 1; i <= CollegeRequestIndex; i++) {\n            if (collegeRequests[i].student == msg.sender) {\n                results[count] = i;\n                count++;\n            }\n        }\n        return results;\n    }\n\n    function OrganizationRequestAdd(\n        RequestStat _stat,\n        string memory _remark,\n        address _organization,\n        string memory _docpath\n    ) public {\n        require(msg.sender == students[msg.sender].student);\n        require(isOrganization[_organization] == true);\n        OrganizationRequestIndex++;\n        organizationRequests[OrganizationRequestIndex] = OrganizationRequest(\n            OrganizationRequestIndex,\n            msg.sender,\n            now,\n            _stat,\n            _remark,\n            _organization,\n            _docpath\n        );\n\n        emit eOrganizationRequestAdd(OrganizationRequestIndex, msg.sender);\n    }\n\n    function OrganizationRequestUpdate(\n        uint256 _OrganizationRequestIndex,\n        RequestStat _stat,\n        string memory _remark,\n        address _organization\n    ) public {\n        require(_OrganizationRequestIndex > 0);\n        require(_OrganizationRequestIndex <= OrganizationRequestIndex);\n\n        organizationRequests[_OrganizationRequestIndex].stat = _stat;\n        organizationRequests[_OrganizationRequestIndex].remark = _remark;\n        emit eOrganizationRequestUpdate(_OrganizationRequestIndex, msg.sender);\n    }\n\n    function OrganizationRequestGet() public view returns (uint256[] memory) {\n        uint256[] memory results;\n        uint256 count;\n        for (uint256 i = 1; i <= OrganizationRequestIndex; i++) {\n            if (organizationRequests[i].student == msg.sender) {\n                results[count] = i;\n                count++;\n            }\n        }\n        return results;\n    }\n\n    function DocumentAdd(\n        address _student,\n        DocSender _sender,\n        string memory _docname,\n        string memory _docpath,\n        string memory _docdesc\n    ) public {\n        if(_sender == DocSender.CLG){\n            require(msg.sender == colleges[msg.sender].Id);\n        }\n        else{\n            require(msg.sender == organizations[msg.sender].Id);\n        }       \n\n        DocumentIndex++;\n        documents[DocumentIndex] = Document(\n            DocumentIndex,\n            msg.sender,\n            _student,\n            _sender,\n            _docname,\n            _docpath,\n            _docdesc,\n            true\n        );\n\n        students[_student].document.push(DocumentIndex);\n    }\n\n    function DocumentGet(address _addr)\n        public\n        view\n        returns (uint256[] memory)\n    {\n        return students[_addr].document;\n    }\n\n}\n",
  "sourcePath": "/home/falguni/Documents/devfolio/EduBlocks/contracts/EDUContract.sol",
  "compiler": {
    "name": "solc",
    "version": "0.5.16+commit.9c3226ce.Emscripten.clang"
  },
  "schemaVersion": "3.0.23",
  "updatedAt": "2021-04-09T18:38:31.633Z",
  "devdoc": {
    "methods": {}
  },
  "userdoc": {
    "methods": {}
  }
}