{
  "contractName": "EDUContract",
  "abi": [
    {
      "inputs": [],
      "payable": false,
      "stateMutability": "nonpayable",
      "type": "constructor"
    },
    {
      "anonymous": false,
      "inputs": [
        {
          "indexed": true,
          "internalType": "uint256",
          "name": "index",
          "type": "uint256"
        },
        {
          "indexed": false,
          "internalType": "address",
          "name": "sender",
          "type": "address"
        }
      ],
      "name": "eCollegeRequestAdd",
      "type": "event"
    },
    {
      "anonymous": false,
      "inputs": [
        {
          "indexed": true,
          "internalType": "uint256",
          "name": "index",
          "type": "uint256"
        },
        {
          "indexed": false,
          "internalType": "address",
          "name": "sender",
          "type": "address"
        }
      ],
      "name": "eCollegeRequestUpdate",
      "type": "event"
    },
    {
      "anonymous": false,
      "inputs": [
        {
          "indexed": true,
          "internalType": "uint256",
          "name": "index",
          "type": "uint256"
        },
        {
          "indexed": false,
          "internalType": "address",
          "name": "sender",
          "type": "address"
        }
      ],
      "name": "eOrganizationRequestAdd",
      "type": "event"
    },
    {
      "anonymous": false,
      "inputs": [
        {
          "indexed": true,
          "internalType": "uint256",
          "name": "index",
          "type": "uint256"
        },
        {
          "indexed": false,
          "internalType": "address",
          "name": "sender",
          "type": "address"
        }
      ],
      "name": "eOrganizationRequestUpdate",
      "type": "event"
    },
    {
      "constant": true,
      "inputs": [],
      "name": "AdministratorIndex",
      "outputs": [
        {
          "internalType": "uint256",
          "name": "",
          "type": "uint256"
        }
      ],
      "payable": false,
      "stateMutability": "view",
      "type": "function"
    },
    {
      "constant": true,
      "inputs": [
        {
          "internalType": "uint256",
          "name": "",
          "type": "uint256"
        }
      ],
      "name": "AllAdministrator",
      "outputs": [
        {
          "internalType": "uint256",
          "name": "index",
          "type": "uint256"
        },
        {
          "internalType": "address",
          "name": "Id",
          "type": "address"
        },
        {
          "internalType": "string",
          "name": "Alladminname",
          "type": "string"
        },
        {
          "internalType": "string",
          "name": "Alladminaddress",
          "type": "string"
        },
        {
          "internalType": "string",
          "name": "email",
          "type": "string"
        }
      ],
      "payable": false,
      "stateMutability": "view",
      "type": "function"
    },
    {
      "constant": true,
      "inputs": [],
      "name": "CollegeAdministratorIndex",
      "outputs": [
        {
          "internalType": "uint256",
          "name": "",
          "type": "uint256"
        }
      ],
      "payable": false,
      "stateMutability": "view",
      "type": "function"
    },
    {
      "constant": true,
      "inputs": [],
      "name": "CollegeRequestIndex",
      "outputs": [
        {
          "internalType": "uint256",
          "name": "",
          "type": "uint256"
        }
      ],
      "payable": false,
      "stateMutability": "view",
      "type": "function"
    },
    {
      "constant": true,
      "inputs": [],
      "name": "DocumentIndex",
      "outputs": [
        {
          "internalType": "uint256",
          "name": "",
          "type": "uint256"
        }
      ],
      "payable": false,
      "stateMutability": "view",
      "type": "function"
    },
    {
      "constant": true,
      "inputs": [],
      "name": "OrganizationAdministratorIndex",
      "outputs": [
        {
          "internalType": "uint256",
          "name": "",
          "type": "uint256"
        }
      ],
      "payable": false,
      "stateMutability": "view",
      "type": "function"
    },
    {
      "constant": true,
      "inputs": [],
      "name": "OrganizationRequestIndex",
      "outputs": [
        {
          "internalType": "uint256",
          "name": "",
          "type": "uint256"
        }
      ],
      "payable": false,
      "stateMutability": "view",
      "type": "function"
    },
    {
      "constant": true,
      "inputs": [
        {
          "internalType": "address",
          "name": "",
          "type": "address"
        }
      ],
      "name": "administrator",
      "outputs": [
        {
          "internalType": "bool",
          "name": "",
          "type": "bool"
        }
      ],
      "payable": false,
      "stateMutability": "view",
      "type": "function"
    },
    {
      "constant": true,
      "inputs": [
        {
          "internalType": "address",
          "name": "",
          "type": "address"
        }
      ],
      "name": "collegeAdministrator",
      "outputs": [
        {
          "internalType": "address",
          "name": "Id",
          "type": "address"
        },
        {
          "internalType": "string",
          "name": "collegeadminname",
          "type": "string"
        },
        {
          "internalType": "string",
          "name": "clgadminaddress",
          "type": "string"
        },
        {
          "internalType": "string",
          "name": "email",
          "type": "string"
        }
      ],
      "payable": false,
      "stateMutability": "view",
      "type": "function"
    },
    {
      "constant": true,
      "inputs": [
        {
          "internalType": "uint256",
          "name": "",
          "type": "uint256"
        }
      ],
      "name": "collegeRequests",
      "outputs": [
        {
          "internalType": "uint256",
          "name": "index",
          "type": "uint256"
        },
        {
          "internalType": "address",
          "name": "student",
          "type": "address"
        },
        {
          "internalType": "uint256",
          "name": "datetime",
          "type": "uint256"
        },
        {
          "internalType": "enum EDUContract.RequestStat",
          "name": "stat",
          "type": "uint8"
        },
        {
          "internalType": "string",
          "name": "remark",
          "type": "string"
        },
        {
          "internalType": "address",
          "name": "college",
          "type": "address"
        },
        {
          "internalType": "string",
          "name": "docpath",
          "type": "string"
        },
        {
          "internalType": "string",
          "name": "docdesc",
          "type": "string"
        }
      ],
      "payable": false,
      "stateMutability": "view",
      "type": "function"
    },
    {
      "constant": true,
      "inputs": [
        {
          "internalType": "address",
          "name": "",
          "type": "address"
        }
      ],
      "name": "colleges",
      "outputs": [
        {
          "internalType": "address",
          "name": "Id",
          "type": "address"
        },
        {
          "internalType": "string",
          "name": "collegename",
          "type": "string"
        },
        {
          "internalType": "string",
          "name": "clgaddress",
          "type": "string"
        },
        {
          "internalType": "string",
          "name": "email",
          "type": "string"
        }
      ],
      "payable": false,
      "stateMutability": "view",
      "type": "function"
    },
    {
      "constant": true,
      "inputs": [
        {
          "internalType": "uint256",
          "name": "",
          "type": "uint256"
        }
      ],
      "name": "documents",
      "outputs": [
        {
          "internalType": "uint256",
          "name": "index",
          "type": "uint256"
        },
        {
          "internalType": "address",
          "name": "institute",
          "type": "address"
        },
        {
          "internalType": "address",
          "name": "student",
          "type": "address"
        },
        {
          "internalType": "enum EDUContract.DocSender",
          "name": "sender",
          "type": "uint8"
        },
        {
          "internalType": "string",
          "name": "docname",
          "type": "string"
        },
        {
          "internalType": "string",
          "name": "docpath",
          "type": "string"
        },
        {
          "internalType": "string",
          "name": "docdesc",
          "type": "string"
        },
        {
          "internalType": "bool",
          "name": "isActive",
          "type": "bool"
        }
      ],
      "payable": false,
      "stateMutability": "view",
      "type": "function"
    },
    {
      "constant": true,
      "inputs": [
        {
          "internalType": "address",
          "name": "",
          "type": "address"
        }
      ],
      "name": "isCollege",
      "outputs": [
        {
          "internalType": "bool",
          "name": "",
          "type": "bool"
        }
      ],
      "payable": false,
      "stateMutability": "view",
      "type": "function"
    },
    {
      "constant": true,
      "inputs": [
        {
          "internalType": "address",
          "name": "",
          "type": "address"
        }
      ],
      "name": "isCollegeAdministartor",
      "outputs": [
        {
          "internalType": "bool",
          "name": "",
          "type": "bool"
        }
      ],
      "payable": false,
      "stateMutability": "view",
      "type": "function"
    },
    {
      "constant": true,
      "inputs": [
        {
          "internalType": "address",
          "name": "",
          "type": "address"
        }
      ],
      "name": "isOrganization",
      "outputs": [
        {
          "internalType": "bool",
          "name": "",
          "type": "bool"
        }
      ],
      "payable": false,
      "stateMutability": "view",
      "type": "function"
    },
    {
      "constant": true,
      "inputs": [
        {
          "internalType": "address",
          "name": "",
          "type": "address"
        }
      ],
      "name": "isOrganizationAdministrator",
      "outputs": [
        {
          "internalType": "bool",
          "name": "",
          "type": "bool"
        }
      ],
      "payable": false,
      "stateMutability": "view",
      "type": "function"
    },
    {
      "constant": true,
      "inputs": [
        {
          "internalType": "address",
          "name": "",
          "type": "address"
        }
      ],
      "name": "isStudent",
      "outputs": [
        {
          "internalType": "bool",
          "name": "",
          "type": "bool"
        }
      ],
      "payable": false,
      "stateMutability": "view",
      "type": "function"
    },
    {
      "constant": true,
      "inputs": [
        {
          "internalType": "address",
          "name": "",
          "type": "address"
        }
      ],
      "name": "organizationAdministartor",
      "outputs": [
        {
          "internalType": "address",
          "name": "Id",
          "type": "address"
        },
        {
          "internalType": "string",
          "name": "orgadminname",
          "type": "string"
        },
        {
          "internalType": "string",
          "name": "orgadminaddress",
          "type": "string"
        },
        {
          "internalType": "string",
          "name": "email",
          "type": "string"
        }
      ],
      "payable": false,
      "stateMutability": "view",
      "type": "function"
    },
    {
      "constant": true,
      "inputs": [
        {
          "internalType": "uint256",
          "name": "",
          "type": "uint256"
        }
      ],
      "name": "organizationRequests",
      "outputs": [
        {
          "internalType": "uint256",
          "name": "index",
          "type": "uint256"
        },
        {
          "internalType": "address",
          "name": "student",
          "type": "address"
        },
        {
          "internalType": "uint256",
          "name": "datetime",
          "type": "uint256"
        },
        {
          "internalType": "enum EDUContract.RequestStat",
          "name": "stat",
          "type": "uint8"
        },
        {
          "internalType": "string",
          "name": "remark",
          "type": "string"
        },
        {
          "internalType": "address",
          "name": "organization",
          "type": "address"
        },
        {
          "internalType": "string",
          "name": "docpath",
          "type": "string"
        },
        {
          "internalType": "string",
          "name": "docdesc",
          "type": "string"
        }
      ],
      "payable": false,
      "stateMutability": "view",
      "type": "function"
    },
    {
      "constant": true,
      "inputs": [
        {
          "internalType": "address",
          "name": "",
          "type": "address"
        }
      ],
      "name": "organizations",
      "outputs": [
        {
          "internalType": "address",
          "name": "Id",
          "type": "address"
        },
        {
          "internalType": "string",
          "name": "orgname",
          "type": "string"
        },
        {
          "internalType": "string",
          "name": "orgaddress",
          "type": "string"
        },
        {
          "internalType": "string",
          "name": "email",
          "type": "string"
        }
      ],
      "payable": false,
      "stateMutability": "view",
      "type": "function"
    },
    {
      "constant": true,
      "inputs": [],
      "name": "owner",
      "outputs": [
        {
          "internalType": "address",
          "name": "",
          "type": "address"
        }
      ],
      "payable": false,
      "stateMutability": "view",
      "type": "function"
    },
    {
      "constant": true,
      "inputs": [
        {
          "internalType": "address",
          "name": "",
          "type": "address"
        }
      ],
      "name": "students",
      "outputs": [
        {
          "internalType": "address",
          "name": "student",
          "type": "address"
        },
        {
          "internalType": "string",
          "name": "fullname",
          "type": "string"
        },
        {
          "internalType": "string",
          "name": "dob",
          "type": "string"
        },
        {
          "internalType": "enum EDUContract.SexType",
          "name": "sex",
          "type": "uint8"
        },
        {
          "internalType": "enum EDUContract.MaritalType",
          "name": "marital",
          "type": "uint8"
        },
        {
          "internalType": "string",
          "name": "email",
          "type": "string"
        }
      ],
      "payable": false,
      "stateMutability": "view",
      "type": "function"
    },
    {
      "constant": true,
      "inputs": [],
      "name": "version",
      "outputs": [
        {
          "internalType": "string",
          "name": "",
          "type": "string"
        }
      ],
      "payable": false,
      "stateMutability": "view",
      "type": "function"
    },
    {
      "constant": false,
      "inputs": [
        {
          "internalType": "address",
          "name": "_collegeadmin",
          "type": "address"
        },
        {
          "internalType": "string",
          "name": "_collegeadminname",
          "type": "string"
        },
        {
          "internalType": "string",
          "name": "_clgadminaddress",
          "type": "string"
        },
        {
          "internalType": "string",
          "name": "_email",
          "type": "string"
        }
      ],
      "name": "SetCollegeAdministrator",
      "outputs": [],
      "payable": false,
      "stateMutability": "nonpayable",
      "type": "function"
    },
    {
      "constant": false,
      "inputs": [
        {
          "internalType": "address",
          "name": "_orgadmin",
          "type": "address"
        },
        {
          "internalType": "string",
          "name": "_orgadminname",
          "type": "string"
        },
        {
          "internalType": "string",
          "name": "_orgadminaddress",
          "type": "string"
        },
        {
          "internalType": "string",
          "name": "_email",
          "type": "string"
        }
      ],
      "name": "SetOrganizationAdministrator",
      "outputs": [],
      "payable": false,
      "stateMutability": "nonpayable",
      "type": "function"
    },
    {
      "constant": false,
      "inputs": [
        {
          "internalType": "address",
          "name": "_college",
          "type": "address"
        },
        {
          "internalType": "string",
          "name": "_collegename",
          "type": "string"
        },
        {
          "internalType": "string",
          "name": "_clgaddress",
          "type": "string"
        },
        {
          "internalType": "string",
          "name": "_email",
          "type": "string"
        }
      ],
      "name": "SetCollege",
      "outputs": [],
      "payable": false,
      "stateMutability": "nonpayable",
      "type": "function"
    },
    {
      "constant": false,
      "inputs": [
        {
          "internalType": "address",
          "name": "_organization",
          "type": "address"
        },
        {
          "internalType": "string",
          "name": "_orgname",
          "type": "string"
        },
        {
          "internalType": "string",
          "name": "_orgaddress",
          "type": "string"
        },
        {
          "internalType": "string",
          "name": "_email",
          "type": "string"
        }
      ],
      "name": "SetOrganization",
      "outputs": [],
      "payable": false,
      "stateMutability": "nonpayable",
      "type": "function"
    },
    {
      "constant": false,
      "inputs": [],
      "name": "kill",
      "outputs": [],
      "payable": false,
      "stateMutability": "nonpayable",
      "type": "function"
    },
    {
      "constant": false,
      "inputs": [
        {
          "internalType": "string",
          "name": "_fullname",
          "type": "string"
        },
        {
          "internalType": "string",
          "name": "_dob",
          "type": "string"
        },
        {
          "internalType": "enum EDUContract.SexType",
          "name": "_sex",
          "type": "uint8"
        },
        {
          "internalType": "enum EDUContract.MaritalType",
          "name": "_marital",
          "type": "uint8"
        },
        {
          "internalType": "string",
          "name": "_email",
          "type": "string"
        },
        {
          "internalType": "uint256[]",
          "name": "_document",
          "type": "uint256[]"
        }
      ],
      "name": "SignupStudent",
      "outputs": [],
      "payable": false,
      "stateMutability": "nonpayable",
      "type": "function"
    },
    {
      "constant": false,
      "inputs": [
        {
          "internalType": "string",
          "name": "_fullname",
          "type": "string"
        },
        {
          "internalType": "string",
          "name": "_dob",
          "type": "string"
        },
        {
          "internalType": "enum EDUContract.SexType",
          "name": "_sex",
          "type": "uint8"
        },
        {
          "internalType": "enum EDUContract.MaritalType",
          "name": "_marital",
          "type": "uint8"
        },
        {
          "internalType": "string",
          "name": "_email",
          "type": "string"
        }
      ],
      "name": "StudentUpdate",
      "outputs": [],
      "payable": false,
      "stateMutability": "nonpayable",
      "type": "function"
    },
    {
      "constant": false,
      "inputs": [
        {
          "internalType": "enum EDUContract.RequestStat",
          "name": "_stat",
          "type": "uint8"
        },
        {
          "internalType": "string",
          "name": "_remark",
          "type": "string"
        },
        {
          "internalType": "address",
          "name": "_college",
          "type": "address"
        },
        {
          "internalType": "string",
          "name": "_docpath",
          "type": "string"
        },
        {
          "internalType": "string",
          "name": "_docdesc",
          "type": "string"
        }
      ],
      "name": "CollegeRequestAdd",
      "outputs": [],
      "payable": false,
      "stateMutability": "nonpayable",
      "type": "function"
    },
    {
      "constant": false,
      "inputs": [
        {
          "internalType": "uint256",
          "name": "_CollegeRequestIndex",
          "type": "uint256"
        },
        {
          "internalType": "enum EDUContract.RequestStat",
          "name": "_stat",
          "type": "uint8"
        },
        {
          "internalType": "string",
          "name": "_remark",
          "type": "string"
        },
        {
          "internalType": "address",
          "name": "_college",
          "type": "address"
        }
      ],
      "name": "CollegeRequestUpdate",
      "outputs": [],
      "payable": false,
      "stateMutability": "nonpayable",
      "type": "function"
    },
    {
      "constant": true,
      "inputs": [],
      "name": "CollegeRequestGet",
      "outputs": [
        {
          "internalType": "uint256[]",
          "name": "",
          "type": "uint256[]"
        }
      ],
      "payable": false,
      "stateMutability": "view",
      "type": "function"
    },
    {
      "constant": false,
      "inputs": [
        {
          "internalType": "enum EDUContract.RequestStat",
          "name": "_stat",
          "type": "uint8"
        },
        {
          "internalType": "string",
          "name": "_remark",
          "type": "string"
        },
        {
          "internalType": "address",
          "name": "_organization",
          "type": "address"
        },
        {
          "internalType": "string",
          "name": "_docpath",
          "type": "string"
        },
        {
          "internalType": "string",
          "name": "_docdesc",
          "type": "string"
        }
      ],
      "name": "OrganizationRequestAdd",
      "outputs": [],
      "payable": false,
      "stateMutability": "nonpayable",
      "type": "function"
    },
    {
      "constant": false,
      "inputs": [
        {
          "internalType": "uint256",
          "name": "_OrganizationRequestIndex",
          "type": "uint256"
        },
        {
          "internalType": "enum EDUContract.RequestStat",
          "name": "_stat",
          "type": "uint8"
        },
        {
          "internalType": "string",
          "name": "_remark",
          "type": "string"
        },
        {
          "internalType": "address",
          "name": "_organization",
          "type": "address"
        }
      ],
      "name": "OrganizationRequestUpdate",
      "outputs": [],
      "payable": false,
      "stateMutability": "nonpayable",
      "type": "function"
    },
    {
      "constant": true,
      "inputs": [],
      "name": "OrganizationRequestGet",
      "outputs": [
        {
          "internalType": "uint256[]",
          "name": "",
          "type": "uint256[]"
        }
      ],
      "payable": false,
      "stateMutability": "view",
      "type": "function"
    },
    {
      "constant": false,
      "inputs": [
        {
          "internalType": "address",
          "name": "_student",
          "type": "address"
        },
        {
          "internalType": "enum EDUContract.DocSender",
          "name": "_sender",
          "type": "uint8"
        },
        {
          "internalType": "string",
          "name": "_docname",
          "type": "string"
        },
        {
          "internalType": "string",
          "name": "_docpath",
          "type": "string"
        },
        {
          "internalType": "string",
          "name": "_docdesc",
          "type": "string"
        }
      ],
      "name": "DocumentAdd",
      "outputs": [],
      "payable": false,
      "stateMutability": "nonpayable",
      "type": "function"
    },
    {
      "constant": true,
      "inputs": [
        {
          "internalType": "address",
          "name": "_addr",
          "type": "address"
        }
      ],
      "name": "DocumentGet",
      "outputs": [
        {
          "internalType": "uint256[]",
          "name": "",
          "type": "uint256[]"
        }
      ],
      "payable": false,
      "stateMutability": "view",
      "type": "function"
    }
  ],
  "bytecode": "0x60806040526040518060400160405280600581526020017f302e302e310000000000000000000000000000000000000000000000000000008152506016908051906020019062000051929190620001af565b503480156200005f57600080fd5b5033601560006101000a81548173ffffffffffffffffffffffffffffffffffffffff021916908373ffffffffffffffffffffffffffffffffffffffff1602179055506001600860003373ffffffffffffffffffffffffffffffffffffffff1673ffffffffffffffffffffffffffffffffffffffff16815260200190815260200160002060006101000a81548160ff0219169083151502179055506001600d60003373ffffffffffffffffffffffffffffffffffffffff1673ffffffffffffffffffffffffffffffffffffffff16815260200190815260200160002060006101000a81548160ff0219169083151502179055506001600c60003373ffffffffffffffffffffffffffffffffffffffff1673ffffffffffffffffffffffffffffffffffffffff16815260200190815260200160002060006101000a81548160ff0219169083151502179055506200025e565b828054600181600116156101000203166002900490600052602060002090601f016020900481019282601f10620001f257805160ff191683800117855562000223565b8280016001018555821562000223579182015b828111156200022257825182559160200191906001019062000205565b5b50905062000232919062000236565b5090565b6200025b91905b80821115620002575760008160009055506001016200023d565b5090565b90565b6162aa806200026e6000396000f3fe608060405234801561001057600080fd5b50600436106102325760003560e01c806382f7d39211610130578063b1ce8eab116100b8578063ea5019491161007c578063ea501949146124ce578063f3a67e1f14612696578063f4fe9fad1461289f578063fa5584fb146128fb578063fddb0e2a14612b0457610232565b8063b1ce8eab14611f15578063c2ed2b0514611f71578063d91f98601461217d578063e091870c146121d9578063e33057ed146123dc57610232565b806394674a20116100ff57806394674a201461173e57806399aeea6e14611946578063a2c97c52146119a2578063a5778f3914611b6a578063a6c807a914611d2357610232565b806382f7d392146114b2578063843fe5e41461150e5780638da5cb5b1461152c5780638df4caf71461157657610232565b806347660004116101be5780635e60d42f116101825780635e60d42f14610dc657806362766b0314610fdc5780636d3f58a1146111e55780636f41ee80146113fb57806380e23e291461141957610232565b8063476600041461082657806354fd4d5014610abd5780635a1f740614610b405780635b025ef414610d085780635c36075914610d6757610232565b80631f772cf3116102055780631f772cf3146102af578063280ecdd81461030b57806336283c4a1461052157806340feb6131461061357806341c0e1b51461081c57610232565b8063077adfad146102375780630e67487f14610255578063167b11191461027357806319be639314610291575b600080fd5b61023f612d0c565b6040518082815260200191505060405180910390f35b61025d612d12565b6040518082815260200191505060405180910390f35b61027b612d18565b6040518082815260200191505060405180910390f35b610299612d1e565b6040518082815260200191505060405180910390f35b6102f1600480360360208110156102c557600080fd5b81019080803573ffffffffffffffffffffffffffffffffffffffff169060200190929190505050612d24565b604051808215151515815260200191505060405180910390f35b61051f600480360360a081101561032157600080fd5b81019080803560ff1690602001909291908035906020019064010000000081111561034b57600080fd5b82018360208201111561035d57600080fd5b8035906020019184600183028401116401000000008311171561037f57600080fd5b91908080601f016020809104026020016040519081016040528093929190818152602001838380828437600081840152601f19601f820116905080830192505050505050509192919290803573ffffffffffffffffffffffffffffffffffffffff1690602001909291908035906020019064010000000081111561040257600080fd5b82018360208201111561041457600080fd5b8035906020019184600183028401116401000000008311171561043657600080fd5b91908080601f016020809104026020016040519081016040528093929190818152602001838380828437600081840152601f19601f8201169050808301925050505050505091929192908035906020019064010000000081111561049957600080fd5b8201836020820111156104ab57600080fd5b803590602001918460018302840111640100000000831117156104cd57600080fd5b91908080601f016020809104026020016040519081016040528093929190818152602001838380828437600081840152601f19601f820116905080830192505050505050509192919290505050612d44565b005b6106116004803603608081101561053757600080fd5b8101908080359060200190929190803560ff1690602001909291908035906020019064010000000081111561056b57600080fd5b82018360208201111561057d57600080fd5b8035906020019184600183028401116401000000008311171561059f57600080fd5b91908080601f016020809104026020016040519081016040528093929190818152602001838380828437600081840152601f19601f820116905080830192505050505050509192919290803573ffffffffffffffffffffffffffffffffffffffff169060200190929190505050613066565b005b61081a6004803603608081101561062957600080fd5b81019080803573ffffffffffffffffffffffffffffffffffffffff1690602001909291908035906020019064010000000081111561066657600080fd5b82018360208201111561067857600080fd5b8035906020019184600183028401116401000000008311171561069a57600080fd5b91908080601f016020809104026020016040519081016040528093929190818152602001838380828437600081840152601f19601f820116905080830192505050505050509192919290803590602001906401000000008111156106fd57600080fd5b82018360208201111561070f57600080fd5b8035906020019184600183028401116401000000008311171561073157600080fd5b91908080601f016020809104026020016040519081016040528093929190818152602001838380828437600081840152601f19601f8201169050808301925050505050505091929192908035906020019064010000000081111561079457600080fd5b8201836020820111156107a657600080fd5b803590602001918460018302840111640100000000831117156107c857600080fd5b91908080601f016020809104026020016040519081016040528093929190818152602001838380828437600081840152601f19601f82011690508083019250505050505050919291929050505061314e565b005b6108246134ef565b005b610abb600480360360c081101561083c57600080fd5b810190808035906020019064010000000081111561085957600080fd5b82018360208201111561086b57600080fd5b8035906020019184600183028401116401000000008311171561088d57600080fd5b91908080601f016020809104026020016040519081016040528093929190818152602001838380828437600081840152601f19601f820116905080830192505050505050509192919290803590602001906401000000008111156108f057600080fd5b82018360208201111561090257600080fd5b8035906020019184600183028401116401000000008311171561092457600080fd5b91908080601f016020809104026020016040519081016040528093929190818152602001838380828437600081840152601f19601f820116905080830192505050505050509192919290803560ff169060200190929190803560ff169060200190929190803590602001906401000000008111156109a157600080fd5b8201836020820111156109b357600080fd5b803590602001918460018302840111640100000000831117156109d557600080fd5b91908080601f016020809104026020016040519081016040528093929190818152602001838380828437600081840152601f19601f82011690508083019250505050505050919291929080359060200190640100000000811115610a3857600080fd5b820183602082011115610a4a57600080fd5b80359060200191846020830284011164010000000083111715610a6c57600080fd5b919080806020026020016040519081016040528093929190818152602001838360200280828437600081840152601f19601f820116905080830192505050505050509192919290505050613562565b005b610ac56137b1565b6040518080602001828103825283818151815260200191508051906020019080838360005b83811015610b05578082015181840152602081019050610aea565b50505050905090810190601f168015610b325780820380516001836020036101000a031916815260200191505b509250505060405180910390f35b610b8260048036036020811015610b5657600080fd5b81019080803573ffffffffffffffffffffffffffffffffffffffff16906020019092919050505061384f565b604051808573ffffffffffffffffffffffffffffffffffffffff1673ffffffffffffffffffffffffffffffffffffffff168152602001806020018060200180602001848103845287818151815260200191508051906020019080838360005b83811015610bfc578082015181840152602081019050610be1565b50505050905090810190601f168015610c295780820380516001836020036101000a031916815260200191505b50848103835286818151815260200191508051906020019080838360005b83811015610c62578082015181840152602081019050610c47565b50505050905090810190601f168015610c8f5780820380516001836020036101000a031916815260200191505b50848103825285818151815260200191508051906020019080838360005b83811015610cc8578082015181840152602081019050610cad565b50505050905090810190601f168015610cf55780820380516001836020036101000a031916815260200191505b5097505050505050505060405180910390f35b610d10613a67565b6040518080602001828103825283818151815260200191508051906020019060200280838360005b83811015610d53578082015181840152602081019050610d38565b505050509050019250505060405180910390f35b610d6f613b1d565b6040518080602001828103825283818151815260200191508051906020019060200280838360005b83811015610db2578082015181840152602081019050610d97565b505050509050019250505060405180910390f35b610fda600480360360a0811015610ddc57600080fd5b81019080803573ffffffffffffffffffffffffffffffffffffffff169060200190929190803560ff16906020019092919080359060200190640100000000811115610e2657600080fd5b820183602082011115610e3857600080fd5b80359060200191846001830284011164010000000083111715610e5a57600080fd5b91908080601f016020809104026020016040519081016040528093929190818152602001838380828437600081840152601f19601f82011690508083019250505050505050919291929080359060200190640100000000811115610ebd57600080fd5b820183602082011115610ecf57600080fd5b80359060200191846001830284011164010000000083111715610ef157600080fd5b91908080601f016020809104026020016040519081016040528093929190818152602001838380828437600081840152601f19601f82011690508083019250505050505050919291929080359060200190640100000000811115610f5457600080fd5b820183602082011115610f6657600080fd5b80359060200191846001830284011164010000000083111715610f8857600080fd5b91908080601f016020809104026020016040519081016040528093929190818152602001838380828437600081840152601f19601f820116905080830192505050505050509192919290505050613bd3565b005b6111e360048036036080811015610ff257600080fd5b81019080803573ffffffffffffffffffffffffffffffffffffffff1690602001909291908035906020019064010000000081111561102f57600080fd5b82018360208201111561104157600080fd5b8035906020019184600183028401116401000000008311171561106357600080fd5b91908080601f016020809104026020016040519081016040528093929190818152602001838380828437600081840152601f19601f820116905080830192505050505050509192919290803590602001906401000000008111156110c657600080fd5b8201836020820111156110d857600080fd5b803590602001918460018302840111640100000000831117156110fa57600080fd5b91908080601f016020809104026020016040519081016040528093929190818152602001838380828437600081840152601f19601f8201169050808301925050505050505091929192908035906020019064010000000081111561115d57600080fd5b82018360208201111561116f57600080fd5b8035906020019184600183028401116401000000008311171561119157600080fd5b91908080601f016020809104026020016040519081016040528093929190818152602001838380828437600081840152601f19601f820116905080830192505050505050509192919290505050613f77565b005b6113f9600480360360a08110156111fb57600080fd5b81019080803560ff1690602001909291908035906020019064010000000081111561122557600080fd5b82018360208201111561123757600080fd5b8035906020019184600183028401116401000000008311171561125957600080fd5b91908080601f016020809104026020016040519081016040528093929190818152602001838380828437600081840152601f19601f820116905080830192505050505050509192919290803573ffffffffffffffffffffffffffffffffffffffff169060200190929190803590602001906401000000008111156112dc57600080fd5b8201836020820111156112ee57600080fd5b8035906020019184600183028401116401000000008311171561131057600080fd5b91908080601f016020809104026020016040519081016040528093929190818152602001838380828437600081840152601f19601f8201169050808301925050505050505091929192908035906020019064010000000081111561137357600080fd5b82018360208201111561138557600080fd5b803590602001918460018302840111640100000000831117156113a757600080fd5b91908080601f016020809104026020016040519081016040528093929190818152602001838380828437600081840152601f19601f82011690508083019250505050505050919291929050505061419b565b005b6114036144bd565b6040518082815260200191505060405180910390f35b61145b6004803603602081101561142f57600080fd5b81019080803573ffffffffffffffffffffffffffffffffffffffff1690602001909291905050506144c3565b6040518080602001828103825283818151815260200191508051906020019060200280838360005b8381101561149e578082015181840152602081019050611483565b505050509050019250505060405180910390f35b6114f4600480360360208110156114c857600080fd5b81019080803573ffffffffffffffffffffffffffffffffffffffff16906020019092919050505061455c565b604051808215151515815260200191505060405180910390f35b61151661457c565b6040518082815260200191505060405180910390f35b611534614582565b604051808273ffffffffffffffffffffffffffffffffffffffff1673ffffffffffffffffffffffffffffffffffffffff16815260200191505060405180910390f35b6115b86004803603602081101561158c57600080fd5b81019080803573ffffffffffffffffffffffffffffffffffffffff1690602001909291905050506145a8565b604051808573ffffffffffffffffffffffffffffffffffffffff1673ffffffffffffffffffffffffffffffffffffffff168152602001806020018060200180602001848103845287818151815260200191508051906020019080838360005b83811015611632578082015181840152602081019050611617565b50505050905090810190601f16801561165f5780820380516001836020036101000a031916815260200191505b50848103835286818151815260200191508051906020019080838360005b8381101561169857808201518184015260208101905061167d565b50505050905090810190601f1680156116c55780820380516001836020036101000a031916815260200191505b50848103825285818151815260200191508051906020019080838360005b838110156116fe5780820151818401526020810190506116e3565b50505050905090810190601f16801561172b5780820380516001836020036101000a031916815260200191505b5097505050505050505060405180910390f35b61176a6004803603602081101561175457600080fd5b81019080803590602001909291905050506147c0565b604051808981526020018873ffffffffffffffffffffffffffffffffffffffff1673ffffffffffffffffffffffffffffffffffffffff1681526020018781526020018660038111156117b857fe5b60ff168152602001806020018573ffffffffffffffffffffffffffffffffffffffff1673ffffffffffffffffffffffffffffffffffffffff1681526020018060200180602001848103845288818151815260200191508051906020019080838360005b8381101561183657808201518184015260208101905061181b565b50505050905090810190601f1680156118635780820380516001836020036101000a031916815260200191505b50848103835286818151815260200191508051906020019080838360005b8381101561189c578082015181840152602081019050611881565b50505050905090810190601f1680156118c95780820380516001836020036101000a031916815260200191505b50848103825285818151815260200191508051906020019080838360005b838110156119025780820151818401526020810190506118e7565b50505050905090810190601f16801561192f5780820380516001836020036101000a031916815260200191505b509b50505050505050505050505060405180910390f35b6119886004803603602081101561195c57600080fd5b81019080803573ffffffffffffffffffffffffffffffffffffffff169060200190929190505050614a1d565b604051808215151515815260200191505060405180910390f35b6119e4600480360360208110156119b857600080fd5b81019080803573ffffffffffffffffffffffffffffffffffffffff169060200190929190505050614a3d565b604051808573ffffffffffffffffffffffffffffffffffffffff1673ffffffffffffffffffffffffffffffffffffffff168152602001806020018060200180602001848103845287818151815260200191508051906020019080838360005b83811015611a5e578082015181840152602081019050611a43565b50505050905090810190601f168015611a8b5780820380516001836020036101000a031916815260200191505b50848103835286818151815260200191508051906020019080838360005b83811015611ac4578082015181840152602081019050611aa9565b50505050905090810190601f168015611af15780820380516001836020036101000a031916815260200191505b50848103825285818151815260200191508051906020019080838360005b83811015611b2a578082015181840152602081019050611b0f565b50505050905090810190601f168015611b575780820380516001836020036101000a031916815260200191505b5097505050505050505060405180910390f35b611b9660048036036020811015611b8057600080fd5b8101908080359060200190929190505050614c55565b604051808681526020018573ffffffffffffffffffffffffffffffffffffffff1673ffffffffffffffffffffffffffffffffffffffff168152602001806020018060200180602001848103845287818151815260200191508051906020019080838360005b83811015611c16578082015181840152602081019050611bfb565b50505050905090810190601f168015611c435780820380516001836020036101000a031916815260200191505b50848103835286818151815260200191508051906020019080838360005b83811015611c7c578082015181840152602081019050611c61565b50505050905090810190601f168015611ca95780820380516001836020036101000a031916815260200191505b50848103825285818151815260200191508051906020019080838360005b83811015611ce2578082015181840152602081019050611cc7565b50505050905090810190601f168015611d0f5780820380516001836020036101000a031916815260200191505b509850505050505050505060405180910390f35b611d6560048036036020811015611d3957600080fd5b81019080803573ffffffffffffffffffffffffffffffffffffffff169060200190929190505050614e73565b604051808773ffffffffffffffffffffffffffffffffffffffff1673ffffffffffffffffffffffffffffffffffffffff1681526020018060200180602001866002811115611daf57fe5b60ff168152602001856005811115611dc357fe5b60ff16815260200180602001848103845289818151815260200191508051906020019080838360005b83811015611e07578082015181840152602081019050611dec565b50505050905090810190601f168015611e345780820380516001836020036101000a031916815260200191505b50848103835288818151815260200191508051906020019080838360005b83811015611e6d578082015181840152602081019050611e52565b50505050905090810190601f168015611e9a5780820380516001836020036101000a031916815260200191505b50848103825285818151815260200191508051906020019080838360005b83811015611ed3578082015181840152602081019050611eb8565b50505050905090810190601f168015611f005780820380516001836020036101000a031916815260200191505b50995050505050505050505060405180910390f35b611f5760048036036020811015611f2b57600080fd5b81019080803573ffffffffffffffffffffffffffffffffffffffff1690602001909291905050506150b1565b604051808215151515815260200191505060405180910390f35b611f9d60048036036020811015611f8757600080fd5b81019080803590602001909291905050506150d1565b604051808981526020018873ffffffffffffffffffffffffffffffffffffffff1673ffffffffffffffffffffffffffffffffffffffff1681526020018773ffffffffffffffffffffffffffffffffffffffff1673ffffffffffffffffffffffffffffffffffffffff16815260200186600181111561201757fe5b60ff16815260200180602001806020018060200185151515158152602001848103845288818151815260200191508051906020019080838360005b8381101561206d578082015181840152602081019050612052565b50505050905090810190601f16801561209a5780820380516001836020036101000a031916815260200191505b50848103835287818151815260200191508051906020019080838360005b838110156120d35780820151818401526020810190506120b8565b50505050905090810190601f1680156121005780820380516001836020036101000a031916815260200191505b50848103825286818151815260200191508051906020019080838360005b8381101561213957808201518184015260208101905061211e565b50505050905090810190601f1680156121665780820380516001836020036101000a031916815260200191505b509b50505050505050505050505060405180910390f35b6121bf6004803603602081101561219357600080fd5b81019080803573ffffffffffffffffffffffffffffffffffffffff16906020019092919050505061533b565b604051808215151515815260200191505060405180910390f35b6123da600480360360a08110156121ef57600080fd5b810190808035906020019064010000000081111561220c57600080fd5b82018360208201111561221e57600080fd5b8035906020019184600183028401116401000000008311171561224057600080fd5b91908080601f016020809104026020016040519081016040528093929190818152602001838380828437600081840152601f19601f820116905080830192505050505050509192919290803590602001906401000000008111156122a357600080fd5b8201836020820111156122b557600080fd5b803590602001918460018302840111640100000000831117156122d757600080fd5b91908080601f016020809104026020016040519081016040528093929190818152602001838380828437600081840152601f19601f820116905080830192505050505050509192919290803560ff169060200190929190803560ff1690602001909291908035906020019064010000000081111561235457600080fd5b82018360208201111561236657600080fd5b8035906020019184600183028401116401000000008311171561238857600080fd5b91908080601f016020809104026020016040519081016040528093929190818152602001838380828437600081840152601f19601f82011690508083019250505050505050919291929050505061535b565b005b6124cc600480360360808110156123f257600080fd5b8101908080359060200190929190803560ff1690602001909291908035906020019064010000000081111561242657600080fd5b82018360208201111561243857600080fd5b8035906020019184600183028401116401000000008311171561245a57600080fd5b91908080601f016020809104026020016040519081016040528093929190818152602001838380828437600081840152601f19601f820116905080830192505050505050509192919290803573ffffffffffffffffffffffffffffffffffffffff1690602001909291905050506155c1565b005b612510600480360360208110156124e457600080fd5b81019080803573ffffffffffffffffffffffffffffffffffffffff1690602001909291905050506156a9565b604051808573ffffffffffffffffffffffffffffffffffffffff1673ffffffffffffffffffffffffffffffffffffffff168152602001806020018060200180602001848103845287818151815260200191508051906020019080838360005b8381101561258a57808201518184015260208101905061256f565b50505050905090810190601f1680156125b75780820380516001836020036101000a031916815260200191505b50848103835286818151815260200191508051906020019080838360005b838110156125f05780820151818401526020810190506125d5565b50505050905090810190601f16801561261d5780820380516001836020036101000a031916815260200191505b50848103825285818151815260200191508051906020019080838360005b8381101561265657808201518184015260208101905061263b565b50505050905090810190601f1680156126835780820380516001836020036101000a031916815260200191505b5097505050505050505060405180910390f35b61289d600480360360808110156126ac57600080fd5b81019080803573ffffffffffffffffffffffffffffffffffffffff169060200190929190803590602001906401000000008111156126e957600080fd5b8201836020820111156126fb57600080fd5b8035906020019184600183028401116401000000008311171561271d57600080fd5b91908080601f016020809104026020016040519081016040528093929190818152602001838380828437600081840152601f19601f8201169050808301925050505050505091929192908035906020019064010000000081111561278057600080fd5b82018360208201111561279257600080fd5b803590602001918460018302840111640100000000831117156127b457600080fd5b91908080601f016020809104026020016040519081016040528093929190818152602001838380828437600081840152601f19601f8201169050808301925050505050505091929192908035906020019064010000000081111561281757600080fd5b82018360208201111561282957600080fd5b8035906020019184600183028401116401000000008311171561284b57600080fd5b91908080601f016020809104026020016040519081016040528093929190818152602001838380828437600081840152601f19601f8201169050808301925050505050505091929192905050506158c1565b005b6128e1600480360360208110156128b557600080fd5b81019080803573ffffffffffffffffffffffffffffffffffffffff169060200190929190505050615ae5565b604051808215151515815260200191505060405180910390f35b612b026004803603608081101561291157600080fd5b81019080803573ffffffffffffffffffffffffffffffffffffffff1690602001909291908035906020019064010000000081111561294e57600080fd5b82018360208201111561296057600080fd5b8035906020019184600183028401116401000000008311171561298257600080fd5b91908080601f016020809104026020016040519081016040528093929190818152602001838380828437600081840152601f19601f820116905080830192505050505050509192919290803590602001906401000000008111156129e557600080fd5b8201836020820111156129f757600080fd5b80359060200191846001830284011164010000000083111715612a1957600080fd5b91908080601f016020809104026020016040519081016040528093929190818152602001838380828437600081840152601f19601f82011690508083019250505050505050919291929080359060200190640100000000811115612a7c57600080fd5b820183602082011115612a8e57600080fd5b80359060200191846001830284011164010000000083111715612ab057600080fd5b91908080601f016020809104026020016040519081016040528093929190818152602001838380828437600081840152601f19601f820116905080830192505050505050509192919290505050615b05565b005b612b3060048036036020811015612b1a57600080fd5b8101908080359060200190929190505050615ea6565b604051808981526020018873ffffffffffffffffffffffffffffffffffffffff1673ffffffffffffffffffffffffffffffffffffffff168152602001878152602001866003811115612b7e57fe5b60ff168152602001806020018573ffffffffffffffffffffffffffffffffffffffff1673ffffffffffffffffffffffffffffffffffffffff1681526020018060200180602001848103845288818151815260200191508051906020019080838360005b83811015612bfc578082015181840152602081019050612be1565b50505050905090810190601f168015612c295780820380516001836020036101000a031916815260200191505b50848103835286818151815260200191508051906020019080838360005b83811015612c62578082015181840152602081019050612c47565b50505050905090810190601f168015612c8f5780820380516001836020036101000a031916815260200191505b50848103825285818151815260200191508051906020019080838360005b83811015612cc8578082015181840152602081019050612cad565b50505050905090810190601f168015612cf55780820380516001836020036101000a031916815260200191505b509b50505050505050505050505060405180910390f35b60135481565b60105481565b60115481565b600f5481565b600c6020528060005260406000206000915054906101000a900460ff1681565b6000803373ffffffffffffffffffffffffffffffffffffffff1673ffffffffffffffffffffffffffffffffffffffff16815260200190815260200160002060000160009054906101000a900473ffffffffffffffffffffffffffffffffffffffff1673ffffffffffffffffffffffffffffffffffffffff163373ffffffffffffffffffffffffffffffffffffffff1614612ddd57600080fd5b60011515600b60008573ffffffffffffffffffffffffffffffffffffffff1673ffffffffffffffffffffffffffffffffffffffff16815260200190815260200160002060009054906101000a900460ff16151514612e3a57600080fd5b60106000815480929190600101919050555060405180610100016040528060105481526020013373ffffffffffffffffffffffffffffffffffffffff168152602001428152602001866003811115612e8e57fe5b81526020018581526020018473ffffffffffffffffffffffffffffffffffffffff168152602001838152602001828152506007600060105481526020019081526020016000206000820151816000015560208201518160010160006101000a81548173ffffffffffffffffffffffffffffffffffffffff021916908373ffffffffffffffffffffffffffffffffffffffff1602179055506040820151816002015560608201518160030160006101000a81548160ff02191690836003811115612f5357fe5b02179055506080820151816004019080519060200190612f74929190616103565b5060a08201518160050160006101000a81548173ffffffffffffffffffffffffffffffffffffffff021916908373ffffffffffffffffffffffffffffffffffffffff16021790555060c0820151816006019080519060200190612fd8929190616103565b5060e0820151816007019080519060200190612ff5929190616103565b509050506010547f4eb2a69ce05e38f13942672a421209556b47333b186c9695ad66752c4fb97b1833604051808273ffffffffffffffffffffffffffffffffffffffff1673ffffffffffffffffffffffffffffffffffffffff16815260200191505060405180910390a25050505050565b6000841161307357600080fd5b600f5484111561308257600080fd5b826006600086815260200190815260200160002060030160006101000a81548160ff021916908360038111156130b457fe5b0217905550816006600086815260200190815260200160002060040190805190602001906130e3929190616183565b50837fc79344e6fbf66079c5856e3a758f227cfb36c6c09f5d6d40de5e3c8aeeb95c7533604051808273ffffffffffffffffffffffffffffffffffffffff1673ffffffffffffffffffffffffffffffffffffffff16815260200191505060405180910390a250505050565b601560009054906101000a900473ffffffffffffffffffffffffffffffffffffffff1673ffffffffffffffffffffffffffffffffffffffff163373ffffffffffffffffffffffffffffffffffffffff16146131a857600080fd5b600860008573ffffffffffffffffffffffffffffffffffffffff1673ffffffffffffffffffffffffffffffffffffffff16815260200190815260200160002060009054906101000a900460ff16156131ff57600080fd5b6000600860008673ffffffffffffffffffffffffffffffffffffffff1673ffffffffffffffffffffffffffffffffffffffff16815260200190815260200160002060006101000a81548160ff0219169083151502179055506012600081548092919060010191905055506014600081548092919060010191905055506001600c60008673ffffffffffffffffffffffffffffffffffffffff1673ffffffffffffffffffffffffffffffffffffffff16815260200190815260200160002060006101000a81548160ff02191690831515021790555060405180608001604052808573ffffffffffffffffffffffffffffffffffffffff16815260200184815260200183815260200182815250600360008673ffffffffffffffffffffffffffffffffffffffff1673ffffffffffffffffffffffffffffffffffffffff16815260200190815260200160002060008201518160000160006101000a81548173ffffffffffffffffffffffffffffffffffffffff021916908373ffffffffffffffffffffffffffffffffffffffff16021790555060208201518160010190805190602001906133ac929190616103565b5060408201518160020190805190602001906133c9929190616103565b5060608201518160030190805190602001906133e6929190616103565b509050506040518060a0016040528060145481526020018573ffffffffffffffffffffffffffffffffffffffff168152602001848152602001838152602001828152506004600060145481526020019081526020016000206000820151816000015560208201518160010160006101000a81548173ffffffffffffffffffffffffffffffffffffffff021916908373ffffffffffffffffffffffffffffffffffffffff16021790555060408201518160020190805190602001906134ab929190616103565b5060608201518160030190805190602001906134c8929190616103565b5060808201518160040190805190602001906134e5929190616103565b5090505050505050565b601560009054906101000a900473ffffffffffffffffffffffffffffffffffffffff1673ffffffffffffffffffffffffffffffffffffffff163373ffffffffffffffffffffffffffffffffffffffff161461354957600080fd5b3373ffffffffffffffffffffffffffffffffffffffff16ff5b6000803373ffffffffffffffffffffffffffffffffffffffff1673ffffffffffffffffffffffffffffffffffffffff16815260200190815260200160002060000160009054906101000a900473ffffffffffffffffffffffffffffffffffffffff1673ffffffffffffffffffffffffffffffffffffffff163373ffffffffffffffffffffffffffffffffffffffff1614156135fc57600080fd5b6040518060e001604052803373ffffffffffffffffffffffffffffffffffffffff16815260200187815260200186815260200185600281111561363b57fe5b815260200184600581111561364c57fe5b8152602001838152602001828152506000803373ffffffffffffffffffffffffffffffffffffffff1673ffffffffffffffffffffffffffffffffffffffff16815260200190815260200160002060008201518160000160006101000a81548173ffffffffffffffffffffffffffffffffffffffff021916908373ffffffffffffffffffffffffffffffffffffffff16021790555060208201518160010190805190602001906136fc929190616103565b506040820151816002019080519060200190613719929190616103565b5060608201518160030160006101000a81548160ff0219169083600281111561373e57fe5b021790555060808201518160030160016101000a81548160ff0219169083600581111561376757fe5b021790555060a0820151816004019080519060200190613788929190616103565b5060c08201518160050190805190602001906137a5929190616203565b50905050505050505050565b60168054600181600116156101000203166002900480601f0160208091040260200160405190810160405280929190818152602001828054600181600116156101000203166002900480156138475780601f1061381c57610100808354040283529160200191613847565b820191906000526020600020905b81548152906001019060200180831161382a57829003601f168201915b505050505081565b60026020528060005260406000206000915090508060000160009054906101000a900473ffffffffffffffffffffffffffffffffffffffff1690806001018054600181600116156101000203166002900480601f0160208091040260200160405190810160405280929190818152602001828054600181600116156101000203166002900480156139215780601f106138f657610100808354040283529160200191613921565b820191906000526020600020905b81548152906001019060200180831161390457829003601f168201915b505050505090806002018054600181600116156101000203166002900480601f0160208091040260200160405190810160405280929190818152602001828054600181600116156101000203166002900480156139bf5780601f10613994576101008083540402835291602001916139bf565b820191906000526020600020905b8154815290600101906020018083116139a257829003601f168201915b505050505090806003018054600181600116156101000203166002900480601f016020809104026020016040519081016040528092919081815260200182805460018160011615610100020316600290048015613a5d5780601f10613a3257610100808354040283529160200191613a5d565b820191906000526020600020905b815481529060010190602001808311613a4057829003601f168201915b5050505050905084565b606080600080600190505b6010548111613b14573373ffffffffffffffffffffffffffffffffffffffff166007600083815260200190815260200160002060010160009054906101000a900473ffffffffffffffffffffffffffffffffffffffff1673ffffffffffffffffffffffffffffffffffffffff161415613b075780838381518110613af257fe5b60200260200101818152505081806001019250505b8080600101915050613a72565b50819250505090565b606080600080600190505b600f548111613bca573373ffffffffffffffffffffffffffffffffffffffff166006600083815260200190815260200160002060010160009054906101000a900473ffffffffffffffffffffffffffffffffffffffff1673ffffffffffffffffffffffffffffffffffffffff161415613bbd5780838381518110613ba857fe5b60200260200101818152505081806001019250505b8080600101915050613b28565b50819250505090565b600180811115613bdf57fe5b846001811115613beb57fe5b1415613c9057600160003373ffffffffffffffffffffffffffffffffffffffff1673ffffffffffffffffffffffffffffffffffffffff16815260200190815260200160002060000160009054906101000a900473ffffffffffffffffffffffffffffffffffffffff1673ffffffffffffffffffffffffffffffffffffffff163373ffffffffffffffffffffffffffffffffffffffff1614613c8b57600080fd5b613d2b565b600260003373ffffffffffffffffffffffffffffffffffffffff1673ffffffffffffffffffffffffffffffffffffffff16815260200190815260200160002060000160009054906101000a900473ffffffffffffffffffffffffffffffffffffffff1673ffffffffffffffffffffffffffffffffffffffff163373ffffffffffffffffffffffffffffffffffffffff1614613d2a57600080fd5b5b60116000815480929190600101919050555060405180610100016040528060115481526020013373ffffffffffffffffffffffffffffffffffffffff1681526020018673ffffffffffffffffffffffffffffffffffffffff168152602001856001811115613d9557fe5b815260200184815260200183815260200182815260200160011515815250600e600060115481526020019081526020016000206000820151816000015560208201518160010160006101000a81548173ffffffffffffffffffffffffffffffffffffffff021916908373ffffffffffffffffffffffffffffffffffffffff16021790555060408201518160020160006101000a81548173ffffffffffffffffffffffffffffffffffffffff021916908373ffffffffffffffffffffffffffffffffffffffff16021790555060608201518160020160146101000a81548160ff02191690836001811115613e8457fe5b02179055506080820151816003019080519060200190613ea5929190616103565b5060a0820151816004019080519060200190613ec2929190616103565b5060c0820151816005019080519060200190613edf929190616103565b5060e08201518160060160006101000a81548160ff0219169083151502179055509050506000808673ffffffffffffffffffffffffffffffffffffffff1673ffffffffffffffffffffffffffffffffffffffff16815260200190815260200160002060050160115490806001815401808255809150509060018203906000526020600020016000909192909190915055505050505050565b600c60008573ffffffffffffffffffffffffffffffffffffffff1673ffffffffffffffffffffffffffffffffffffffff16815260200190815260200160002060009054906101000a900460ff1615613fce57600080fd5b6000600c60008673ffffffffffffffffffffffffffffffffffffffff1673ffffffffffffffffffffffffffffffffffffffff16815260200190815260200160002060006101000a81548160ff0219169083151502179055506001600960008673ffffffffffffffffffffffffffffffffffffffff1673ffffffffffffffffffffffffffffffffffffffff16815260200190815260200160002060006101000a81548160ff02191690831515021790555060405180608001604052808573ffffffffffffffffffffffffffffffffffffffff16815260200184815260200183815260200182815250600160008673ffffffffffffffffffffffffffffffffffffffff1673ffffffffffffffffffffffffffffffffffffffff16815260200190815260200160002060008201518160000160006101000a81548173ffffffffffffffffffffffffffffffffffffffff021916908373ffffffffffffffffffffffffffffffffffffffff1602179055506020820151816001019080519060200190614157929190616103565b506040820151816002019080519060200190614174929190616103565b506060820151816003019080519060200190614191929190616103565b5090505050505050565b6000803373ffffffffffffffffffffffffffffffffffffffff1673ffffffffffffffffffffffffffffffffffffffff16815260200190815260200160002060000160009054906101000a900473ffffffffffffffffffffffffffffffffffffffff1673ffffffffffffffffffffffffffffffffffffffff163373ffffffffffffffffffffffffffffffffffffffff161461423457600080fd5b60011515600960008573ffffffffffffffffffffffffffffffffffffffff1673ffffffffffffffffffffffffffffffffffffffff16815260200190815260200160002060009054906101000a900460ff1615151461429157600080fd5b600f60008154809291906001019190505550604051806101000160405280600f5481526020013373ffffffffffffffffffffffffffffffffffffffff1681526020014281526020018660038111156142e557fe5b81526020018581526020018473ffffffffffffffffffffffffffffffffffffffff1681526020018381526020018281525060066000600f5481526020019081526020016000206000820151816000015560208201518160010160006101000a81548173ffffffffffffffffffffffffffffffffffffffff021916908373ffffffffffffffffffffffffffffffffffffffff1602179055506040820151816002015560608201518160030160006101000a81548160ff021916908360038111156143aa57fe5b021790555060808201518160040190805190602001906143cb929190616103565b5060a08201518160050160006101000a81548173ffffffffffffffffffffffffffffffffffffffff021916908373ffffffffffffffffffffffffffffffffffffffff16021790555060c082015181600601908051906020019061442f929190616103565b5060e082015181600701908051906020019061444c929190616103565b50905050600f547fbcda4dd827dd534d768ce30ec43965dac670e1b4462e0ad17fc0d9e8ce4d2e2933604051808273ffffffffffffffffffffffffffffffffffffffff1673ffffffffffffffffffffffffffffffffffffffff16815260200191505060405180910390a25050505050565b60145481565b60606000808373ffffffffffffffffffffffffffffffffffffffff1673ffffffffffffffffffffffffffffffffffffffff16815260200190815260200160002060050180548060200260200160405190810160405280929190818152602001828054801561455057602002820191906000526020600020905b81548152602001906001019080831161453c575b50505050509050919050565b600a6020528060005260406000206000915054906101000a900460ff1681565b60125481565b601560009054906101000a900473ffffffffffffffffffffffffffffffffffffffff1681565b60056020528060005260406000206000915090508060000160009054906101000a900473ffffffffffffffffffffffffffffffffffffffff1690806001018054600181600116156101000203166002900480601f01602080910402602001604051908101604052809291908181526020018280546001816001161561010002031660029004801561467a5780601f1061464f5761010080835404028352916020019161467a565b820191906000526020600020905b81548152906001019060200180831161465d57829003601f168201915b505050505090806002018054600181600116156101000203166002900480601f0160208091040260200160405190810160405280929190818152602001828054600181600116156101000203166002900480156147185780601f106146ed57610100808354040283529160200191614718565b820191906000526020600020905b8154815290600101906020018083116146fb57829003601f168201915b505050505090806003018054600181600116156101000203166002900480601f0160208091040260200160405190810160405280929190818152602001828054600181600116156101000203166002900480156147b65780601f1061478b576101008083540402835291602001916147b6565b820191906000526020600020905b81548152906001019060200180831161479957829003601f168201915b5050505050905084565b60076020528060005260406000206000915090508060000154908060010160009054906101000a900473ffffffffffffffffffffffffffffffffffffffff16908060020154908060030160009054906101000a900460ff1690806004018054600181600116156101000203166002900480601f0160208091040260200160405190810160405280929190818152602001828054600181600116156101000203166002900480156148b15780601f10614886576101008083540402835291602001916148b1565b820191906000526020600020905b81548152906001019060200180831161489457829003601f168201915b5050505050908060050160009054906101000a900473ffffffffffffffffffffffffffffffffffffffff1690806006018054600181600116156101000203166002900480601f0160208091040260200160405190810160405280929190818152602001828054600181600116156101000203166002900480156149755780601f1061494a57610100808354040283529160200191614975565b820191906000526020600020905b81548152906001019060200180831161495857829003601f168201915b505050505090806007018054600181600116156101000203166002900480601f016020809104026020016040519081016040528092919081815260200182805460018160011615610100020316600290048015614a135780601f106149e857610100808354040283529160200191614a13565b820191906000526020600020905b8154815290600101906020018083116149f657829003601f168201915b5050505050905088565b600d6020528060005260406000206000915054906101000a900460ff1681565b60036020528060005260406000206000915090508060000160009054906101000a900473ffffffffffffffffffffffffffffffffffffffff1690806001018054600181600116156101000203166002900480601f016020809104026020016040519081016040528092919081815260200182805460018160011615610100020316600290048015614b0f5780601f10614ae457610100808354040283529160200191614b0f565b820191906000526020600020905b815481529060010190602001808311614af257829003601f168201915b505050505090806002018054600181600116156101000203166002900480601f016020809104026020016040519081016040528092919081815260200182805460018160011615610100020316600290048015614bad5780601f10614b8257610100808354040283529160200191614bad565b820191906000526020600020905b815481529060010190602001808311614b9057829003601f168201915b505050505090806003018054600181600116156101000203166002900480601f016020809104026020016040519081016040528092919081815260200182805460018160011615610100020316600290048015614c4b5780601f10614c2057610100808354040283529160200191614c4b565b820191906000526020600020905b815481529060010190602001808311614c2e57829003601f168201915b5050505050905084565b60046020528060005260406000206000915090508060000154908060010160009054906101000a900473ffffffffffffffffffffffffffffffffffffffff1690806002018054600181600116156101000203166002900480601f016020809104026020016040519081016040528092919081815260200182805460018160011615610100020316600290048015614d2d5780601f10614d0257610100808354040283529160200191614d2d565b820191906000526020600020905b815481529060010190602001808311614d1057829003601f168201915b505050505090806003018054600181600116156101000203166002900480601f016020809104026020016040519081016040528092919081815260200182805460018160011615610100020316600290048015614dcb5780601f10614da057610100808354040283529160200191614dcb565b820191906000526020600020905b815481529060010190602001808311614dae57829003601f168201915b505050505090806004018054600181600116156101000203166002900480601f016020809104026020016040519081016040528092919081815260200182805460018160011615610100020316600290048015614e695780601f10614e3e57610100808354040283529160200191614e69565b820191906000526020600020905b815481529060010190602001808311614e4c57829003601f168201915b5050505050905085565b60006020528060005260406000206000915090508060000160009054906101000a900473ffffffffffffffffffffffffffffffffffffffff1690806001018054600181600116156101000203166002900480601f016020809104026020016040519081016040528092919081815260200182805460018160011615610100020316600290048015614f455780601f10614f1a57610100808354040283529160200191614f45565b820191906000526020600020905b815481529060010190602001808311614f2857829003601f168201915b505050505090806002018054600181600116156101000203166002900480601f016020809104026020016040519081016040528092919081815260200182805460018160011615610100020316600290048015614fe35780601f10614fb857610100808354040283529160200191614fe3565b820191906000526020600020905b815481529060010190602001808311614fc657829003601f168201915b5050505050908060030160009054906101000a900460ff16908060030160019054906101000a900460ff1690806004018054600181600116156101000203166002900480601f0160208091040260200160405190810160405280929190818152602001828054600181600116156101000203166002900480156150a75780601f1061507c576101008083540402835291602001916150a7565b820191906000526020600020905b81548152906001019060200180831161508a57829003601f168201915b5050505050905086565b600b6020528060005260406000206000915054906101000a900460ff1681565b600e6020528060005260406000206000915090508060000154908060010160009054906101000a900473ffffffffffffffffffffffffffffffffffffffff16908060020160009054906101000a900473ffffffffffffffffffffffffffffffffffffffff16908060020160149054906101000a900460ff1690806003018054600181600116156101000203166002900480601f0160208091040260200160405190810160405280929190818152602001828054600181600116156101000203166002900480156151e25780601f106151b7576101008083540402835291602001916151e2565b820191906000526020600020905b8154815290600101906020018083116151c557829003601f168201915b505050505090806004018054600181600116156101000203166002900480601f0160208091040260200160405190810160405280929190818152602001828054600181600116156101000203166002900480156152805780601f1061525557610100808354040283529160200191615280565b820191906000526020600020905b81548152906001019060200180831161526357829003601f168201915b505050505090806005018054600181600116156101000203166002900480601f01602080910402602001604051908101604052809291908181526020018280546001816001161561010002031660029004801561531e5780601f106152f35761010080835404028352916020019161531e565b820191906000526020600020905b81548152906001019060200180831161530157829003601f168201915b5050505050908060060160009054906101000a900460ff16905088565b60096020528060005260406000206000915054906101000a900460ff1681565b6000803373ffffffffffffffffffffffffffffffffffffffff1673ffffffffffffffffffffffffffffffffffffffff16815260200190815260200160002060000160009054906101000a900473ffffffffffffffffffffffffffffffffffffffff1673ffffffffffffffffffffffffffffffffffffffff163373ffffffffffffffffffffffffffffffffffffffff16146153f457600080fd5b846000803373ffffffffffffffffffffffffffffffffffffffff1673ffffffffffffffffffffffffffffffffffffffff1681526020019081526020016000206001019080519060200190615449929190616183565b50836000803373ffffffffffffffffffffffffffffffffffffffff1673ffffffffffffffffffffffffffffffffffffffff168152602001908152602001600020600201908051906020019061549f929190616183565b50826000803373ffffffffffffffffffffffffffffffffffffffff1673ffffffffffffffffffffffffffffffffffffffff16815260200190815260200160002060030160006101000a81548160ff021916908360028111156154fd57fe5b0217905550816000803373ffffffffffffffffffffffffffffffffffffffff1673ffffffffffffffffffffffffffffffffffffffff16815260200190815260200160002060030160016101000a81548160ff0219169083600581111561555f57fe5b0217905550806000803373ffffffffffffffffffffffffffffffffffffffff1673ffffffffffffffffffffffffffffffffffffffff16815260200190815260200160002060040190805190602001906155b9929190616183565b505050505050565b600084116155ce57600080fd5b6010548411156155dd57600080fd5b826007600086815260200190815260200160002060030160006101000a81548160ff0219169083600381111561560f57fe5b02179055508160076000868152602001908152602001600020600401908051906020019061563e929190616183565b50837f11254402aeb377e7c793689e7b41bf5dc30563afcc74fe3bd9c37d7eb8864d2a33604051808273ffffffffffffffffffffffffffffffffffffffff1673ffffffffffffffffffffffffffffffffffffffff16815260200191505060405180910390a250505050565b60016020528060005260406000206000915090508060000160009054906101000a900473ffffffffffffffffffffffffffffffffffffffff1690806001018054600181600116156101000203166002900480601f01602080910402602001604051908101604052809291908181526020018280546001816001161561010002031660029004801561577b5780601f106157505761010080835404028352916020019161577b565b820191906000526020600020905b81548152906001019060200180831161575e57829003601f168201915b505050505090806002018054600181600116156101000203166002900480601f0160208091040260200160405190810160405280929190818152602001828054600181600116156101000203166002900480156158195780601f106157ee57610100808354040283529160200191615819565b820191906000526020600020905b8154815290600101906020018083116157fc57829003601f168201915b505050505090806003018054600181600116156101000203166002900480601f0160208091040260200160405190810160405280929190818152602001828054600181600116156101000203166002900480156158b75780601f1061588c576101008083540402835291602001916158b7565b820191906000526020600020905b81548152906001019060200180831161589a57829003601f168201915b5050505050905084565b600d60008573ffffffffffffffffffffffffffffffffffffffff1673ffffffffffffffffffffffffffffffffffffffff16815260200190815260200160002060009054906101000a900460ff161561591857600080fd5b6000600d60008673ffffffffffffffffffffffffffffffffffffffff1673ffffffffffffffffffffffffffffffffffffffff16815260200190815260200160002060006101000a81548160ff0219169083151502179055506001600b60008673ffffffffffffffffffffffffffffffffffffffff1673ffffffffffffffffffffffffffffffffffffffff16815260200190815260200160002060006101000a81548160ff02191690831515021790555060405180608001604052808573ffffffffffffffffffffffffffffffffffffffff16815260200184815260200183815260200182815250600260008673ffffffffffffffffffffffffffffffffffffffff1673ffffffffffffffffffffffffffffffffffffffff16815260200190815260200160002060008201518160000160006101000a81548173ffffffffffffffffffffffffffffffffffffffff021916908373ffffffffffffffffffffffffffffffffffffffff1602179055506020820151816001019080519060200190615aa1929190616103565b506040820151816002019080519060200190615abe929190616103565b506060820151816003019080519060200190615adb929190616103565b5090505050505050565b60086020528060005260406000206000915054906101000a900460ff1681565b601560009054906101000a900473ffffffffffffffffffffffffffffffffffffffff1673ffffffffffffffffffffffffffffffffffffffff163373ffffffffffffffffffffffffffffffffffffffff1614615b5f57600080fd5b600860008573ffffffffffffffffffffffffffffffffffffffff1673ffffffffffffffffffffffffffffffffffffffff16815260200190815260200160002060009054906101000a900460ff1615615bb657600080fd5b6000600860008673ffffffffffffffffffffffffffffffffffffffff1673ffffffffffffffffffffffffffffffffffffffff16815260200190815260200160002060006101000a81548160ff0219169083151502179055506013600081548092919060010191905055506014600081548092919060010191905055506001600d60008673ffffffffffffffffffffffffffffffffffffffff1673ffffffffffffffffffffffffffffffffffffffff16815260200190815260200160002060006101000a81548160ff02191690831515021790555060405180608001604052808573ffffffffffffffffffffffffffffffffffffffff16815260200184815260200183815260200182815250600560008673ffffffffffffffffffffffffffffffffffffffff1673ffffffffffffffffffffffffffffffffffffffff16815260200190815260200160002060008201518160000160006101000a81548173ffffffffffffffffffffffffffffffffffffffff021916908373ffffffffffffffffffffffffffffffffffffffff1602179055506020820151816001019080519060200190615d63929190616103565b506040820151816002019080519060200190615d80929190616103565b506060820151816003019080519060200190615d9d929190616103565b509050506040518060a0016040528060145481526020018573ffffffffffffffffffffffffffffffffffffffff168152602001848152602001838152602001828152506004600060145481526020019081526020016000206000820151816000015560208201518160010160006101000a81548173ffffffffffffffffffffffffffffffffffffffff021916908373ffffffffffffffffffffffffffffffffffffffff1602179055506040820151816002019080519060200190615e62929190616103565b506060820151816003019080519060200190615e7f929190616103565b506080820151816004019080519060200190615e9c929190616103565b5090505050505050565b60066020528060005260406000206000915090508060000154908060010160009054906101000a900473ffffffffffffffffffffffffffffffffffffffff16908060020154908060030160009054906101000a900460ff1690806004018054600181600116156101000203166002900480601f016020809104026020016040519081016040528092919081815260200182805460018160011615610100020316600290048015615f975780601f10615f6c57610100808354040283529160200191615f97565b820191906000526020600020905b815481529060010190602001808311615f7a57829003601f168201915b5050505050908060050160009054906101000a900473ffffffffffffffffffffffffffffffffffffffff1690806006018054600181600116156101000203166002900480601f01602080910402602001604051908101604052809291908181526020018280546001816001161561010002031660029004801561605b5780601f106160305761010080835404028352916020019161605b565b820191906000526020600020905b81548152906001019060200180831161603e57829003601f168201915b505050505090806007018054600181600116156101000203166002900480601f0160208091040260200160405190810160405280929190818152602001828054600181600116156101000203166002900480156160f95780601f106160ce576101008083540402835291602001916160f9565b820191906000526020600020905b8154815290600101906020018083116160dc57829003601f168201915b5050505050905088565b828054600181600116156101000203166002900490600052602060002090601f016020900481019282601f1061614457805160ff1916838001178555616172565b82800160010185558215616172579182015b82811115616171578251825591602001919060010190616156565b5b50905061617f9190616250565b5090565b828054600181600116156101000203166002900490600052602060002090601f016020900481019282601f106161c457805160ff19168380011785556161f2565b828001600101855582156161f2579182015b828111156161f15782518255916020019190600101906161d6565b5b5090506161ff9190616250565b5090565b82805482825590600052602060002090810192821561623f579160200282015b8281111561623e578251825591602001919060010190616223565b5b50905061624c9190616250565b5090565b61627291905b8082111561626e576000816000905550600101616256565b5090565b9056fea265627a7a72315820b3185e1c6f938b8de69aa71e26ca782dc1cf043b208912851d1db4a0575d58c964736f6c63430005100032",
  "source": "pragma solidity >=0.4.0 <0.7.0;\n\n\ncontract EDUContract {\n    enum SexType {MALE, FEMALE, OTHER}\n    enum MaritalType {single, married, remarried, separated, divorced, widowed}\n    enum RequestStat {CREATED, APPROVED, REJECTED, CLOSE}\n    enum StudentStat {APPLIED, PURSUING, COMPLETED}\n    enum DocSender {ORG, CLG}\n    \n// Student, College, Organization, College Admin, Organization Admin, CollegeRequest, OrganizationRequest, Document\n    struct Student {\n        address student;\n        string fullname;\n        string dob;\n        SexType sex;\n        MaritalType marital;\n        string email;\n        uint256[] document;\n    }\n\n    struct CollegeRequest {\n        uint256 index;\n        address student;\n        uint256 datetime;\n        RequestStat stat;\n        string remark;\n        address college;\n        string docpath;\n        string docdesc;\n    }\n\n    struct OrganizationRequest {\n        uint256 index;\n        address student;\n        uint256 datetime;\n        RequestStat stat;\n        string remark;\n        address organization;\n        string docpath;\n        string docdesc;\n    }\n\n    struct College {\n        address Id;\n        string collegename;\n        string clgaddress;\n        string email;\n    }\n    \n    struct AllCollege {\n            uint256 index;\n            address Id;\n            string collegename;\n            string clgaddress;\n            string email;\n    }\n    \n    struct Organization {\n        address Id;\n        string orgname;\n        string orgaddress;\n        string email;\n    }\n\n    struct Document {\n        uint256 index;\n        address institute;\n        address student;\n        DocSender sender;\n        string docname;\n        string docpath;\n        string docdesc;\n        bool isActive;\n    }\n\n    struct CollegeAdmin {\n        address Id;\n        string collegeadminname;\n        string clgadminaddress;\n        string email;\n    }\n\n    struct AllAdmin {\n        uint256 index;\n        address Id;\n        string Alladminname;\n        string Alladminaddress;\n        string email;\n    }\n\n    struct OrganizationAdmin {\n        address Id;\n        string orgadminname;\n        string orgadminaddress;\n        string email;\n    }\n\n    mapping(address => Student) public students;\n    mapping(address => College) public colleges;\n    mapping(address => Organization) public organizations;\n    mapping(address => CollegeAdmin) public collegeAdministrator;\n    mapping(uint256 => AllAdmin) public AllAdministrator;\n    mapping(address => OrganizationAdmin) public organizationAdministartor;\n    mapping(uint256 => CollegeRequest) public collegeRequests;\n    mapping(uint256 => OrganizationRequest) public organizationRequests;\n    mapping(address => bool) public administrator;\n    mapping(address => bool) public isCollege;\n    mapping(address => bool) public isStudent;\n    mapping(address => bool) public isOrganization;\n    mapping(address => bool) public isCollegeAdministartor;\n    mapping(address => bool) public isOrganizationAdministrator;\n    mapping(uint256 => Document) public documents;\n\n    uint256 public CollegeRequestIndex;\n    uint256 public OrganizationRequestIndex;\n    uint256 public DocumentIndex;\n    uint256 public CollegeAdministratorIndex;\n    uint256 public OrganizationAdministratorIndex;\n    uint256 public AdministratorIndex;\n\n    address public owner;\n\n    string public version = \"0.0.1\";\n\n    event eCollegeRequestAdd(uint256 indexed index, address sender);\n\n    event eCollegeRequestUpdate(uint256 indexed index, address sender);\n    \n    event eOrganizationRequestAdd(uint256 indexed index, address sender);\n\n    event eOrganizationRequestUpdate(uint256 indexed index, address sender);\n\n    constructor() public {\n        owner = msg.sender;\n        administrator[msg.sender] = true;\n        isOrganizationAdministrator[msg.sender] = true;\n        isCollegeAdministartor[msg.sender] = true;\n    }\n   \n \n\n    function SetCollegeAdministrator( \n        address _collegeadmin,\n        string memory _collegeadminname,\n        string memory _clgadminaddress,\n        string memory _email\n    ) public {\n        require(msg.sender == owner);\n        require(!administrator[_collegeadmin]);\n        administrator[_collegeadmin] = false;\n        CollegeAdministratorIndex++;\n        AdministratorIndex++;\n        isCollegeAdministartor[_collegeadmin] = true;\n        collegeAdministrator[_collegeadmin] = CollegeAdmin(\n            _collegeadmin,\n            _collegeadminname,\n            _clgadminaddress,\n            _email\n        );\n        AllAdministrator[AdministratorIndex] = AllAdmin(\n            AdministratorIndex,\n            _collegeadmin,\n            _collegeadminname,\n            _clgadminaddress,\n            _email\n        );\n        \n    }\n  \n\n    function SetOrganizationAdministrator( \n        address _orgadmin,\n        string memory _orgadminname,\n        string memory _orgadminaddress,\n        string memory _email\n    ) public {\n        require(msg.sender == owner);\n        require(!administrator[_orgadmin]);\n        administrator[_orgadmin] = false;\n        OrganizationAdministratorIndex++;\n        AdministratorIndex++;\n        isOrganizationAdministrator[_orgadmin] = true;\n        organizationAdministartor[_orgadmin] = OrganizationAdmin(\n            _orgadmin,\n            _orgadminname,\n            _orgadminaddress,\n            _email\n        );\n        AllAdministrator[AdministratorIndex] = AllAdmin(\n            AdministratorIndex,\n            _orgadmin,\n            _orgadminname,\n            _orgadminaddress,\n            _email\n        );\n    }    \n\n    function SetCollege( \n        address _college,\n        string memory _collegename,\n        string memory _clgaddress,\n        string memory _email\n    ) public {\n        require(!isCollegeAdministartor[_college]);\n        isCollegeAdministartor[_college] = false;\n\n        isCollege[_college] = true;\n        colleges[_college] = College(\n            _college,\n            _collegename,\n            _clgaddress,\n            _email\n        );\n    }\n\n    function SetOrganization( \n        address _organization,\n        string memory _orgname,\n        string memory _orgaddress,\n        string memory _email\n    ) public {        \n        require(!isOrganizationAdministrator[_organization]);\n        isOrganizationAdministrator[_organization] = false;\n\n        isOrganization[_organization] = true;\n        organizations[_organization] = Organization(\n            _organization,\n            _orgname,\n            _orgaddress,\n            _email\n        );\n    }\n\n    function kill() public {\n        require(msg.sender == owner);\n        selfdestruct(msg.sender);\n    }\n    \n\n    function SignupStudent(\n        string memory _fullname,\n        string memory _dob,\n        SexType _sex,\n        MaritalType _marital,\n        string memory _email,\n        uint256[] memory _document\n    ) public {\n        require(msg.sender != students[msg.sender].student);\n\n        students[msg.sender] = Student(\n            msg.sender,\n            _fullname,\n            _dob,\n            _sex,\n            _marital,\n            _email,\n            _document\n        );\n    }\n\n    function StudentUpdate(\n        string memory _fullname,\n        string memory _dob,\n        SexType _sex,\n        MaritalType _marital,\n        string memory _email\n    ) public {\n        require(msg.sender == students[msg.sender].student);\n\n        students[msg.sender].fullname = _fullname;\n        students[msg.sender].dob = _dob;\n        students[msg.sender].sex = _sex;\n        students[msg.sender].marital = _marital;\n        students[msg.sender].email = _email;\n    }\n    \n   \n\n    function CollegeRequestAdd(\n        RequestStat _stat,\n        string memory _remark,\n        address _college,\n        string memory _docpath,\n        string memory _docdesc\n    ) public {\n        require(msg.sender == students[msg.sender].student);\n        require(isCollege[_college] == true);\n        CollegeRequestIndex++;\n        collegeRequests[CollegeRequestIndex] = CollegeRequest(\n            CollegeRequestIndex,\n            msg.sender,\n            now,\n            _stat,\n            _remark,\n            _college,\n            _docpath,\n            _docdesc\n        );\n\n        emit eCollegeRequestAdd(CollegeRequestIndex, msg.sender);\n    }\n\n    function CollegeRequestUpdate(\n        uint256 _CollegeRequestIndex,\n        RequestStat _stat,\n        string memory _remark,\n        address _college\n    ) public {\n        require(_CollegeRequestIndex > 0);\n        require(_CollegeRequestIndex <= CollegeRequestIndex);\n\n        collegeRequests[_CollegeRequestIndex].stat = _stat;\n        collegeRequests[_CollegeRequestIndex].remark = _remark;\n        emit eCollegeRequestUpdate(_CollegeRequestIndex, msg.sender);\n    }\n\n    function CollegeRequestGet() public view returns (uint256[] memory) {\n        uint256[] memory results;\n        uint256 count;\n        for (uint256 i = 1; i <= CollegeRequestIndex; i++) {\n            if (collegeRequests[i].student == msg.sender) {\n                results[count] = i;\n                count++;\n            }\n        }\n        return results;\n    }\n\n    function OrganizationRequestAdd(\n        RequestStat _stat,\n        string memory _remark,\n        address _organization,\n        string memory _docpath,\n        string memory _docdesc\n    ) public {\n        require(msg.sender == students[msg.sender].student);\n        require(isOrganization[_organization] == true);\n        OrganizationRequestIndex++;\n        organizationRequests[OrganizationRequestIndex] = OrganizationRequest(\n            OrganizationRequestIndex,\n            msg.sender,\n            now,\n            _stat,\n            _remark,\n            _organization,\n            _docpath,\n            _docdesc\n        );\n\n        emit eOrganizationRequestAdd(OrganizationRequestIndex, msg.sender);\n    }\n\n    function OrganizationRequestUpdate(\n        uint256 _OrganizationRequestIndex,\n        RequestStat _stat,\n        string memory _remark,\n        address _organization\n    ) public {\n        require(_OrganizationRequestIndex > 0);\n        require(_OrganizationRequestIndex <= OrganizationRequestIndex);\n\n        organizationRequests[_OrganizationRequestIndex].stat = _stat;\n        organizationRequests[_OrganizationRequestIndex].remark = _remark;\n        emit eOrganizationRequestUpdate(_OrganizationRequestIndex, msg.sender);\n    }\n\n    function OrganizationRequestGet() public view returns (uint256[] memory) {\n        uint256[] memory results;\n        uint256 count;\n        for (uint256 i = 1; i <= OrganizationRequestIndex; i++) {\n            if (organizationRequests[i].student == msg.sender) {\n                results[count] = i;\n                count++;\n            }\n        }\n        return results;\n    }\n\n    function DocumentAdd(\n        address _student,\n        DocSender _sender,\n        string memory _docname,\n        string memory _docpath,\n        string memory _docdesc\n    ) public {\n        if(_sender == DocSender.CLG){\n            require(msg.sender == colleges[msg.sender].Id);\n        }\n        else{\n            require(msg.sender == organizations[msg.sender].Id);\n        }       \n\n        DocumentIndex++;\n        documents[DocumentIndex] = Document(\n            DocumentIndex,\n            msg.sender,\n            _student,\n            _sender,\n            _docname,\n            _docpath,\n            _docdesc,\n            true\n        );\n\n        students[_student].document.push(DocumentIndex);\n    }\n\n    function DocumentGet(address _addr)\n        public\n        view\n        returns (uint256[] memory)\n    {\n        return students[_addr].document;\n    }\n\n}\n",
  "sourcePath": "/home/falguni/Documents/devfolio/EduBlocks/contracts/EDUContract.sol",
  "compiler": {
    "name": "solc",
    "version": "0.5.16+commit.9c3226ce.Emscripten.clang"
  },
  "schemaVersion": "3.0.23",
  "updatedAt": "2021-04-10T13:12:08.877Z",
  "devdoc": {
    "methods": {}
  },
  "userdoc": {
    "methods": {}
  }
}