{
  "contractName": "EDUContract",
  "abi": [
    {
      "inputs": [],
      "payable": false,
      "stateMutability": "nonpayable",
      "type": "constructor"
    },
    {
      "constant": true,
      "inputs": [
        {
          "internalType": "address",
          "name": "",
          "type": "address"
        }
      ],
      "name": "administrator",
      "outputs": [
        {
          "internalType": "bool",
          "name": "",
          "type": "bool"
        }
      ],
      "payable": false,
      "stateMutability": "view",
      "type": "function"
    },
    {
      "constant": true,
      "inputs": [
        {
          "internalType": "address",
          "name": "",
          "type": "address"
        }
      ],
      "name": "collegeAdministrator",
      "outputs": [
        {
          "internalType": "address",
          "name": "Id",
          "type": "address"
        },
        {
          "internalType": "string",
          "name": "collegeadminname",
          "type": "string"
        },
        {
          "internalType": "string",
          "name": "clgadminaddress",
          "type": "string"
        },
        {
          "internalType": "string",
          "name": "email",
          "type": "string"
        }
      ],
      "payable": false,
      "stateMutability": "view",
      "type": "function"
    },
    {
      "constant": true,
      "inputs": [
        {
          "internalType": "uint256",
          "name": "",
          "type": "uint256"
        }
      ],
      "name": "collegeRequests",
      "outputs": [
        {
          "internalType": "uint256",
          "name": "index",
          "type": "uint256"
        },
        {
          "internalType": "address",
          "name": "student",
          "type": "address"
        },
        {
          "internalType": "uint256",
          "name": "datetime",
          "type": "uint256"
        },
        {
          "internalType": "enum EDUContract.RequestStat",
          "name": "stat",
          "type": "uint8"
        },
        {
          "internalType": "string",
          "name": "remark",
          "type": "string"
        },
        {
          "internalType": "address",
          "name": "college",
          "type": "address"
        },
        {
          "internalType": "string",
          "name": "docpath",
          "type": "string"
        }
      ],
      "payable": false,
      "stateMutability": "view",
      "type": "function"
    },
    {
      "constant": true,
      "inputs": [
        {
          "internalType": "address",
          "name": "",
          "type": "address"
        }
      ],
      "name": "colleges",
      "outputs": [
        {
          "internalType": "address",
          "name": "Id",
          "type": "address"
        },
        {
          "internalType": "string",
          "name": "collegename",
          "type": "string"
        },
        {
          "internalType": "string",
          "name": "clgaddress",
          "type": "string"
        },
        {
          "internalType": "string",
          "name": "email",
          "type": "string"
        }
      ],
      "payable": false,
      "stateMutability": "view",
      "type": "function"
    },
    {
      "constant": true,
      "inputs": [
        {
          "internalType": "uint256",
          "name": "",
          "type": "uint256"
        }
      ],
      "name": "documents",
      "outputs": [
        {
          "internalType": "uint256",
          "name": "index",
          "type": "uint256"
        },
        {
          "internalType": "address",
          "name": "institute",
          "type": "address"
        },
        {
          "internalType": "address",
          "name": "student",
          "type": "address"
        },
        {
          "internalType": "enum EDUContract.DocSender",
          "name": "sender",
          "type": "uint8"
        },
        {
          "internalType": "string",
          "name": "docname",
          "type": "string"
        },
        {
          "internalType": "string",
          "name": "docpath",
          "type": "string"
        },
        {
          "internalType": "string",
          "name": "docdesc",
          "type": "string"
        },
        {
          "internalType": "bool",
          "name": "isActive",
          "type": "bool"
        }
      ],
      "payable": false,
      "stateMutability": "view",
      "type": "function"
    },
    {
      "constant": true,
      "inputs": [
        {
          "internalType": "address",
          "name": "",
          "type": "address"
        }
      ],
      "name": "isCollege",
      "outputs": [
        {
          "internalType": "bool",
          "name": "",
          "type": "bool"
        }
      ],
      "payable": false,
      "stateMutability": "view",
      "type": "function"
    },
    {
      "constant": true,
      "inputs": [
        {
          "internalType": "address",
          "name": "",
          "type": "address"
        }
      ],
      "name": "isCollegeAdministartor",
      "outputs": [
        {
          "internalType": "bool",
          "name": "",
          "type": "bool"
        }
      ],
      "payable": false,
      "stateMutability": "view",
      "type": "function"
    },
    {
      "constant": true,
      "inputs": [
        {
          "internalType": "address",
          "name": "",
          "type": "address"
        }
      ],
      "name": "isOrganization",
      "outputs": [
        {
          "internalType": "bool",
          "name": "",
          "type": "bool"
        }
      ],
      "payable": false,
      "stateMutability": "view",
      "type": "function"
    },
    {
      "constant": true,
      "inputs": [
        {
          "internalType": "address",
          "name": "",
          "type": "address"
        }
      ],
      "name": "isOrganizationAdministrator",
      "outputs": [
        {
          "internalType": "bool",
          "name": "",
          "type": "bool"
        }
      ],
      "payable": false,
      "stateMutability": "view",
      "type": "function"
    },
    {
      "constant": true,
      "inputs": [
        {
          "internalType": "address",
          "name": "",
          "type": "address"
        }
      ],
      "name": "isStudent",
      "outputs": [
        {
          "internalType": "bool",
          "name": "",
          "type": "bool"
        }
      ],
      "payable": false,
      "stateMutability": "view",
      "type": "function"
    },
    {
      "constant": true,
      "inputs": [
        {
          "internalType": "address",
          "name": "",
          "type": "address"
        }
      ],
      "name": "organizationAdministartor",
      "outputs": [
        {
          "internalType": "address",
          "name": "Id",
          "type": "address"
        },
        {
          "internalType": "string",
          "name": "orgadminname",
          "type": "string"
        },
        {
          "internalType": "string",
          "name": "orgadminaddress",
          "type": "string"
        },
        {
          "internalType": "string",
          "name": "email",
          "type": "string"
        }
      ],
      "payable": false,
      "stateMutability": "view",
      "type": "function"
    },
    {
      "constant": true,
      "inputs": [
        {
          "internalType": "uint256",
          "name": "",
          "type": "uint256"
        }
      ],
      "name": "organizationRequests",
      "outputs": [
        {
          "internalType": "uint256",
          "name": "index",
          "type": "uint256"
        },
        {
          "internalType": "address",
          "name": "student",
          "type": "address"
        },
        {
          "internalType": "uint256",
          "name": "datetime",
          "type": "uint256"
        },
        {
          "internalType": "enum EDUContract.RequestStat",
          "name": "stat",
          "type": "uint8"
        },
        {
          "internalType": "string",
          "name": "remark",
          "type": "string"
        },
        {
          "internalType": "address",
          "name": "organization",
          "type": "address"
        },
        {
          "internalType": "string",
          "name": "docpath",
          "type": "string"
        }
      ],
      "payable": false,
      "stateMutability": "view",
      "type": "function"
    },
    {
      "constant": true,
      "inputs": [
        {
          "internalType": "address",
          "name": "",
          "type": "address"
        }
      ],
      "name": "organizations",
      "outputs": [
        {
          "internalType": "address",
          "name": "Id",
          "type": "address"
        },
        {
          "internalType": "string",
          "name": "orgname",
          "type": "string"
        },
        {
          "internalType": "string",
          "name": "orgaddress",
          "type": "string"
        },
        {
          "internalType": "string",
          "name": "email",
          "type": "string"
        }
      ],
      "payable": false,
      "stateMutability": "view",
      "type": "function"
    },
    {
      "constant": true,
      "inputs": [],
      "name": "owner",
      "outputs": [
        {
          "internalType": "address",
          "name": "",
          "type": "address"
        }
      ],
      "payable": false,
      "stateMutability": "view",
      "type": "function"
    },
    {
      "constant": true,
      "inputs": [
        {
          "internalType": "address",
          "name": "",
          "type": "address"
        }
      ],
      "name": "students",
      "outputs": [
        {
          "internalType": "address",
          "name": "student",
          "type": "address"
        },
        {
          "internalType": "string",
          "name": "fullname",
          "type": "string"
        },
        {
          "internalType": "string",
          "name": "dob",
          "type": "string"
        },
        {
          "internalType": "enum EDUContract.SexType",
          "name": "sex",
          "type": "uint8"
        },
        {
          "internalType": "enum EDUContract.MaritalType",
          "name": "marital",
          "type": "uint8"
        },
        {
          "internalType": "string",
          "name": "email",
          "type": "string"
        }
      ],
      "payable": false,
      "stateMutability": "view",
      "type": "function"
    },
    {
      "constant": true,
      "inputs": [],
      "name": "version",
      "outputs": [
        {
          "internalType": "string",
          "name": "",
          "type": "string"
        }
      ],
      "payable": false,
      "stateMutability": "view",
      "type": "function"
    },
    {
      "constant": false,
      "inputs": [
        {
          "internalType": "address",
          "name": "_collegeadmin",
          "type": "address"
        },
        {
          "internalType": "string",
          "name": "_collegeadminname",
          "type": "string"
        },
        {
          "internalType": "string",
          "name": "_clgadminaddress",
          "type": "string"
        },
        {
          "internalType": "string",
          "name": "_email",
          "type": "string"
        }
      ],
      "name": "SetCollegeAdministrator",
      "outputs": [],
      "payable": false,
      "stateMutability": "nonpayable",
      "type": "function"
    },
    {
      "constant": false,
      "inputs": [
        {
          "internalType": "address",
          "name": "_orgadmin",
          "type": "address"
        },
        {
          "internalType": "string",
          "name": "_orgadminname",
          "type": "string"
        },
        {
          "internalType": "string",
          "name": "_orgadminaddress",
          "type": "string"
        },
        {
          "internalType": "string",
          "name": "_email",
          "type": "string"
        }
      ],
      "name": "SetOrganizationAdministrator",
      "outputs": [],
      "payable": false,
      "stateMutability": "nonpayable",
      "type": "function"
    },
    {
      "constant": false,
      "inputs": [
        {
          "internalType": "address",
          "name": "_college",
          "type": "address"
        },
        {
          "internalType": "string",
          "name": "_collegename",
          "type": "string"
        },
        {
          "internalType": "string",
          "name": "_clgaddress",
          "type": "string"
        },
        {
          "internalType": "string",
          "name": "_email",
          "type": "string"
        }
      ],
      "name": "SetCollege",
      "outputs": [],
      "payable": false,
      "stateMutability": "nonpayable",
      "type": "function"
    },
    {
      "constant": false,
      "inputs": [
        {
          "internalType": "address",
          "name": "_organization",
          "type": "address"
        },
        {
          "internalType": "string",
          "name": "_orgname",
          "type": "string"
        },
        {
          "internalType": "string",
          "name": "_orgaddress",
          "type": "string"
        },
        {
          "internalType": "string",
          "name": "_email",
          "type": "string"
        }
      ],
      "name": "SetOrganization",
      "outputs": [],
      "payable": false,
      "stateMutability": "nonpayable",
      "type": "function"
    },
    {
      "constant": false,
      "inputs": [],
      "name": "kill",
      "outputs": [],
      "payable": false,
      "stateMutability": "nonpayable",
      "type": "function"
    },
    {
      "constant": false,
      "inputs": [
        {
          "internalType": "string",
          "name": "_fullname",
          "type": "string"
        },
        {
          "internalType": "string",
          "name": "_dob",
          "type": "string"
        },
        {
          "internalType": "enum EDUContract.SexType",
          "name": "_sex",
          "type": "uint8"
        },
        {
          "internalType": "enum EDUContract.MaritalType",
          "name": "_marital",
          "type": "uint8"
        },
        {
          "internalType": "string",
          "name": "_email",
          "type": "string"
        },
        {
          "internalType": "uint256[]",
          "name": "_document",
          "type": "uint256[]"
        }
      ],
      "name": "SignupStudent",
      "outputs": [],
      "payable": false,
      "stateMutability": "nonpayable",
      "type": "function"
    },
    {
      "constant": false,
      "inputs": [
        {
          "internalType": "string",
          "name": "_fullname",
          "type": "string"
        },
        {
          "internalType": "string",
          "name": "_dob",
          "type": "string"
        },
        {
          "internalType": "enum EDUContract.SexType",
          "name": "_sex",
          "type": "uint8"
        },
        {
          "internalType": "enum EDUContract.MaritalType",
          "name": "_marital",
          "type": "uint8"
        },
        {
          "internalType": "string",
          "name": "_email",
          "type": "string"
        }
      ],
      "name": "StudentUpdate",
      "outputs": [],
      "payable": false,
      "stateMutability": "nonpayable",
      "type": "function"
    }
  ],
  "bytecode": "0x60806040526040518060400160405280600581526020017f302e302e31000000000000000000000000000000000000000000000000000000815250600f908051906020019062000051929190620001af565b503480156200005f57600080fd5b5033600e60006101000a81548173ffffffffffffffffffffffffffffffffffffffff021916908373ffffffffffffffffffffffffffffffffffffffff1602179055506001600760003373ffffffffffffffffffffffffffffffffffffffff1673ffffffffffffffffffffffffffffffffffffffff16815260200190815260200160002060006101000a81548160ff0219169083151502179055506001600c60003373ffffffffffffffffffffffffffffffffffffffff1673ffffffffffffffffffffffffffffffffffffffff16815260200190815260200160002060006101000a81548160ff0219169083151502179055506001600b60003373ffffffffffffffffffffffffffffffffffffffff1673ffffffffffffffffffffffffffffffffffffffff16815260200190815260200160002060006101000a81548160ff0219169083151502179055506200025e565b828054600181600116156101000203166002900490600052602060002090601f016020900481019282601f10620001f257805160ff191683800117855562000223565b8280016001018555821562000223579182015b828111156200022257825182559160200191906001019062000205565b5b50905062000232919062000236565b5090565b6200025b91905b80821115620002575760008160009055506001016200023d565b5090565b90565b614182806200026e6000396000f3fe608060405234801561001057600080fd5b506004361061014d5760003560e01c806399aeea6e116100c3578063e091870c1161007c578063e091870c14611590578063ea50194914611793578063f3a67e1f1461195b578063f4fe9fad14611b64578063fa5584fb14611bc0578063fddb0e2a14611dc95761014d565b806399aeea6e14610eb6578063a2c97c5214610f12578063a6c807a9146110da578063b1ce8eab146112cc578063c2ed2b0514611328578063d91f9860146115345761014d565b80635a1f7406116101155780635a1f7406146106db57806362766b03146108a357806382f7d39214610aac5780638da5cb5b14610b085780638df4caf714610b5257806394674a2014610d1a5761014d565b80631f772cf31461015257806340feb613146101ae57806341c0e1b5146103b757806347660004146103c157806354fd4d5014610658575b600080fd5b6101946004803603602081101561016857600080fd5b81019080803573ffffffffffffffffffffffffffffffffffffffff169060200190929190505050611f65565b604051808215151515815260200191505060405180910390f35b6103b5600480360360808110156101c457600080fd5b81019080803573ffffffffffffffffffffffffffffffffffffffff1690602001909291908035906020019064010000000081111561020157600080fd5b82018360208201111561021357600080fd5b8035906020019184600183028401116401000000008311171561023557600080fd5b91908080601f016020809104026020016040519081016040528093929190818152602001838380828437600081840152601f19601f8201169050808301925050505050505091929192908035906020019064010000000081111561029857600080fd5b8201836020820111156102aa57600080fd5b803590602001918460018302840111640100000000831117156102cc57600080fd5b91908080601f016020809104026020016040519081016040528093929190818152602001838380828437600081840152601f19601f8201169050808301925050505050505091929192908035906020019064010000000081111561032f57600080fd5b82018360208201111561034157600080fd5b8035906020019184600183028401116401000000008311171561036357600080fd5b91908080601f016020809104026020016040519081016040528093929190818152602001838380828437600081840152601f19601f820116905080830192505050505050509192919290505050611f85565b005b6103bf612203565b005b610656600480360360c08110156103d757600080fd5b81019080803590602001906401000000008111156103f457600080fd5b82018360208201111561040657600080fd5b8035906020019184600183028401116401000000008311171561042857600080fd5b91908080601f016020809104026020016040519081016040528093929190818152602001838380828437600081840152601f19601f8201169050808301925050505050505091929192908035906020019064010000000081111561048b57600080fd5b82018360208201111561049d57600080fd5b803590602001918460018302840111640100000000831117156104bf57600080fd5b91908080601f016020809104026020016040519081016040528093929190818152602001838380828437600081840152601f19601f820116905080830192505050505050509192919290803560ff169060200190929190803560ff1690602001909291908035906020019064010000000081111561053c57600080fd5b82018360208201111561054e57600080fd5b8035906020019184600183028401116401000000008311171561057057600080fd5b91908080601f016020809104026020016040519081016040528093929190818152602001838380828437600081840152601f19601f820116905080830192505050505050509192919290803590602001906401000000008111156105d357600080fd5b8201836020820111156105e557600080fd5b8035906020019184602083028401116401000000008311171561060757600080fd5b919080806020026020016040519081016040528093929190818152602001838360200280828437600081840152601f19601f820116905080830192505050505050509192919290505050612276565b005b6106606124c5565b6040518080602001828103825283818151815260200191508051906020019080838360005b838110156106a0578082015181840152602081019050610685565b50505050905090810190601f1680156106cd5780820380516001836020036101000a031916815260200191505b509250505060405180910390f35b61071d600480360360208110156106f157600080fd5b81019080803573ffffffffffffffffffffffffffffffffffffffff169060200190929190505050612563565b604051808573ffffffffffffffffffffffffffffffffffffffff1673ffffffffffffffffffffffffffffffffffffffff168152602001806020018060200180602001848103845287818151815260200191508051906020019080838360005b8381101561079757808201518184015260208101905061077c565b50505050905090810190601f1680156107c45780820380516001836020036101000a031916815260200191505b50848103835286818151815260200191508051906020019080838360005b838110156107fd5780820151818401526020810190506107e2565b50505050905090810190601f16801561082a5780820380516001836020036101000a031916815260200191505b50848103825285818151815260200191508051906020019080838360005b83811015610863578082015181840152602081019050610848565b50505050905090810190601f1680156108905780820380516001836020036101000a031916815260200191505b5097505050505050505060405180910390f35b610aaa600480360360808110156108b957600080fd5b81019080803573ffffffffffffffffffffffffffffffffffffffff169060200190929190803590602001906401000000008111156108f657600080fd5b82018360208201111561090857600080fd5b8035906020019184600183028401116401000000008311171561092a57600080fd5b91908080601f016020809104026020016040519081016040528093929190818152602001838380828437600081840152601f19601f8201169050808301925050505050505091929192908035906020019064010000000081111561098d57600080fd5b82018360208201111561099f57600080fd5b803590602001918460018302840111640100000000831117156109c157600080fd5b91908080601f016020809104026020016040519081016040528093929190818152602001838380828437600081840152601f19601f82011690508083019250505050505050919291929080359060200190640100000000811115610a2457600080fd5b820183602082011115610a3657600080fd5b80359060200191846001830284011164010000000083111715610a5857600080fd5b91908080601f016020809104026020016040519081016040528093929190818152602001838380828437600081840152601f19601f82011690508083019250505050505050919291929050505061277b565b005b610aee60048036036020811015610ac257600080fd5b81019080803573ffffffffffffffffffffffffffffffffffffffff16906020019092919050505061299f565b604051808215151515815260200191505060405180910390f35b610b106129bf565b604051808273ffffffffffffffffffffffffffffffffffffffff1673ffffffffffffffffffffffffffffffffffffffff16815260200191505060405180910390f35b610b9460048036036020811015610b6857600080fd5b81019080803573ffffffffffffffffffffffffffffffffffffffff1690602001909291905050506129e5565b604051808573ffffffffffffffffffffffffffffffffffffffff1673ffffffffffffffffffffffffffffffffffffffff168152602001806020018060200180602001848103845287818151815260200191508051906020019080838360005b83811015610c0e578082015181840152602081019050610bf3565b50505050905090810190601f168015610c3b5780820380516001836020036101000a031916815260200191505b50848103835286818151815260200191508051906020019080838360005b83811015610c74578082015181840152602081019050610c59565b50505050905090810190601f168015610ca15780820380516001836020036101000a031916815260200191505b50848103825285818151815260200191508051906020019080838360005b83811015610cda578082015181840152602081019050610cbf565b50505050905090810190601f168015610d075780820380516001836020036101000a031916815260200191505b5097505050505050505060405180910390f35b610d4660048036036020811015610d3057600080fd5b8101908080359060200190929190505050612bfd565b604051808881526020018773ffffffffffffffffffffffffffffffffffffffff1673ffffffffffffffffffffffffffffffffffffffff168152602001868152602001856003811115610d9457fe5b60ff168152602001806020018473ffffffffffffffffffffffffffffffffffffffff1673ffffffffffffffffffffffffffffffffffffffff16815260200180602001838103835286818151815260200191508051906020019080838360005b83811015610e0e578082015181840152602081019050610df3565b50505050905090810190601f168015610e3b5780820380516001836020036101000a031916815260200191505b50838103825284818151815260200191508051906020019080838360005b83811015610e74578082015181840152602081019050610e59565b50505050905090810190601f168015610ea15780820380516001836020036101000a031916815260200191505b50995050505050505050505060405180910390f35b610ef860048036036020811015610ecc57600080fd5b81019080803573ffffffffffffffffffffffffffffffffffffffff169060200190929190505050612dbc565b604051808215151515815260200191505060405180910390f35b610f5460048036036020811015610f2857600080fd5b81019080803573ffffffffffffffffffffffffffffffffffffffff169060200190929190505050612ddc565b604051808573ffffffffffffffffffffffffffffffffffffffff1673ffffffffffffffffffffffffffffffffffffffff168152602001806020018060200180602001848103845287818151815260200191508051906020019080838360005b83811015610fce578082015181840152602081019050610fb3565b50505050905090810190601f168015610ffb5780820380516001836020036101000a031916815260200191505b50848103835286818151815260200191508051906020019080838360005b83811015611034578082015181840152602081019050611019565b50505050905090810190601f1680156110615780820380516001836020036101000a031916815260200191505b50848103825285818151815260200191508051906020019080838360005b8381101561109a57808201518184015260208101905061107f565b50505050905090810190601f1680156110c75780820380516001836020036101000a031916815260200191505b5097505050505050505060405180910390f35b61111c600480360360208110156110f057600080fd5b81019080803573ffffffffffffffffffffffffffffffffffffffff169060200190929190505050612ff4565b604051808773ffffffffffffffffffffffffffffffffffffffff1673ffffffffffffffffffffffffffffffffffffffff168152602001806020018060200186600281111561116657fe5b60ff16815260200185600581111561117a57fe5b60ff16815260200180602001848103845289818151815260200191508051906020019080838360005b838110156111be5780820151818401526020810190506111a3565b50505050905090810190601f1680156111eb5780820380516001836020036101000a031916815260200191505b50848103835288818151815260200191508051906020019080838360005b83811015611224578082015181840152602081019050611209565b50505050905090810190601f1680156112515780820380516001836020036101000a031916815260200191505b50848103825285818151815260200191508051906020019080838360005b8381101561128a57808201518184015260208101905061126f565b50505050905090810190601f1680156112b75780820380516001836020036101000a031916815260200191505b50995050505050505050505060405180910390f35b61130e600480360360208110156112e257600080fd5b81019080803573ffffffffffffffffffffffffffffffffffffffff169060200190929190505050613232565b604051808215151515815260200191505060405180910390f35b6113546004803603602081101561133e57600080fd5b8101908080359060200190929190505050613252565b604051808981526020018873ffffffffffffffffffffffffffffffffffffffff1673ffffffffffffffffffffffffffffffffffffffff1681526020018773ffffffffffffffffffffffffffffffffffffffff1673ffffffffffffffffffffffffffffffffffffffff1681526020018660018111156113ce57fe5b60ff16815260200180602001806020018060200185151515158152602001848103845288818151815260200191508051906020019080838360005b83811015611424578082015181840152602081019050611409565b50505050905090810190601f1680156114515780820380516001836020036101000a031916815260200191505b50848103835287818151815260200191508051906020019080838360005b8381101561148a57808201518184015260208101905061146f565b50505050905090810190601f1680156114b75780820380516001836020036101000a031916815260200191505b50848103825286818151815260200191508051906020019080838360005b838110156114f05780820151818401526020810190506114d5565b50505050905090810190601f16801561151d5780820380516001836020036101000a031916815260200191505b509b50505050505050505050505060405180910390f35b6115766004803603602081101561154a57600080fd5b81019080803573ffffffffffffffffffffffffffffffffffffffff1690602001909291905050506134bc565b604051808215151515815260200191505060405180910390f35b611791600480360360a08110156115a657600080fd5b81019080803590602001906401000000008111156115c357600080fd5b8201836020820111156115d557600080fd5b803590602001918460018302840111640100000000831117156115f757600080fd5b91908080601f016020809104026020016040519081016040528093929190818152602001838380828437600081840152601f19601f8201169050808301925050505050505091929192908035906020019064010000000081111561165a57600080fd5b82018360208201111561166c57600080fd5b8035906020019184600183028401116401000000008311171561168e57600080fd5b91908080601f016020809104026020016040519081016040528093929190818152602001838380828437600081840152601f19601f820116905080830192505050505050509192919290803560ff169060200190929190803560ff1690602001909291908035906020019064010000000081111561170b57600080fd5b82018360208201111561171d57600080fd5b8035906020019184600183028401116401000000008311171561173f57600080fd5b91908080601f016020809104026020016040519081016040528093929190818152602001838380828437600081840152601f19601f8201169050808301925050505050505091929192905050506134dc565b005b6117d5600480360360208110156117a957600080fd5b81019080803573ffffffffffffffffffffffffffffffffffffffff169060200190929190505050613742565b604051808573ffffffffffffffffffffffffffffffffffffffff1673ffffffffffffffffffffffffffffffffffffffff168152602001806020018060200180602001848103845287818151815260200191508051906020019080838360005b8381101561184f578082015181840152602081019050611834565b50505050905090810190601f16801561187c5780820380516001836020036101000a031916815260200191505b50848103835286818151815260200191508051906020019080838360005b838110156118b557808201518184015260208101905061189a565b50505050905090810190601f1680156118e25780820380516001836020036101000a031916815260200191505b50848103825285818151815260200191508051906020019080838360005b8381101561191b578082015181840152602081019050611900565b50505050905090810190601f1680156119485780820380516001836020036101000a031916815260200191505b5097505050505050505060405180910390f35b611b626004803603608081101561197157600080fd5b81019080803573ffffffffffffffffffffffffffffffffffffffff169060200190929190803590602001906401000000008111156119ae57600080fd5b8201836020820111156119c057600080fd5b803590602001918460018302840111640100000000831117156119e257600080fd5b91908080601f016020809104026020016040519081016040528093929190818152602001838380828437600081840152601f19601f82011690508083019250505050505050919291929080359060200190640100000000811115611a4557600080fd5b820183602082011115611a5757600080fd5b80359060200191846001830284011164010000000083111715611a7957600080fd5b91908080601f016020809104026020016040519081016040528093929190818152602001838380828437600081840152601f19601f82011690508083019250505050505050919291929080359060200190640100000000811115611adc57600080fd5b820183602082011115611aee57600080fd5b80359060200191846001830284011164010000000083111715611b1057600080fd5b91908080601f016020809104026020016040519081016040528093929190818152602001838380828437600081840152601f19601f82011690508083019250505050505050919291929050505061395a565b005b611ba660048036036020811015611b7a57600080fd5b81019080803573ffffffffffffffffffffffffffffffffffffffff169060200190929190505050613b7e565b604051808215151515815260200191505060405180910390f35b611dc760048036036080811015611bd657600080fd5b81019080803573ffffffffffffffffffffffffffffffffffffffff16906020019092919080359060200190640100000000811115611c1357600080fd5b820183602082011115611c2557600080fd5b80359060200191846001830284011164010000000083111715611c4757600080fd5b91908080601f016020809104026020016040519081016040528093929190818152602001838380828437600081840152601f19601f82011690508083019250505050505050919291929080359060200190640100000000811115611caa57600080fd5b820183602082011115611cbc57600080fd5b80359060200191846001830284011164010000000083111715611cde57600080fd5b91908080601f016020809104026020016040519081016040528093929190818152602001838380828437600081840152601f19601f82011690508083019250505050505050919291929080359060200190640100000000811115611d4157600080fd5b820183602082011115611d5357600080fd5b80359060200191846001830284011164010000000083111715611d7557600080fd5b91908080601f016020809104026020016040519081016040528093929190818152602001838380828437600081840152601f19601f820116905080830192505050505050509192919290505050613b9e565b005b611df560048036036020811015611ddf57600080fd5b8101908080359060200190929190505050613e1c565b604051808881526020018773ffffffffffffffffffffffffffffffffffffffff1673ffffffffffffffffffffffffffffffffffffffff168152602001868152602001856003811115611e4357fe5b60ff168152602001806020018473ffffffffffffffffffffffffffffffffffffffff1673ffffffffffffffffffffffffffffffffffffffff16815260200180602001838103835286818151815260200191508051906020019080838360005b83811015611ebd578082015181840152602081019050611ea2565b50505050905090810190601f168015611eea5780820380516001836020036101000a031916815260200191505b50838103825284818151815260200191508051906020019080838360005b83811015611f23578082015181840152602081019050611f08565b50505050905090810190601f168015611f505780820380516001836020036101000a031916815260200191505b50995050505050505050505060405180910390f35b600b6020528060005260406000206000915054906101000a900460ff1681565b600e60009054906101000a900473ffffffffffffffffffffffffffffffffffffffff1673ffffffffffffffffffffffffffffffffffffffff163373ffffffffffffffffffffffffffffffffffffffff1614611fdf57600080fd5b600760008573ffffffffffffffffffffffffffffffffffffffff1673ffffffffffffffffffffffffffffffffffffffff16815260200190815260200160002060009054906101000a900460ff161561203657600080fd5b6000600760008673ffffffffffffffffffffffffffffffffffffffff1673ffffffffffffffffffffffffffffffffffffffff16815260200190815260200160002060006101000a81548160ff0219169083151502179055506001600b60008673ffffffffffffffffffffffffffffffffffffffff1673ffffffffffffffffffffffffffffffffffffffff16815260200190815260200160002060006101000a81548160ff02191690831515021790555060405180608001604052808573ffffffffffffffffffffffffffffffffffffffff16815260200184815260200183815260200182815250600360008673ffffffffffffffffffffffffffffffffffffffff1673ffffffffffffffffffffffffffffffffffffffff16815260200190815260200160002060008201518160000160006101000a81548173ffffffffffffffffffffffffffffffffffffffff021916908373ffffffffffffffffffffffffffffffffffffffff16021790555060208201518160010190805190602001906121bf929190613fdb565b5060408201518160020190805190602001906121dc929190613fdb565b5060608201518160030190805190602001906121f9929190613fdb565b5090505050505050565b600e60009054906101000a900473ffffffffffffffffffffffffffffffffffffffff1673ffffffffffffffffffffffffffffffffffffffff163373ffffffffffffffffffffffffffffffffffffffff161461225d57600080fd5b3373ffffffffffffffffffffffffffffffffffffffff16ff5b6000803373ffffffffffffffffffffffffffffffffffffffff1673ffffffffffffffffffffffffffffffffffffffff16815260200190815260200160002060000160009054906101000a900473ffffffffffffffffffffffffffffffffffffffff1673ffffffffffffffffffffffffffffffffffffffff163373ffffffffffffffffffffffffffffffffffffffff16141561231057600080fd5b6040518060e001604052803373ffffffffffffffffffffffffffffffffffffffff16815260200187815260200186815260200185600281111561234f57fe5b815260200184600581111561236057fe5b8152602001838152602001828152506000803373ffffffffffffffffffffffffffffffffffffffff1673ffffffffffffffffffffffffffffffffffffffff16815260200190815260200160002060008201518160000160006101000a81548173ffffffffffffffffffffffffffffffffffffffff021916908373ffffffffffffffffffffffffffffffffffffffff1602179055506020820151816001019080519060200190612410929190613fdb565b50604082015181600201908051906020019061242d929190613fdb565b5060608201518160030160006101000a81548160ff0219169083600281111561245257fe5b021790555060808201518160030160016101000a81548160ff0219169083600581111561247b57fe5b021790555060a082015181600401908051906020019061249c929190613fdb565b5060c08201518160050190805190602001906124b992919061405b565b50905050505050505050565b600f8054600181600116156101000203166002900480601f01602080910402602001604051908101604052809291908181526020018280546001816001161561010002031660029004801561255b5780601f106125305761010080835404028352916020019161255b565b820191906000526020600020905b81548152906001019060200180831161253e57829003601f168201915b505050505081565b60026020528060005260406000206000915090508060000160009054906101000a900473ffffffffffffffffffffffffffffffffffffffff1690806001018054600181600116156101000203166002900480601f0160208091040260200160405190810160405280929190818152602001828054600181600116156101000203166002900480156126355780601f1061260a57610100808354040283529160200191612635565b820191906000526020600020905b81548152906001019060200180831161261857829003601f168201915b505050505090806002018054600181600116156101000203166002900480601f0160208091040260200160405190810160405280929190818152602001828054600181600116156101000203166002900480156126d35780601f106126a8576101008083540402835291602001916126d3565b820191906000526020600020905b8154815290600101906020018083116126b657829003601f168201915b505050505090806003018054600181600116156101000203166002900480601f0160208091040260200160405190810160405280929190818152602001828054600181600116156101000203166002900480156127715780601f1061274657610100808354040283529160200191612771565b820191906000526020600020905b81548152906001019060200180831161275457829003601f168201915b5050505050905084565b600b60008573ffffffffffffffffffffffffffffffffffffffff1673ffffffffffffffffffffffffffffffffffffffff16815260200190815260200160002060009054906101000a900460ff16156127d257600080fd5b6000600b60008673ffffffffffffffffffffffffffffffffffffffff1673ffffffffffffffffffffffffffffffffffffffff16815260200190815260200160002060006101000a81548160ff0219169083151502179055506001600860008673ffffffffffffffffffffffffffffffffffffffff1673ffffffffffffffffffffffffffffffffffffffff16815260200190815260200160002060006101000a81548160ff02191690831515021790555060405180608001604052808573ffffffffffffffffffffffffffffffffffffffff16815260200184815260200183815260200182815250600160008673ffffffffffffffffffffffffffffffffffffffff1673ffffffffffffffffffffffffffffffffffffffff16815260200190815260200160002060008201518160000160006101000a81548173ffffffffffffffffffffffffffffffffffffffff021916908373ffffffffffffffffffffffffffffffffffffffff160217905550602082015181600101908051906020019061295b929190613fdb565b506040820151816002019080519060200190612978929190613fdb565b506060820151816003019080519060200190612995929190613fdb565b5090505050505050565b60096020528060005260406000206000915054906101000a900460ff1681565b600e60009054906101000a900473ffffffffffffffffffffffffffffffffffffffff1681565b60046020528060005260406000206000915090508060000160009054906101000a900473ffffffffffffffffffffffffffffffffffffffff1690806001018054600181600116156101000203166002900480601f016020809104026020016040519081016040528092919081815260200182805460018160011615610100020316600290048015612ab75780601f10612a8c57610100808354040283529160200191612ab7565b820191906000526020600020905b815481529060010190602001808311612a9a57829003601f168201915b505050505090806002018054600181600116156101000203166002900480601f016020809104026020016040519081016040528092919081815260200182805460018160011615610100020316600290048015612b555780601f10612b2a57610100808354040283529160200191612b55565b820191906000526020600020905b815481529060010190602001808311612b3857829003601f168201915b505050505090806003018054600181600116156101000203166002900480601f016020809104026020016040519081016040528092919081815260200182805460018160011615610100020316600290048015612bf35780601f10612bc857610100808354040283529160200191612bf3565b820191906000526020600020905b815481529060010190602001808311612bd657829003601f168201915b5050505050905084565b60066020528060005260406000206000915090508060000154908060010160009054906101000a900473ffffffffffffffffffffffffffffffffffffffff16908060020154908060030160009054906101000a900460ff1690806004018054600181600116156101000203166002900480601f016020809104026020016040519081016040528092919081815260200182805460018160011615610100020316600290048015612cee5780601f10612cc357610100808354040283529160200191612cee565b820191906000526020600020905b815481529060010190602001808311612cd157829003601f168201915b5050505050908060050160009054906101000a900473ffffffffffffffffffffffffffffffffffffffff1690806006018054600181600116156101000203166002900480601f016020809104026020016040519081016040528092919081815260200182805460018160011615610100020316600290048015612db25780601f10612d8757610100808354040283529160200191612db2565b820191906000526020600020905b815481529060010190602001808311612d9557829003601f168201915b5050505050905087565b600c6020528060005260406000206000915054906101000a900460ff1681565b60036020528060005260406000206000915090508060000160009054906101000a900473ffffffffffffffffffffffffffffffffffffffff1690806001018054600181600116156101000203166002900480601f016020809104026020016040519081016040528092919081815260200182805460018160011615610100020316600290048015612eae5780601f10612e8357610100808354040283529160200191612eae565b820191906000526020600020905b815481529060010190602001808311612e9157829003601f168201915b505050505090806002018054600181600116156101000203166002900480601f016020809104026020016040519081016040528092919081815260200182805460018160011615610100020316600290048015612f4c5780601f10612f2157610100808354040283529160200191612f4c565b820191906000526020600020905b815481529060010190602001808311612f2f57829003601f168201915b505050505090806003018054600181600116156101000203166002900480601f016020809104026020016040519081016040528092919081815260200182805460018160011615610100020316600290048015612fea5780601f10612fbf57610100808354040283529160200191612fea565b820191906000526020600020905b815481529060010190602001808311612fcd57829003601f168201915b5050505050905084565b60006020528060005260406000206000915090508060000160009054906101000a900473ffffffffffffffffffffffffffffffffffffffff1690806001018054600181600116156101000203166002900480601f0160208091040260200160405190810160405280929190818152602001828054600181600116156101000203166002900480156130c65780601f1061309b576101008083540402835291602001916130c6565b820191906000526020600020905b8154815290600101906020018083116130a957829003601f168201915b505050505090806002018054600181600116156101000203166002900480601f0160208091040260200160405190810160405280929190818152602001828054600181600116156101000203166002900480156131645780601f1061313957610100808354040283529160200191613164565b820191906000526020600020905b81548152906001019060200180831161314757829003601f168201915b5050505050908060030160009054906101000a900460ff16908060030160019054906101000a900460ff1690806004018054600181600116156101000203166002900480601f0160208091040260200160405190810160405280929190818152602001828054600181600116156101000203166002900480156132285780601f106131fd57610100808354040283529160200191613228565b820191906000526020600020905b81548152906001019060200180831161320b57829003601f168201915b5050505050905086565b600a6020528060005260406000206000915054906101000a900460ff1681565b600d6020528060005260406000206000915090508060000154908060010160009054906101000a900473ffffffffffffffffffffffffffffffffffffffff16908060020160009054906101000a900473ffffffffffffffffffffffffffffffffffffffff16908060020160149054906101000a900460ff1690806003018054600181600116156101000203166002900480601f0160208091040260200160405190810160405280929190818152602001828054600181600116156101000203166002900480156133635780601f1061333857610100808354040283529160200191613363565b820191906000526020600020905b81548152906001019060200180831161334657829003601f168201915b505050505090806004018054600181600116156101000203166002900480601f0160208091040260200160405190810160405280929190818152602001828054600181600116156101000203166002900480156134015780601f106133d657610100808354040283529160200191613401565b820191906000526020600020905b8154815290600101906020018083116133e457829003601f168201915b505050505090806005018054600181600116156101000203166002900480601f01602080910402602001604051908101604052809291908181526020018280546001816001161561010002031660029004801561349f5780601f106134745761010080835404028352916020019161349f565b820191906000526020600020905b81548152906001019060200180831161348257829003601f168201915b5050505050908060060160009054906101000a900460ff16905088565b60086020528060005260406000206000915054906101000a900460ff1681565b6000803373ffffffffffffffffffffffffffffffffffffffff1673ffffffffffffffffffffffffffffffffffffffff16815260200190815260200160002060000160009054906101000a900473ffffffffffffffffffffffffffffffffffffffff1673ffffffffffffffffffffffffffffffffffffffff163373ffffffffffffffffffffffffffffffffffffffff161461357557600080fd5b846000803373ffffffffffffffffffffffffffffffffffffffff1673ffffffffffffffffffffffffffffffffffffffff16815260200190815260200160002060010190805190602001906135ca9291906140a8565b50836000803373ffffffffffffffffffffffffffffffffffffffff1673ffffffffffffffffffffffffffffffffffffffff16815260200190815260200160002060020190805190602001906136209291906140a8565b50826000803373ffffffffffffffffffffffffffffffffffffffff1673ffffffffffffffffffffffffffffffffffffffff16815260200190815260200160002060030160006101000a81548160ff0219169083600281111561367e57fe5b0217905550816000803373ffffffffffffffffffffffffffffffffffffffff1673ffffffffffffffffffffffffffffffffffffffff16815260200190815260200160002060030160016101000a81548160ff021916908360058111156136e057fe5b0217905550806000803373ffffffffffffffffffffffffffffffffffffffff1673ffffffffffffffffffffffffffffffffffffffff168152602001908152602001600020600401908051906020019061373a9291906140a8565b505050505050565b60016020528060005260406000206000915090508060000160009054906101000a900473ffffffffffffffffffffffffffffffffffffffff1690806001018054600181600116156101000203166002900480601f0160208091040260200160405190810160405280929190818152602001828054600181600116156101000203166002900480156138145780601f106137e957610100808354040283529160200191613814565b820191906000526020600020905b8154815290600101906020018083116137f757829003601f168201915b505050505090806002018054600181600116156101000203166002900480601f0160208091040260200160405190810160405280929190818152602001828054600181600116156101000203166002900480156138b25780601f10613887576101008083540402835291602001916138b2565b820191906000526020600020905b81548152906001019060200180831161389557829003601f168201915b505050505090806003018054600181600116156101000203166002900480601f0160208091040260200160405190810160405280929190818152602001828054600181600116156101000203166002900480156139505780601f1061392557610100808354040283529160200191613950565b820191906000526020600020905b81548152906001019060200180831161393357829003601f168201915b5050505050905084565b600c60008573ffffffffffffffffffffffffffffffffffffffff1673ffffffffffffffffffffffffffffffffffffffff16815260200190815260200160002060009054906101000a900460ff16156139b157600080fd5b6000600c60008673ffffffffffffffffffffffffffffffffffffffff1673ffffffffffffffffffffffffffffffffffffffff16815260200190815260200160002060006101000a81548160ff0219169083151502179055506001600a60008673ffffffffffffffffffffffffffffffffffffffff1673ffffffffffffffffffffffffffffffffffffffff16815260200190815260200160002060006101000a81548160ff02191690831515021790555060405180608001604052808573ffffffffffffffffffffffffffffffffffffffff16815260200184815260200183815260200182815250600260008673ffffffffffffffffffffffffffffffffffffffff1673ffffffffffffffffffffffffffffffffffffffff16815260200190815260200160002060008201518160000160006101000a81548173ffffffffffffffffffffffffffffffffffffffff021916908373ffffffffffffffffffffffffffffffffffffffff1602179055506020820151816001019080519060200190613b3a929190613fdb565b506040820151816002019080519060200190613b57929190613fdb565b506060820151816003019080519060200190613b74929190613fdb565b5090505050505050565b60076020528060005260406000206000915054906101000a900460ff1681565b600e60009054906101000a900473ffffffffffffffffffffffffffffffffffffffff1673ffffffffffffffffffffffffffffffffffffffff163373ffffffffffffffffffffffffffffffffffffffff1614613bf857600080fd5b600760008573ffffffffffffffffffffffffffffffffffffffff1673ffffffffffffffffffffffffffffffffffffffff16815260200190815260200160002060009054906101000a900460ff1615613c4f57600080fd5b6000600760008673ffffffffffffffffffffffffffffffffffffffff1673ffffffffffffffffffffffffffffffffffffffff16815260200190815260200160002060006101000a81548160ff0219169083151502179055506001600c60008673ffffffffffffffffffffffffffffffffffffffff1673ffffffffffffffffffffffffffffffffffffffff16815260200190815260200160002060006101000a81548160ff02191690831515021790555060405180608001604052808573ffffffffffffffffffffffffffffffffffffffff16815260200184815260200183815260200182815250600460008673ffffffffffffffffffffffffffffffffffffffff1673ffffffffffffffffffffffffffffffffffffffff16815260200190815260200160002060008201518160000160006101000a81548173ffffffffffffffffffffffffffffffffffffffff021916908373ffffffffffffffffffffffffffffffffffffffff1602179055506020820151816001019080519060200190613dd8929190613fdb565b506040820151816002019080519060200190613df5929190613fdb565b506060820151816003019080519060200190613e12929190613fdb565b5090505050505050565b60056020528060005260406000206000915090508060000154908060010160009054906101000a900473ffffffffffffffffffffffffffffffffffffffff16908060020154908060030160009054906101000a900460ff1690806004018054600181600116156101000203166002900480601f016020809104026020016040519081016040528092919081815260200182805460018160011615610100020316600290048015613f0d5780601f10613ee257610100808354040283529160200191613f0d565b820191906000526020600020905b815481529060010190602001808311613ef057829003601f168201915b5050505050908060050160009054906101000a900473ffffffffffffffffffffffffffffffffffffffff1690806006018054600181600116156101000203166002900480601f016020809104026020016040519081016040528092919081815260200182805460018160011615610100020316600290048015613fd15780601f10613fa657610100808354040283529160200191613fd1565b820191906000526020600020905b815481529060010190602001808311613fb457829003601f168201915b5050505050905087565b828054600181600116156101000203166002900490600052602060002090601f016020900481019282601f1061401c57805160ff191683800117855561404a565b8280016001018555821561404a579182015b8281111561404957825182559160200191906001019061402e565b5b5090506140579190614128565b5090565b828054828255906000526020600020908101928215614097579160200282015b8281111561409657825182559160200191906001019061407b565b5b5090506140a49190614128565b5090565b828054600181600116156101000203166002900490600052602060002090601f016020900481019282601f106140e957805160ff1916838001178555614117565b82800160010185558215614117579182015b828111156141165782518255916020019190600101906140fb565b5b5090506141249190614128565b5090565b61414a91905b8082111561414657600081600090555060010161412e565b5090565b9056fea265627a7a723158208a5a8d2dddc55a52e35a8ebdf362fcee66db8103b22dfe528975f80b4172f66e64736f6c63430005100032",
  "source": "pragma solidity >=0.4.0 <0.7.0;\r\n\r\n\r\ncontract EDUContract {\r\n    enum SexType {MALE, FEMALE, OTHER}\r\n    enum MaritalType {single, married, remarried, separated, divorced, widowed}\r\n    enum RequestStat {CREATED, APPROVED, REJECTED, CLOSE}\r\n    enum StudentStat {APPLIED, PURSUING, COMPLETED}\r\n    enum DocSender {ORG, CLG}\r\n    \r\n// Student, College, Organization, College Admin, Organization Admin, CollegeRequest, OrganizationRequest, Document\r\n    struct Student {\r\n        address student;\r\n        string fullname;\r\n        string dob;\r\n        SexType sex;\r\n        MaritalType marital;\r\n        string email;\r\n        uint256[] document;\r\n    }\r\n\r\n    struct CollegeRequest {\r\n        uint256 index;\r\n        address student;\r\n        uint256 datetime;\r\n        RequestStat stat;\r\n        string remark;\r\n        address college;\r\n        string docpath;\r\n    }\r\n\r\n    struct OrganizationRequest {\r\n        uint256 index;\r\n        address student;\r\n        uint256 datetime;\r\n        RequestStat stat;\r\n        string remark;\r\n        address organization;\r\n        string docpath;\r\n    }\r\n\r\n    struct College {\r\n        address Id;\r\n        string collegename;\r\n        string clgaddress;\r\n        string email;\r\n    }\r\n\r\n    struct Organization {\r\n        address Id;\r\n        string orgname;\r\n        string orgaddress;\r\n        string email;\r\n    }\r\n\r\n    struct Document {\r\n        uint256 index;\r\n        address institute;\r\n        address student;\r\n        DocSender sender;\r\n        string docname;\r\n        string docpath;\r\n        string docdesc;\r\n        bool isActive;\r\n    }\r\n\r\n    struct CollegeAdmin {\r\n        address Id;\r\n        string collegeadminname;\r\n        string clgadminaddress;\r\n        string email;\r\n    }\r\n\r\n    struct OrganizationAdmin {\r\n        address Id;\r\n        string orgadminname;\r\n        string orgadminaddress;\r\n        string email;\r\n    }\r\n\r\n    mapping(address => Student) public students;\r\n    mapping(address => College) public colleges;\r\n    mapping(address => Organization) public organizations;\r\n    mapping(address => CollegeAdmin) public collegeAdministrator;\r\n    mapping(address => OrganizationAdmin) public organizationAdministartor;\r\n    mapping(uint256 => CollegeRequest) public collegeRequests;\r\n    mapping(uint256 => OrganizationRequest) public organizationRequests;\r\n    mapping(address => bool) public administrator;\r\n    mapping(address => bool) public isCollege;\r\n    mapping(address => bool) public isStudent;\r\n    mapping(address => bool) public isOrganization;\r\n    mapping(address => bool) public isCollegeAdministartor;\r\n    mapping(address => bool) public isOrganizationAdministrator;\r\n    mapping(uint256 => Document) public documents;\r\n\r\n\r\n    address public owner;\r\n\r\n    string public version = \"0.0.1\";\r\n\r\n    constructor() public {\r\n        owner = msg.sender;\r\n        administrator[msg.sender] = true;\r\n        isOrganizationAdministrator[msg.sender] = true;\r\n        isCollegeAdministartor[msg.sender] = true;\r\n    }\r\n   \r\n\r\n    function SetCollegeAdministrator( \r\n        address _collegeadmin,\r\n        string memory _collegeadminname,\r\n        string memory _clgadminaddress,\r\n        string memory _email\r\n    ) public {\r\n        require(msg.sender == owner);\r\n        require(!administrator[_collegeadmin]);\r\n        administrator[_collegeadmin] = false;\r\n\r\n        isCollegeAdministartor[_collegeadmin] = true;\r\n        collegeAdministrator[_collegeadmin] = CollegeAdmin(\r\n            _collegeadmin,\r\n            _collegeadminname,\r\n            _clgadminaddress,\r\n            _email\r\n        );\r\n    }\r\n\r\n    function SetOrganizationAdministrator( \r\n        address _orgadmin,\r\n        string memory _orgadminname,\r\n        string memory _orgadminaddress,\r\n        string memory _email\r\n    ) public {\r\n        require(msg.sender == owner);\r\n        require(!administrator[_orgadmin]);\r\n        administrator[_orgadmin] = false;\r\n\r\n        isOrganizationAdministrator[_orgadmin] = true;\r\n        organizationAdministartor[_orgadmin] = OrganizationAdmin(\r\n            _orgadmin,\r\n            _orgadminname,\r\n            _orgadminaddress,\r\n            _email\r\n        );\r\n    }    \r\n\r\n    function SetCollege( \r\n        address _college,\r\n        string memory _collegename,\r\n        string memory _clgaddress,\r\n        string memory _email\r\n    ) public {\r\n        require(!isCollegeAdministartor[_college]);\r\n        isCollegeAdministartor[_college] = false;\r\n\r\n        isCollege[_college] = true;\r\n        colleges[_college] = College(\r\n            _college,\r\n            _collegename,\r\n            _clgaddress,\r\n            _email\r\n        );\r\n    }\r\n\r\n    function SetOrganization( \r\n        address _organization,\r\n        string memory _orgname,\r\n        string memory _orgaddress,\r\n        string memory _email\r\n    ) public {        \r\n        require(!isOrganizationAdministrator[_organization]);\r\n        isOrganizationAdministrator[_organization] = false;\r\n\r\n        isOrganization[_organization] = true;\r\n        organizations[_organization] = Organization(\r\n            _organization,\r\n            _orgname,\r\n            _orgaddress,\r\n            _email\r\n        );\r\n    }\r\n\r\n    function kill() public {\r\n        require(msg.sender == owner);\r\n        selfdestruct(msg.sender);\r\n    }\r\n\r\n    function SignupStudent(\r\n        string memory _fullname,\r\n        string memory _dob,\r\n        SexType _sex,\r\n        MaritalType _marital,\r\n        string memory _email,\r\n        uint256[] memory _document\r\n    ) public {\r\n        require(msg.sender != students[msg.sender].student);\r\n\r\n        students[msg.sender] = Student(\r\n            msg.sender,\r\n            _fullname,\r\n            _dob,\r\n            _sex,\r\n            _marital,\r\n            _email,\r\n            _document\r\n        );\r\n    }\r\n\r\n    function StudentUpdate(\r\n        string memory _fullname,\r\n        string memory _dob,\r\n        SexType _sex,\r\n        MaritalType _marital,\r\n        string memory _email\r\n    ) public {\r\n        require(msg.sender == students[msg.sender].student);\r\n\r\n        students[msg.sender].fullname = _fullname;\r\n        students[msg.sender].dob = _dob;\r\n        students[msg.sender].sex = _sex;\r\n        students[msg.sender].marital = _marital;\r\n        students[msg.sender].email = _email;\r\n    }\r\n    \r\n\r\n}\r\n",
  "sourcePath": "C:/Users/Personnal/Documents/Hackathon/Hack36/EduBlocks/contracts/EDUContract.sol",
  "compiler": {
    "name": "solc",
    "version": "0.5.16+commit.9c3226ce.Emscripten.clang"
  },
  "schemaVersion": "3.3.4",
  "updatedAt": "2021-04-09T16:56:09.371Z",
  "devdoc": {
    "methods": {}
  },
  "userdoc": {
    "methods": {}
  }
}